S017000041546D65676138496E7465726170742E737265635F
S113000012C02CC02BC02AC029C028C0CDC226C013
S113001025C024C023C022C021C020C01FC01EC0D0
S11300201DC01CC01BC011241FBECFE5D4E0DEBF21
S1130030CDBF10E0A0E6B0E0ECEAF3E102C0059029
S11300400D92A236B107D9F720E0A2E6B0E001C0D4
S11300501D92AE3DB207E1F7F9D4A6C9D1CFFC0198
S11300606083418352838AE090E094838383633482
S1130070A1F0643411F1623479F527B381E090E0A2
S113008002C0880F991F4A95E2F7982F9095922302
S113009097BB98B3892B88BB089524B381E090E083
S11300A002C0880F991F4A95E2F7982F90959223E2
S11300B094BB95B3892B85BB089521B381E090E06F
S11300C002C0880F991F4A95E2F7982F90959223C2
S11300D091BB92B3892B82BB0895FC0127813085A3
S11300E0232B21F01086178281E0089580E0089583
S11300F0FC019081933479F09434C1F0923419F571
S113010026B330E0C901018002C0959587950A9411
S1130110E2F7817015C023B330E0C901018002C049
S1130120959587950A94E2F781700AC020B330E070
S1130130C901018002C0959587950A94E2F7817000
S113014091E08927089580E00895CF93DF93EC012F
S1130150CFDF882389F08D819E8101969E838D83D4
S11301602B813C81281739079CF43E832D8381E041
S113017090E09A8789870CC01E821D8289859A85A2
S1130180892B21F081E090E098878F831A86198665
S1130190DF91CF910895FC016083418352836334DE
S11301A0A1F0643411F1623479F527B381E090E071
S11301B002C0880F991F4A95E2F7982F90959223D1
S11301C097BB98B3892B88BB089524B381E090E052
S11301D002C0880F991F4A95E2F7982F90959223B1
S11301E094BB95B3892B85BB089521B381E090E03E
S11301F002C0880F991F4A95E2F7982F9095922391
S113020091BB92B3892B82BB0895FC0190819334F6
S113021079F09434C1F0923419F526B330E0C90171
S1130220018002C0959587950A94E2F7817015C004
S113023023B330E0C901018002C0959587950A94E3
S1130240E2F781700AC020B330E0C901018002C026
S1130250959587950A94E2F7817091E0892708952E
S113026080E0089584B3886384BB85B3877C85BBB1
S11302700895AC9AAB98882314F4AC9A01C0AC9856
S113028092E09A95F1F700C0AB9A90E19A95F1F754
S1130290AB9886FF02C0AC9A01C0AC9892E09A95E4
S11302A0F1F700C0AB9A90E19A95F1F7AB9885FF0E
S11302B002C0AC9A01C0AC9892E09A95F1F700C0E4
S11302C0AB9A90E19A95F1F7AB9884FF02C0AC9A8F
S11302D001C0AC9892E09A95F1F700C0AB9A90E116
S11302E09A95F1F7AB9883FF02C0AC9A01C0AC9821
S11302F092E09A95F1F700C0AB9A90E19A95F1F7E4
S1130300AB9882FF02C0AC9A01C0AC9892E09A9577
S1130310F1F700C0AB9A90E19A95F1F7AB9881FFA1
S113032002C0AC9A01C0AC9892E09A95F1F700C073
S1130330AB9A90E19A95F1F7AB9880FF02C0AC9A22
S113034001C0AC9882E08A95F1F700C0AB9A90E1C5
S11303509A95F1F7AB98AC9A0895CF93C62FAD98C0
S113036088DF8C2F86DFAD9ACF910895CF93C0910B
S113037060006FE08C2FF1DFC150D9F7CF91089561
S11303806FEF89E0EADF6091600065508BE0E5DFA4
S113039065E08AE0E2DF61E08CE0DFDFE7DF60E078
S11303A081E0DBDF60E082E0D8DF60E083E0D5DF7E
S11303B060E084E0D2DF08959F92AF92BF92CF9223
S11303C0DF92EF92FF920F931F93CF93DF9300D0AE
S11303D000D0CDB7DEB769837A838B839C835A01BF
S11303E089819A81AB81BC81BB2394F489819A81F0
S11303F0AB81BC81B095A095909581959F4FAF4FEF
S1130400BF4F89839A83AB83BC839924939401C09F
S1130410912CACDF89819A81AB81BC81892B8A2B99
S11304208B2B21F460E081E098DF41C001E010E013
S11304300F2EFAE0CF2ED12CE12CF12CF02D01C09F
S1130440022F812F90E08A159B0569F4112359F03E
S113045069817A818B819C81A701960173D7605849
S1130460802F7BDF09C069817A818B819C81A70100
S1130470960168D7802F71DF69817A818B819C8195
S1130480A70196015FD729833A834B835C838981D3
S11304909A81AB81BC811F5F21E0200F892B8A2BBD
S11304A08B2B71F6992019F06AE0822F56DF0F909A
S11304B00F900F900F90DF91CF911F910F91FF90AC
S11304C0EF90DF90CF90BF90AF909F900895CF931F
S11304D0DF9300D000D0CDB7DEB769837A838B83F6
S11304E09C8369817A818B819C8124E630E040E0A1
S11304F050E028D7CA01B90141E050E05DDF0F9018
S11305000F900F900F90DF91CF9108958091DC00B0
S1130510882391F08091DA009091DB00019690930A
S1130520DB008093DA008131974234F01092DC00D2
S11305301092DB001092DA0008958091DD008111A1
S113054027C082E690E03AD681110CC06091620027
S113055070916300809164009091650040E050E0E8
S11305602BDF08958091DC00882361F060916200A4
S113057070916300809164009091650040E050E0C8
S11305801BDF089540E050E060E070E0CB0114DF31
S113059008958EB588608EBD89B7806189BF8EB598
S11305A084608EBD789408951F920F920FB60F92B7
S11305B011242F933F934F935F936F937F938F9364
S11305C09F93AF93BF93EF93FF9382E690E06ED631
S11305D0609162007091630082E690E0BFD3ADDF6A
S11305E0FF91EF91BF91AF919F918F917F916F9107
S11305F05F914F913F912F910F900FBE0F901F90DD
S1130600189540E050E063E487ED90E0C4DD41E0FC
S113061050E063E484ED90E0BEDD40E050E064E44B
S113062089EC90E01CDD41E050E064E48EEB90E066
S113063016DD42E050E064E483EB90E010DD44E03A
S113064050E064E488EA90E00ADD43E050E064E4CA
S11306508DE990E004DD20E042E050E063E489E9C4
S113066090E003D221E046E050E062E485E990E0C6
S1130670FCD121E047E050E062E481E990E0F5D16B
S113068021E045E050E064E48DE890E0EED182E6BC
S113069090E01CD3B89AB99ABA9ABB9ABC9ABD9AFC
S11306A08F9AE0DD6DDE75DF2FEF80E792E0215059
S11306B080409040E1F700C0000089E990E0A6D2B4
S11306C0089589EC90E041DD8EEB90E03EDD83EB14
S11306D090E03BDD88EA90E038DD8DE990E035DD9F
S11306E008958EEB90E0F9DC882389F080917D00F9
S11306F081110DC087ED90E088DD811108C084ED83
S113070090E083DD882319F081E080937A000895D6
S113071089EC90E0E2DC882369F087ED90E075DDF8
S1130720811108C084ED90E070DD882319F081E028
S113073080937B00089583EB90E0CFDC882319F04D
S113074081E080937C00089588EA90E0C6DC8823E9
S113075051F082E690E04AD481E08093DC0010926C
S1130760DB001092DA008DE990E0B7DC882351F0C9
S113077082E690E06ED481E08093DC001092DB008E
S11307801092DA000895DF92EF92FF920F931F9375
S1130790CF93DF9382E690E011D5882309F473C0E8
S11307A0C8EAD0E00F2EFDE9EF2EF0E0FF2EF02D89
S11307B00EEB10E0DD24D39489859A85892B29F4E6
S11307C0F70181859285892B29F0F801818592852D
S11307D0892B29F48091DD00882309F454C0D09238
S11307E0DD008DE890E012D281E990E0AFD185E997
S11307F090E0ACD1CE01A9DCCE016FDC882389F076
S113080064E670E082E690E057D48DE890E09ED1F3
S1130810FFEF24E38CE0F15020408040E1F700C07A
S11308200000C70192DCC70158DC882389F064E624
S113083070E082E690E063D48DE890E087D19FEF8A
S1130840E4E3FCE09150E040F040E1F700C0000038
S113085060917F007091800080918100909182006E
S113086036DEC80172DCC80138DC89859A85892B9B
S113087009F0A2CFF80181859285892B09F09CCFDC
S11308801092DD0099CFDF91CF911F910F91FF90CE
S1130890EF90DF900895DF92EF92FF920F931F93F2
S11308A0CF93DF9382E690E089D4882309F473C060
S11308B0C8EAD0E00F2EFDE9EF2EF0E0FF2EF02D78
S11308C009EC10E0DD24D39489859A85892B29F4D9
S11308D0F70181859285892B29F0F801818592851C
S11308E0892B29F48091DD00882309F454C0D09227
S11308F0DD008DE890E08AD181E990E027D185E997
S113090090E024D1CE0121DCCE01E7DB882389F0FD
S113091064E670E082E690E010D48DE890E016D1B1
S1130920FFEF21EE84E0F15020408040E1F700C069
S11309300000C7010ADCC701D0DB882389F064E624
S113094070E082E690E01CD48DE890E0FFD09FEF49
S1130950E1EEF4E09150E040F040E1F700C0000027
S113096060918700709188008091890090918A003D
S1130970AEDDC801EADBC801B0DB89859A85892B25
S113098009F0A2CFF80181859285892B09F09CCFCB
S11309901092DD0099CFDF91CF911F910F91FF90BD
S11309A0EF90DF90089587ED90E02FDC811105C072
S11309B084ED90E02ADC811105C0E2E6F0E0108EBF
S11309C0118E138E87ED90E020DC882321F089E9D5
S11309D090E0BCD0089589E990E018D10895809101
S11309E07A00811104C080917B00882351F08DE846
S11309F090E00CD181E990E0A9D085E990E0A6D0FF
S1130A0003C08DE890E0A2D080917D00882379F026
S1130A1080917A00811107C080917B00811103C00D
S1130A2085E990E0F3D081E990E090D0089585E9DC
S1130A3090E08CD080917A00811107C080917B0076
S1130A40811103C081E990E0E1D00895DADD39DE57
S1130A5048DE5EDE70DE78DE96DE1DDFA4DF82E631
S1130A6090E08DD1BCDF52DDF2CFFC016083418385
S1130A70528323832223A1F16334A1F0643409F166
S1130A80623409F062C028B381E090E002C0880FAC
S1130A90991F4A95E2F7922F982B98BB97B3892B0D
S1130AA087BB089525B381E090E002C0880F991FA9
S1130AB04A95E2F7922F982B95BB94B3892B84BB6C
S1130AC0089522B381E090E002C0880F991F4A95EF
S1130AD0E2F7922F982B92BB91B3892B81BB089597
S1130AE06334A1F0643411F1623479F528B381E000
S1130AF090E002C0880F991F4A95E2F7982F9095CD
S1130B00922398BB97B3892B87BB089525B381E0C3
S1130B1090E002C0880F991F4A95E2F7982F9095AC
S1130B20922395BB94B3892B84BB089522B381E0AF
S1130B3090E002C0880F991F4A95E2F7982F90958C
S1130B40922392BB91B3892B81BB0895FC01F89445
S1130B508381882361F18081833489F08434D9F0DE
S1130B60823409F051C028B381E090E0018002C0D2
S1130B70880F991F0A94E2F7822B88BB45C025B3DE
S1130B8081E090E0018002C0880F991F0A94E2F787
S1130B90822B85BB39C022B381E090E0018002C082
S1130BA0880F991F0A94E2F7822B82BB2DC08081A3
S1130BB0833489F08434E1F0823431F528B381E060
S1130BC090E0018002C0880F991F0A94E2F7809593
S1130BD0822388BB19C025B381E090E0018002C064
S1130BE0880F991F0A94E2F78095822385BB0CC075
S1130BF022B381E090E0018002C0880F991F0A941B
S1130C00E2F78095822382BB78940895FC01F894DE
S1130C10838181112CC08081833489F08434D9F09C
S1130C20823409F051C028B381E090E0018002C011
S1130C30880F991F0A94E2F7822B88BB45C025B31D
S1130C4081E090E0018002C0880F991F0A94E2F7C6
S1130C50822B85BB39C022B381E090E0018002C0C1
S1130C60880F991F0A94E2F7822B82BB2DC08081E2
S1130C70833489F08434E1F0823431F528B381E09F
S1130C8090E0018002C0880F991F0A94E2F78095D2
S1130C90822388BB19C025B381E090E0018002C0A3
S1130CA0880F991F0A94E2F78095822385BB0CC0B4
S1130CB022B381E090E0018002C0880F991F0A945A
S1130CC0E2F78095822382BB789408950F931F9353
S1130CD0FC0142E350E060E070E0448355836683A6
S1130CE0778381E090E0A0E0B0E080879187A287DD
S1130CF0B38708EC10E020E030E0048715872687EE
S1130D00378704E610E020E030E0008B118B228B63
S1130D10338B00E315E720E030E0048B158B268B42
S1130D20378B408351836283738328E630E03BBD75
S1130D302ABD48EE53E060E070E0458F568F678F20
S1130D4070A345A356A367A370A781A392A3A3A3EB
S1130D50B4A392A781A71F910F9108959B01770FC8
S1130D60440B550BFC01208331834283538368E594
S1130D7074E180E090E0C4D23BBD2ABD08954F9257
S1130D805F926F927F928F929F92AF92BF92CF9217
S1130D90DF92EF92FF92CF93DF9300D000D000D088
S1130DA0CDB7DEB79E838D83DC0158968C9158971E
S1130DB0882339F059968C915997882311F05896C5
S1130DC01C92ED81FE81828D882381F0838D8111B7
S1130DD0F3C0848D811103C081E0848F04C0AD8190
S1130DE0BE815C961C92ED81FE81128EAD81BE8126
S1130DF058968C915897882309F45FC0EBEDF5E081
S1130E003197F1F700C000009196CD90DD90ED9000
S1130E10FC909497FFEFCF1ADF0AEF0AFF0AAD8127
S1130E20BE819196CD92DD92ED92FC9294971896A4
S1130E308D909D90AD90BC901B975D964D905D906C
S1130E406D907C909097FD0184819581A681B781F6
S1130E509C01AD01281939094A095B09C701B6018A
S1130E6040D2A30192014CD2DA01C901880D991D27
S1130E70AA1DBB1D0097A105B10539F0ED81FE81C6
S1130E8080839183A283B38307C0AD81BE818D9299
S1130E909D92AD92BC9213974C145D046E047F0432
S1130EA060F481E090E0A0E0B0E0ED81FE8181A3F8
S1130EB092A3A3A3B4A3838F108EAD81BE81599650
S1130EC08C915997882309F47CC0EBEDF5E03197B8
S1130ED0F1F700C000009196CD90DD90ED90FC906C
S1130EE09497FFEFCF1ADF0AEF0AFF0AAD81BE81A4
S1130EF09196CD92DD92ED92FC92949714968D90FA
S1130F009D90AD90BC90179718964D905D906D9004
S1130F107C901B9795968D919D910D90BC91A02DE1
S1130F2089839A83AB83BC83A50194012419350971
S1130F3046095709C701B601D4D129813A814B81A9
S1130F405C81DED1821A930AA40AB50A39F0ED81D4
S1130F50FE8180829182A282B38207C0AD81BE816C
S1130F604D925D926D927C92139789819A81AB81A7
S1130F70BC818C159D05AE05BF0518F581E090E098
S1130F80A0E0B0E0ED81FE8181A392A3A3A3B4A36A
S1130F90138E118E828D8823A1F0FFEF24E38CE061
S1130FA0F15020408040E1F700C0000081E0AD81B5
S1130FB0BE8158968C9305C081E0ED81FE81818FBE
S1130FC015CF26960FB6F894DEBF0FBECDBFDF91C6
S1130FD0CF91FF90EF90DF90CF90BF90AF909F9014
S1130FE08F907F906F905F904F900895FC01848163
S1130FF09581A681B7810196A11DB11D8483958336
S1131000A683B783408551856285738584179507C8
S1131010A607B70720F444835583668377838485C2
S11310209585A685B7854481558166817781841726
S11310309507A607B70720F484839583A683B7830F
S113104084819581A681B78180839183A283B383B0
S11310500895FC0184819581A681B7810197A10936
S1131060B10984839583A683B783408551856285BE
S1131070738584179507A607B70720F4448355831F
S11310806683778384859585A685B7854481558154
S11310906681778184179507A607B70720F48483B0
S11310A09583A683B78384819581A681B781808344
S11310B09183A283B38308950F931F93FC01AB0123
S11310C0770F660B770B058D168D278D30A1400F9A
S11310D0511F621F731F458F568F678F70A38489BA
S11310E09589A689B78984179507A607B70720F4B9
S11310F0858F968FA78FB0A31F910F910895FC0140
S1131100CB01770FAA0BBB0B458D568D678D70A154
S1131110481B590B6A0B7B0B458F568F678F70A347
S1131120452B462B472B41F480899189A289B389A9
S1131130858F968FA78FB0A308950F931F93FC01FB
S1131140AB01770F660B770B05A116A127A130A57C
S1131150400F511F621F731F45A356A367A370A7B7
S113116084899589A689B78984179507A607B7073F
S113117020F485A396A3A7A3B0A71F910F91089568
S1131180FC01CB01770FAA0BBB0B45A156A167A1AC
S113119070A5481B590B6A0B7B0B45A356A367A389
S11311A070A7452B462B472B41F480899189A2894E
S11311B0B38985A396A3A7A3B0A70895FC01838D43
S11311C0811107C0908D911105C0918D81E089270F
S11311D0089580E00895FC0121A532A5233031054E
S11311E0B1F03CF42130310561F02230310561F079
S11311F019C02530310589F06CF02630310581F0B5
S113120011C0C498C29A0EC0C198C59A0BC0C298A6
S1131210C09A08C0C598C39A05C0C098C49A02C0B1
S1131220C398C19A21A532A52F5F3F4F27303105BE
S11312301CF432A721A7089581E090E092A781A72A
S11312400895FC0121A532A523303105C1F03CF4F9
S113125021303105D1F022303105A1F018C02530FC
S1131260310539F04CF02630310589F4C49AC2981E
S11312700EC0C19AC5980BC0C29AC09808C0C59A3E
S1131280C39805C0C09AC49802C0C39AC19821A546
S113129032A52F5F3F4F273031051CF432A721A719
S11312A0089581E090E092A781A70895FC01238D21
S11312B0211103C0208D222341F0FC01248D211132
S11312C002C089DF0895BDDF0895C098C198C2980F
S11312D0C398C498C59821E030E0FC0132A721A747
S11312E00895DB018F939F9349D0BF91AF91A29F43
S11312F0800D911DA39F900DB29F900D1124089510
S1131300A1E21A2EAA1BBB1BFD010DC0AA1FBB1F05
S1131310EE1FFF1FA217B307E407F50720F0A21B77
S1131320B30BE40BF50B661F771F881F991F1A94E4
S113133069F760957095809590959B01AC01BD010E
S1131340CF010895052E97FB16F400940FD057FD96
S113135005D0D6DF07FC02D046F408C0509540956E
S1131360309521953F4F4F4F5F4F0895909580954D
S1131370709561957F4F8F4F9F4F089509D0A59F1A
S1131380900DB49F900DA49F800D911D112408957C
S1131390A29FB001B39FC001A39F01D0B29F700D63
S10F13A0811D1124911D0895F894FFCFC5
S10513AC080033
S9030000FC
