:1000000034C04EC04DC04CC04BC04AC084C348C071
:1000100047C046C045C044C043C042C041C040C0C4
:100020003FC03EC03DC010C211C212C213C214C2B2
:1000300015C216C217C218C219C21CCB31CB30CBA5
:100040002FCB2ECB19CB1ACB1CCB2ACB29CB28CB31
:1000500027CB26CB18CB19CB1BCB22CB21CB20CB4C
:100060001FCB1ECB17CB18CB1ACB11241FBECFE54D
:10007000D4E0DEBFCDBF10E0A0E6B0E0E0E0F8E104
:1000800002C005900D92A236B107D9F720E0A2E692
:10009000B0E001C01D92A13EB207E1F78FD6AECB12
:1000A000AFCFFC016083418352838AE090E0948368
:1000B00083836334A1F0643411F1623479F527B39A
:1000C00081E090E002C0880F991F4A95E2F7982FCF
:1000D0009095922397BB98B3892B88BB089524B33E
:1000E00081E090E002C0880F991F4A95E2F7982FAF
:1000F0009095922394BB95B3892B85BB089521B32A
:1001000081E090E002C0880F991F4A95E2F7982F8E
:100110009095922391BB92B3892B82BB0895FC01E9
:1001200027813085232B21F01086178281E00895E6
:1001300080E00895FC019081933479F09434C1F00B
:10014000923419F526B330E0C901018002C09595BB
:1001500087950A94E2F7817015C023B330E0C90196
:10016000018002C0959587950A94E2F781700AC0D4
:1001700020B330E0C901018002C0959587950A94AB
:10018000E2F7817091E08927089580E00895CF9388
:10019000DF93EC01CFDF882389F08D819E8101966A
:1001A0009E838D832B813C81281739079CF43E83E5
:1001B0002D8381E090E09A8789870CC01E821D8282
:1001C00089859A85892B21F081E090E098878F833B
:1001D0001A861986DF91CF910895FC0160834183CF
:1001E00052836334A1F0643411F1623479F527B39A
:1001F00081E090E002C0880F991F4A95E2F7982F9E
:100200009095922397BB98B3892B88BB089524B30C
:1002100081E090E002C0880F991F4A95E2F7982F7D
:100220009095922394BB95B3892B85BB089521B3F8
:1002300081E090E002C0880F991F4A95E2F7982F5D
:100240009095922391BB92B3892B82BB0895FC01B8
:100250009081933479F09434C1F0923419F526B337
:1002600030E0C901018002C0959587950A94E2F7B4
:10027000817015C023B330E0C901018002C095959B
:1002800087950A94E2F781700AC020B330E0C90173
:10029000018002C0959587950A94E2F7817091E0FC
:1002A0008927089580E0089584B3886384BB85B36B
:1002B000877C85BB0895AB9A92E09A95F1F700C0D0
:1002C000882314F4AC9A01C0AC9892E09A95F1F7A7
:1002D00000C0AB9895E09A95F1F70000AB9A92E0D8
:1002E0009A95F1F700C086FF02C0AC9A01C0AC98A5
:1002F00092E09A95F1F700C0AB9895E09A95F1F7E6
:100300000000AB9A92E09A95F1F700C085FF02C019
:10031000AC9A01C0AC9892E09A95F1F700C0AB9806
:1003200095E09A95F1F70000AB9A92E09A95F1F773
:1003300000C084FF02C0AC9A01C0AC9892E09A95CC
:10034000F1F700C0AB9895E09A95F1F70000AB9AF1
:1003500092E09A95F1F700C083FF02C0AC9A01C009
:10036000AC9892E09A95F1F700C0AB9895E09A9519
:10037000F1F70000AB9A92E09A95F1F700C082FF86
:1003800002C0AC9A01C0AC9892E09A95F1F700C017
:10039000AB9895E09A95F1F70000AB9A92E09A95A8
:1003A000F1F700C081FF02C0AC9A01C0AC9892E0A6
:1003B0009A95F1F700C0AB9895E09A95F1F7000097
:1003C000AB9A92E09A95F1F700C080FF02C0AC9A18
:1003D00001C0AC9882E08A95F1F700C0AB9895E037
:1003E0009A95F1F70000AB9808951F93CF93DF9390
:1003F000162FD42FC22FAD98AC985DDF812F5BDF15
:100400008D2F59DF8C2F57DFAC98AD9A8DE08A95F0
:10041000F1F70000AD98DF91CF911F910895CF9330
:10042000DF9300D000D0CDB7DEB769837A838B83AA
:100430009C8389819A81AB81BC818A309105B8F413
:10044000FC01ED5EFF4F09942EE711C02CE00FC0B8
:1004500026EB0DC02EE90BC02CEC09C02AED07C01D
:100460002AEF05C02EE003C02EEF01C02EED822F33
:100470000F900F900F900F90DF91CF9108953F92C2
:100480004F925F926F927F928F929F92AF92BF92A4
:10049000CF92DF92EF92FF920F931F93CF93DF9350
:1004A000CDB7DEB728970FB6F894DEBF0FBECDBF2D
:1004B00069837A838B839C838A0189819A81AB814A
:1004C000BC81892B8A2B8B2B49F460E070E0CB0137
:1004D000A6DF20E040E060E088DF98C069817A8193
:1004E0008B819C8149805A806B807C8089809A8036
:1004F000AB80BC8029813A814B815C812D833E8316
:100500004F8358870F2EFAE0CF2ED12CE12CF12CFF
:10051000F02DA701960140D97727882799277FDFFB
:10052000382EC301B201A701960136D9CA01B9011B
:10053000A701960131D977278827992770DF782E70
:10054000C501B40124E630E040E050E025D9CA01FD
:10055000B901A701960120D97727882799275FDF5E
:10056000B82E6D817E818F81988528EE33E040E042
:1005700050E012D9CA01B901A70196010DD9772718
:10058000882799274CDF49815A816B817C81483EBD
:100590005340610571050CF480E049815A816B81FB
:1005A0007C8144365105610571050CF4B12C4981FB
:1005B0005A816B817C814A305105610571051CF4BB
:1005C00001151105E9F00230110581F024F4013024
:1005D000110541F016C00330110561F0043011051A
:1005E00069F00FC0432D4160342E0BC0572D516070
:1005F000752E07C09B2D9160B92E03C0816001C08C
:10060000712C282F4B2D672D832DEFDE28960FB6EA
:10061000F894DEBF0FBECDBFDF91CF911F910F9138
:10062000FF90EF90DF90CF90BF90AF909F908F9012
:100630007F906F905F904F903F900895CF93DF939E
:1006400000D000D0CDB7DEB769837A838B839C83DB
:1006500069817A818B819C8124E630E040E050E022
:100660009BD8CA01B90141E050E009DF0F900F901B
:100670000F900F90DF91CF9108958091DF00882334
:1006800091F08091DD009091DE0001969093DE0064
:100690008093DD008131974234F01092DF00109298
:1006A000DE001092DD0008958091E000811127C0E6
:1006B00082E690E05BD781110CC06091620070917E
:1006C0006300809164009091650040E050E0D7DEC7
:1006D00008958091DF00882361F06091620070913D
:1006E0006300809164009091650040E050E0C7DEB7
:1006F000089540E050E060E070E0CB01C0DE089576
:100700008EB588608EBD89B7806189BF8EB58460E3
:100710008EBD789408951F920F920FB60F921124F8
:100720002F933F934F935F936F937F938F939F93F9
:10073000AF93BF93EF93FF9382E690E0C6D76091AB
:1007400062007091630082E690E078D4ADDFFF91A3
:10075000EF91BF91AF919F918F917F916F915F9139
:100760004F913F912F910F900FBE0F901F901895B2
:1007700040E050E063E488ED90E02FDD41E050E0A0
:1007800063E485ED90E029DD40E050E064E48AEC2C
:1007900090E087DC41E050E064E48FEB90E081DCA6
:1007A00042E050E064E484EB90E07BDC44E050E025
:1007B00064E489EA90E075DC43E050E064E48EE9AB
:1007C00090E06FDC20E042E050E063E48AE990E0F2
:1007D00004D321E046E050E062E486E990E0FDD2F7
:1007E00021E047E050E062E482E990E0F6D221E0C7
:1007F00045E050E064E48EE890E0EFD282E690E0DD
:100800003DD4B89AB99ABA9ABB9ABC9ABD9A8F9AB3
:100810004BDD76DF2FEF80E792E021508040904063
:10082000E1F700C000008AE990E0A8D308958AECBF
:1008300090E0ADDC8FEB90E0AADC84EB90E0A7DCED
:1008400089EA90E0A4DC8EE990E0A1DC08958FEBCA
:1008500090E065DC882389F080917D0081110DC0D6
:1008600088ED90E0F4DC811108C085ED90E0EFDCCC
:10087000882319F081E080937A0008958AEC90E053
:100880004EDC882369F088ED90E0E1DC811108C03E
:1008900085ED90E0DCDC882319F081E080937B001B
:1008A000089584EB90E03BDC882319F081E080938D
:1008B0007C0008958091B2009091B300892B49F19A
:1008C0008091DB009091DC000196883B2BE0920741
:1008D0002CF49093DC008093DB001BC088EB9BE042
:1008E0009093DC008093DB006AE070E082E690E0A9
:1008F00044D581E08093DF001092DE001092DD008D
:100900008FEF91EE24E0815090402040E1F700C04D
:10091000000089EA90E003DC882391F081E090E018
:100920009093DC008093DB0061E070E082E690E071
:1009300024D581E08093DF001092DE001092DD006C
:100940008091A7009091A800892B49F18091DB004C
:100950009091DC000196883B2BE092072CF4909359
:10096000DC008093DB001BC088EB9BE09093DC00F5
:100970008093DB006AE070E082E690E036D581E0AB
:100980008093DF001092DE001092DD008FEF91EE79
:1009900024E0815090402040E1F700C000008EE943
:1009A00090E0BDDB882391F081E090E09093DC0043
:1009B0008093DB0061E070E082E690E016D581E094
:1009C0008093DF001092DE001092DD0008958F9278
:1009D0009F92BF92CF92DF92EF92FF920F931F935D
:1009E000CF93DF9382E690E0C1D5882309F4B4C0A9
:1009F000C9EAD0E00F2EFEE9EF2EF0E0FF2EF02D39
:100A00000F2EFFEBCF2EF0E0DF2EF02DBB24B394A2
:100A100089859A85892B29F4F70181859285892B0F
:100A200029F0F60181859285892B29F48091E000D7
:100A3000882309F491C0B092E0008EE890E09ED245
:100A400082E990E03BD286E990E038D2CE019FDB8C
:100A500089859A85892BC1F00F5F1F4F80906000B8
:100A600090906100081519057CF068EE73E082E64D
:100A700090E0F6D4FFEF20E782E0F1502040804084
:100A8000E1F700C000008401CE0149DB882399F022
:100A900064E670E082E690E0E3D48EE890E00ED267
:100AA0009FEFE0E7F2E09150E040F040E1F700C056
:100AB000000000E010E0C7016ADBF7018185928544
:100AC000892BC1F00F5F1F4F8090600090906100F4
:100AD000081519057CF068EE73E082E690E0E3D437
:100AE000FFEF20E782E0F15020408040E1F700C0B6
:100AF00000008401C70113DB882399F064E670E0ED
:100B000082E690E0D0D48EE890E0D8D19FEFE0E785
:100B1000F2E09150E040F040E1F700C0000000E05A
:100B200010E060917F007091800080918100909131
:100B3000820084DDC6012BDBC601F1DA89859A8546
:100B4000892B09F065CFF60181859285892B09F003
:100B50005FCF1092E0005CCFDF91CF911F910F919A
:100B6000FF90EF90DF90CF90BF909F908F9008956F
:100B70008F929F92BF92CF92DF92EF92FF920F934C
:100B80001F93CF93DF9382E690E0F0D4882309F49B
:100B9000B6C0C9EAD0E00F2EFEE9EF2EF0E0FF2E3E
:100BA000F02D0F2EFAECCF2EF0E0DF2EF02DBB242F
:100BB000B39489859A85892B29F4F70181859285DB
:100BC000892B29F0F60181859285892B29F4809162
:100BD000E000882309F493C0B092E0008EE890E032
:100BE000CDD182E990E06AD186E990E067D1CE016B
:100BF000CEDA89859A85892BC1F00F5F1F4F8090CF
:100C0000600090906100081519057CF068EE73E0B3
:100C100082E690E068D4FFEF20E782E0F1502040C8
:100C20008040E1F700C000008401CE0178DA88231B
:100C300099F064E670E082E690E055D48EE890E0AA
:100C40003DD19FEFE0E7F2E09150E040F040E1F766
:100C500000C0000000E010E0C70199DACE0197DA89
:100C6000F70181859285892BC1F00F5F1F4F80901E
:100C7000600090906100081519057CF068EE73E043
:100C800082E690E053D4FFEF20E782E0F15020406D
:100C90008040E1F700C000008401C70140DA8823EA
:100CA00099F064E670E082E690E040D48EE890E04F
:100CB00005D19FEFE0E7F2E09150E040F040E1F72E
:100CC00000C0000000E010E0609187007091880093
:100CD0008091890090918A00B1DCC60158DAC60182
:100CE0001EDA89859A85892B09F063CFF601818503
:100CF0009285892B09F05DCF1092E0005ACFDF91E9
:100D0000CF911F910F91FF90EF90DF90CF90BF9008
:100D10009F908F90089588ED90E099DA811105C039
:100D200085ED90E094DA811105C0E2E6F0E0108EE6
:100D3000118E138E88ED90E08ADA882321F08AE9FB
:100D400090E0BCD008958AE990E018D10895809190
:100D50007A00811104C080917B00882351F08EE8D5
:100D600090E00CD182E990E0A9D086E990E0A6D08D
:100D700003C08EE890E0A2D080917D00882379F0B6
:100D800080917A00811107C080917B00811103C09E
:100D900086E990E0F3D082E990E090D0089586E96A
:100DA00090E08CD080917A00811107C080917B0007
:100DB000811103C082E990E0E1D00895D9DC37DDEC
:100DC00046DD5CDD6EDD76DD02DED2DEA4DF82E6AE
:100DD00090E09CD1BCDF51DCF2CFFC016083418309
:100DE000528323832223A1F16334A1F0643409F1F7
:100DF000623409F062C028B381E090E002C0880F3D
:100E0000991F4A95E2F7922F982B98BB97B3892B9D
:100E100087BB089525B381E090E002C0880F991F39
:100E20004A95E2F7922F982B95BB94B3892B84BBFC
:100E3000089522B381E090E002C0880F991F4A957F
:100E4000E2F7922F982B92BB91B3892B81BB089527
:100E50006334A1F0643411F1623479F528B381E090
:100E600090E002C0880F991F4A95E2F7982F90955D
:100E7000922398BB97B3892B87BB089525B381E054
:100E800090E002C0880F991F4A95E2F7982F90953D
:100E9000922395BB94B3892B84BB089522B381E040
:100EA00090E002C0880F991F4A95E2F7982F90951D
:100EB000922392BB91B3892B81BB0895FC01F894D6
:100EC0008381882361F18081833489F08434D9F06F
:100ED000823409F051C028B381E090E0018002C063
:100EE000880F991F0A94E2F7822B88BB45C025B36F
:100EF00081E090E0018002C0880F991F0A94E2F718
:100F0000822B85BB39C022B381E090E0018002C012
:100F1000880F991F0A94E2F7822B82BB2DC0808133
:100F2000833489F08434E1F0823431F528B381E0F0
:100F300090E0018002C0880F991F0A94E2F7809523
:100F4000822388BB19C025B381E090E0018002C0F4
:100F5000880F991F0A94E2F78095822385BB0CC005
:100F600022B381E090E0018002C0880F991F0A94AB
:100F7000E2F78095822382BB78940895FC01F8946F
:100F8000838181112CC08081833489F08434D9F02D
:100F9000823409F051C028B381E090E0018002C0A2
:100FA000880F991F0A94E2F7822B88BB45C025B3AE
:100FB00081E090E0018002C0880F991F0A94E2F757
:100FC000822B85BB39C022B381E090E0018002C052
:100FD000880F991F0A94E2F7822B82BB2DC0808173
:100FE000833489F08434E1F0823431F528B381E030
:100FF00090E0018002C0880F991F0A94E2F7809563
:10100000822388BB19C025B381E090E0018002C033
:10101000880F991F0A94E2F78095822385BB0CC044
:1010200022B381E090E0018002C0880F991F0A94EA
:10103000E2F78095822382BB78940895CF93DF9363
:10104000EC019B01770F440B550B288339834A83AE
:101050005B8368E574E180E090E07CD3C9016BA517
:10106000662339F099230CF4039695958795959509
:1010700087959BBD8ABDDF91CF910895CF93DF9374
:10108000EC0188E290E0A0E0B0E08C839D83AE8329
:10109000BF838AE090E0A0E0B0E088879987AA87C4
:1010A000BB8786E990E0A0E0B0E08C879D87AE87A3
:1010B000BF8784E690E0A0E0B0E0888B998BAA8B94
:1010C000BB8B80E395E7A0E0B0E08C8B9D8BAE8B73
:1010D000BF8B68E270E0CE01B1DF88EE93E0A0E064
:1010E000B0E08D8F9E8FAF8FB8A38DA39EA3AFA3CB
:1010F000B8A781E090E0A0E0B0E089A39AA3ABA3F9
:10110000BCA39AA789A7DF91CF9108954F925F92D0
:101110006F927F928F929F92AF92BF92CF92DF9207
:10112000EF92FF92CF93DF9300D000D000D0CDB7E5
:10113000DEB79E838D83DC0158968C915897882367
:1011400039F059968C915997882311F058961C9232
:10115000ED81FE81828D882381F0838D8111F3C022
:10116000848D811103C081E0848F04C0AD81BE8174
:101170005C961C92ED81FE81128EAD81BE815896E7
:101180008C915897882309F45FC0EBEDF5E0319717
:10119000F1F700C000009196CD90DD90ED90FC90AD
:1011A0009497FFEFCF1ADF0AEF0AFF0AAD81BE81E5
:1011B0009196CD92DD92ED92FC92949718968D9037
:1011C0009D90AD90BC901B975D964D905D906D90FD
:1011D0007C909097FD0184819581A681B7819C01C7
:1011E000AD01281939094A095B09C701B601A3D223
:1011F000A3019201AFD2DA01C901880D991DAA1D80
:10120000BB1D0097A105B10539F0ED81FE818083FA
:101210009183A283B38307C0AD81BE818D929D92DD
:10122000AD92BC9213974C145D046E047F0460F47D
:1012300081E090E0A0E0B0E0ED81FE8181A392A387
:10124000A3A3B4A3838F108EAD81BE8159968C91D8
:101250005997882309F47CC0EBEDF5E03197F1F75D
:1012600000C000009196CD90DD90ED90FC90949799
:10127000FFEFCF1ADF0AEF0AFF0AAD81BE81919618
:10128000CD92DD92ED92FC92949714968D909D9064
:10129000AD90BC90179718964D905D906D907C9096
:1012A0001B9795968D919D910D90BC91A02D898352
:1012B0009A83AB83BC83A50194012419350946099F
:1012C0005709C701B60137D229813A814B815C8128
:1012D00041D2821A930AA40AB50A39F0ED81FE813F
:1012E00080829182A282B38207C0AD81BE814D927D
:1012F0005D926D927C92139789819A81AB81BC81BA
:101300008C159D05AE05BF0518F581E090E0A0E0C5
:10131000B0E0ED81FE8181A392A3A3A3B4A3138EB9
:10132000118E828D8823A1F0FFE728E381E0F15040
:1013300020408040E1F700C0000081E0AD81BE8127
:1013400058968C9305C081E0ED81FE81818F15CF89
:1013500026960FB6F894DEBF0FBECDBFDF91CF91BA
:10136000FF90EF90DF90CF90BF90AF909F908F90C5
:101370007F906F905F904F900895FC01CB01770FA5
:10138000AA0BBB0B4481558166817781840F951F21
:10139000A61FB71F84839583A683B7834085518595
:1013A0006285738584179507A607B70720F44483E1
:1013B00055836683778384859585A685B785448123
:1013C00055816681778184179507A607B70720F4B2
:1013D00084839583A683B78384819581A681B78111
:1013E00080839183A283B3830895CF92DF92EF929B
:1013F000FF920F931F93FC01048115812681378191
:10140000CB01770FAA0BBB0B68017901C81AD90A67
:10141000EA0AFB0A40855185628573854C155D0596
:101420006E057F0550F480179107A207B30728F4D3
:10143000C482D582E682F78204C0448355836683E2
:10144000778384819581A681B78180839183A283EC
:10145000B3831F910F91FF90EF90DF90CF9008958D
:101460000F931F93FC01AB01770F660B770B058D74
:10147000168D278D30A1400F511F621F731F458F9E
:10148000568F678F70A384899589A689B789841739
:101490009507A607B70720F4858F968FA78FB0A36F
:1014A0001F910F910895FC01858D968DA78DB0A198
:1014B000AB01770F660B770B481759076A077B0755
:1014C00048F4841B950BA60BB70B858F968FA78FBF
:1014D000B0A3089580899189A289B389858F968F59
:1014E000A78FB0A308950F931F93FC01AB01770F53
:1014F000660B770B05A116A127A130A5400F511F40
:10150000621F731F45A356A367A370A7848995899B
:10151000A689B78984179507A607B70720F485A37E
:1015200096A3A7A3B0A71F910F910895FC0185A1D1
:1015300096A1A7A1B0A5AB01770F660B770B481753
:1015400059076A077B0748F4841B950BA60BB70B5A
:1015500085A396A3A7A3B0A7089580899189A2899E
:10156000B38985A396A3A7A3B0A70895FC01838D93
:10157000811107C0908D911105C0918D81E089275F
:10158000089580E00895FC0121A532A5233031059E
:10159000B1F03CF42130310561F02230310561F0C9
:1015A00019C02530310589F06CF02630310581F005
:1015B00011C0C498C29A0EC0C198C59A0BC0C298F7
:1015C000C09A08C0C598C39A05C0C098C49A02C002
:1015D000C398C19A21A532A52F5F3F4F273031050F
:1015E0001CF432A721A7089581E090E092A781A77B
:1015F0000895FC0121A532A523303105C1F03CF44A
:1016000021303105D1F022303105A1F018C025304C
:10161000310539F04CF02630310589F4C49AC2986E
:101620000EC0C19AC5980BC0C29AC09808C0C59A8E
:10163000C39805C0C09AC49802C0C39AC19821A596
:1016400032A52F5F3F4F273031051CF432A721A769
:10165000089581E090E092A781A70895DC01999612
:10166000ED91FC919A973197E831F105C8F4E35E6A
:10167000FF4F0994C49814C0C29A12C0C198C59A69
:101680000FC0C2980DC0C09A0BC0C598C39A08C0BD
:10169000C09806C0C49A04C0C398C19A01C0C49837
:1016A00099962D913C919A972F5F3F4F29313105A3
:1016B0002CF49A963C932E939997089581E090E0AC
:1016C0009A969C938E9399970895FC0180819181BD
:1016D000A281B3818897A105B10540F581A592A5A6
:1016E000019721F481E083A701C013A6838D8111A6
:1016F00003C0808D882379F0848D811109C083A572
:10170000882319F0CF01AADF0895CF013CDF0895A7
:10171000CF016FDF0895C098C198C298C398C4984C
:10172000C59881E090E092A781A7089581A592A530
:101730000197E1F6DACFDB018F939F9349D0BF91F8
:10174000AF91A29F800D911DA39F900DB29F900D10
:1017500011240895A1E21A2EAA1BBB1BFD010DC086
:10176000AA1FBB1FEE1FFF1FA217B307E407F50751
:1017700020F0A21BB30BE40BF50B661F771F881F2D
:10178000991F1A9469F760957095809590959B01C3
:10179000AC01BD01CF010895052E97FB16F400940E
:1017A0000FD057FD05D0D6DF07FC02D046F408C0A5
:1017B00050954095309521953F4F4F4F5F4F08957D
:1017C00090958095709561957F4F8F4F9F4F0895AD
:1017D00009D0A59F900DB49F900DA49F800D911DE1
:1017E00011240895A29FB001B39FC001A39F01D00F
:1017F000B29F700D811D1124911D0895F894FFCFA3
:02180000E803FB
:00000001FF
