S017000041546D65676138496E7465726170742E737265635F
S113000012C02CC02BC02AC029C028C02BC126C0B6
S113001025C024C023C022C021C020C01FC01EC0D0
S11300201DC01CC01BC011241FBECFE5D4E0DEBF21
S1130030CDBF10E0A0E6B0E0EEEDFFE002C0059019
S11300400D92A036B107D9F720E0A0E6B0E001C0D8
S11300501D92A93DB207E1F7B7D3BFC7D1CFFC01C9
S11300606083418352838AE090E094838383633482
S1130070A1F0643411F1623479F527B381E090E0A2
S113008002C0880F991F4A95E2F7982F9095922302
S113009097BB98B3892B88BB089524B381E090E083
S11300A002C0880F991F4A95E2F7982F90959223E2
S11300B094BB95B3892B85BB089521B381E090E06F
S11300C002C0880F991F4A95E2F7982F90959223C2
S11300D091BB92B3892B82BB0895FC0127813085A3
S11300E0232B21F01086178281E0089580E0089583
S11300F0FC019081933479F09434C1F0923419F571
S113010026B330E0C901018002C0959587950A9411
S1130110E2F7817015C023B330E0C901018002C049
S1130120959587950A94E2F781700AC020B330E070
S1130130C901018002C0959587950A94E2F7817000
S113014091E08927089580E00895CF93DF93EC012F
S1130150CFDF882389F08D819E8101969E838D83D4
S11301602B813C81281739079CF43E832D8381E041
S113017090E09A8789870CC01E821D8289859A85A2
S1130180892B21F081E090E098878F831A86198665
S1130190DF91CF910895FC016083418352836334DE
S11301A0A1F0643411F1623479F527B381E090E071
S11301B002C0880F991F4A95E2F7982F90959223D1
S11301C097BB98B3892B88BB089524B381E090E052
S11301D002C0880F991F4A95E2F7982F90959223B1
S11301E094BB95B3892B85BB089521B381E090E03E
S11301F002C0880F991F4A95E2F7982F9095922391
S113020091BB92B3892B82BB0895FC0190819334F6
S113021079F09434C1F0923419F526B330E0C90171
S1130220018002C0959587950A94E2F7817015C004
S113023023B330E0C901018002C0959587950A94E3
S1130240E2F781700AC020B330E0C901018002C026
S1130250959587950A94E2F7817091E0892708952E
S113026080E008951F920F920FB60F9211242F93DE
S11302703F934F935F936F937F938F939F93AF932A
S1130280BF93EF93FF9380917B00811105C0809110
S11302907800882309F466C080917C00811127C00E
S11302A08091D7009091D80083309105A1F034F467
S11302B08130910551F0029759F03EC08530910587
S11302C081F064F0069781F037C0C498C29A34C0B4
S11302D0C198C59A31C0C298C09A2EC0C598C39A15
S11302E02BC0C098C49A28C0C398C19A25C08091D5
S11302F0D7009091D80083309105B1F034F4813067
S11303009105C1F0029799F017C08530910531F03D
S113031044F0069789F4C49AC2980EC0C19AC5984D
S11303200BC0C29AC09808C0C59AC39805C0C09AA9
S1130330C49802C0C39AC1988091D7009091D80004
S113034001969093D8008093D7008091D700909124
S1130350D80007979CF081E090E09093D8008093B8
S1130360D7000CC0C098C198C298C398C498C598C7
S113037081E090E09093D8008093D7006091600072
S11303807091610080E690E0A4D3FF91EF91BF915A
S1130390AF919F918F917F916F915F914F913F9119
S11303A02F910F900FBE0F901F9018958EB58860F7
S11303B08EBD89B7806189BF8EB584608EBD789407
S11303C0089540E050E063E483ED90E0E4DE41E032
S11303D050E063E480ED90E0DEDE40E050E064E471
S11303E085EC90E03CDE41E050E064E48AEB90E090
S11303F036DE42E050E064E48FEA90E030DE44E030
S113040050E064E484EA90E02ADE43E050E064E4EF
S113041089E990E024DE20E042E050E063E485E9ED
S113042090E0E0D121E046E050E062E481E990E030
S1130430D9D121E047E050E062E48DE890E0D2D1E8
S113044021E045E050E064E489E890E0CBD180E627
S113045090E0F9D2B89AB99ABA9ABB9ABC9ABD9A62
S11304608F9AA4DF2FEF80E792E0215080409040E4
S1130470E1F700C0000085E990E085D2089585EC9D
S113048090E063DE8AEB90E060DE8FEA90E05DDE70
S113049084EA90E05ADE89E990E057DE08958AEB19
S11304A090E01BDE882389F080917B0081110DC0D0
S11304B083ED90E0AADE811108C080ED90E0A5DE16
S11304C0882319F081E080937800089585EC90E00A
S11304D004DE882369F083ED90E097DE811108C083
S11304E080ED90E092DE882319F081E0809379001A
S11304F008958FEA90E0F1DD882319F081E080937C
S11305007A00089584EA90E0E8DD882319F080E613
S113051090E027D489E990E0E0DD882319F080E6B3
S113052090E052D40895DF92EF92FF920F931F93BD
S1130530CF93DF9380E690E0FCD4882309F46AC06B
S1130540C4EAD0E00F2EF9E9EF2EF0E0FF2EF02DF3
S11305500AEB10E0DD24D39489859A85892B29F44C
S1130560F70181859285892B29F0F801818592858F
S1130570892B29F48091D600882309F44BC0D092AA
S1130580D60089E890E0FFD18DE890E09CD181E924
S113059090E099D1CE01D9DDCE019FDD882389F089
S11305A064E670E080E690E042D489E890E08BD184
S11305B0FFEF24E38CE0F15020408040E1F700C0DD
S11305C00000C701C2DDC70188DD882389F064E625
S11305D070E080E690E04ED489E890E074D19FEF1B
S11305E0E4E3FCE09150E040F040E1F700C000009B
S11305F0C801ABDDC80171DD89859A85892B09F0B5
S1130600ABCFF80181859285892B09F0A5CF109293
S1130610D600A2CFDF91CF911F910F91FF90EF9061
S1130620DF900895DF92EF92FF920F931F93CF9381
S1130630DF9380E690E07DD4882309F46AC0C4EA9D
S1130640D0E00F2EF9E9EF2EF0E0FF2EF02D05ECAF
S113065010E0DD24D39489859A85892B29F4F70148
S113066081859285892B29F0F80181859285892BD2
S113067029F48091D600882309F44BC0D092D60087
S113068089E890E080D18DE890E01DD181E990E087
S11306901AD1CE015ADDCE0120DD882389F064E62B
S11306A070E080E690E004D489E890E00CD1FFEF9C
S11306B024E38CE0F15020408040E1F700C00000CA
S11306C0C70143DDC70109DD882389F064E670E0D2
S11306D080E690E010D489E890E0F5D09FEFE4E361
S11306E0FCE09150E040F040E1F700C00000C80198
S11306F02CDDC801F2DC89859A85892B09F0ABCF02
S1130700F80181859285892B09F0A5CF1092D60036
S1130710A2CFDF91CF911F910F91FF90EF90DF90C7
S1130720089583ED90E071DD811105C080ED90E0C6
S11307306CDD811105C0E0E6F0E0108E118E138EA1
S113074083ED90E062DD882321F085E990E0BBD061
S1130750089585E990E017D108958091780081117A
S113076004C080917900882351F089E890E00BD18E
S11307708DE890E0A8D081E990E0A5D003C089E895
S113078090E0A1D080917B00882379F0809178005B
S1130790811107C080917900811103C081E990E043
S11307A0F2D08DE890E08FD0089581E990E08BD06D
S11307B080917800811107C080917900811103C074
S11307C08DE890E0E0D00895FCDD59DE68DE7EDE41
S11307D090DE98DEA8DE26DFA4DF80E690E08AD1F2
S11307E0BCDFF3CFFC016083418352832383222344
S11307F0A1F16334A1F0643409F1623409F062C0F8
S113080028B381E090E002C0880F991F4A95E2F76F
S1130810922F982B98BB97B3892B87BB089525B348
S113082081E090E002C0880F991F4A95E2F7922F69
S1130830982B95BB94B3892B84BB089522B381E094
S113084090E002C0880F991F4A95E2F7922F982BE7
S113085092BB91B3892B81BB08956334A1F06434B6
S113086011F1623479F528B381E090E002C0880F79
S1130870991F4A95E2F7982F9095922398BB97B3C6
S1130880892B87BB089525B381E090E002C0880FCF
S1130890991F4A95E2F7982F9095922395BB94B3AC
S11308A0892B84BB089522B381E090E002C0880FB5
S11308B0991F4A95E2F7982F9095922392BB91B392
S11308C0892B81BB0895FC01F8948381882361F10D
S11308D08081833489F08434D9F0823409F051C0A2
S11308E028B381E090E0018002C0880F991F0A9428
S11308F0E2F7822B88BB45C025B381E090E00180FC
S113090002C0880F991F0A94E2F7822B85BB39C075
S113091022B381E090E0018002C0880F991F0A94FD
S1130920E2F7822B82BB2DC08081833489F084342A
S1130930E1F0823431F528B381E090E0018002C017
S1130940880F991F0A94E2F78095822388BB19C007
S113095025B381E090E0018002C0880F991F0A94BA
S1130960E2F78095822385BB0CC022B381E090E03E
S1130970018002C0880F991F0A94E2F780958223B0
S113098082BB78940895FC01F894838181112CC072
S11309908081833489F08434D9F0823409F051C0E1
S11309A028B381E090E0018002C0880F991F0A9467
S11309B0E2F7822B88BB45C025B381E090E001803B
S11309C002C0880F991F0A94E2F7822B85BB39C0B5
S11309D022B381E090E0018002C0880F991F0A943D
S11309E0E2F7822B82BB2DC08081833489F084346A
S11309F0E1F0823431F528B381E090E0018002C057
S1130A00880F991F0A94E2F78095822388BB19C046
S1130A1025B381E090E0018002C0880F991F0A94F9
S1130A20E2F78095822385BB0CC022B381E090E07D
S1130A30018002C0880F991F0A94E2F780958223EF
S1130A4082BB789408950F931F93FC0182E390E096
S1130A50A0E0B0E084839583A683B78348E250E0A6
S1130A6060E070E0408751876287738788EC90E08C
S1130A70A0E0B0E084879587A687B78704E610E0F6
S1130A8020E030E0008B118B228B338B00E315E7E1
S1130A9020E030E0048B158B268B378B4083518309
S1130AA06283738322E830E03BBD2ABD858F968F35
S1130AB0A78FB0A385A396A3A7A3B0A781E090E0D6
S1130AC0A0E0B0E081A392A3A3A3B4A31F910F91CC
S1130AD008959B01770F440B550BFC012083318350
S1130AE04283538368E574E180E090E03ED23BBDED
S1130AF02ABD08954F925F926F927F928F929F9238
S1130B00AF92BF92CF92DF92EF92FF92CF93DF9397
S1130B1000D000D000D0CDB7DEB79E838D83DC013A
S1130B2058968C915897882339F059968C915997F7
S1130B30882311F058961C92ED81FE81828D8823C2
S1130B4081F0838D8111F3C0848D811103C081E014
S1130B50848F04C0AD81BE815C961C92ED81FE81C0
S1130B60128EAD81BE8158968C915897882309F4D2
S1130B705FC0EBEDF5E03197F1F700C0000091960E
S1130B80CD90DD90ED90FC909497FFEFCF1ADF0AA3
S1130B90EF0AFF0AAD81BE819196CD92DD92ED926E
S1130BA0FC92949718968D909D90AD90BC901B9755
S1130BB05D964D905D906D907C909097FD01848141
S1130BC09581A681B7819C01AD01281939094A098B
S1130BD05B09C701B601BAD1A3019201C6D1DA01FA
S1130BE0C901880D991DAA1DBB1D0097A105B1055A
S1130BF039F0ED81FE8180839183A283B38307C0A2
S1130C00AD81BE818D929D92AD92BC9213974C148E
S1130C105D046E047F0460F481E090E0A0E0B0E045
S1130C20ED81FE8181A392A3A3A3B4A3838F108E2D
S1130C30AD81BE8159968C915997882309F47CC063
S1130C40EBEDF5E03197F1F700C000009196CD90FF
S1130C50DD90ED90FC909497FFEFCF1ADF0AEF0A36
S1130C60FF0AAD81BE819196CD92DD92ED92FC9208
S1130C70949714968D909D90AD90BC90179718966C
S1130C804D905D906D907C901B9795968D919D9164
S1130C900D90BC91A02D89839A83AB83BC83A5015D
S1130CA094012419350946095709C701B6014ED1E3
S1130CB029813A814B815C8158D1821A930AA40A12
S1130CC0B50A39F0ED81FE8180829182A282B382DD
S1130CD007C0AD81BE814D925D926D927C92139757
S1130CE089819A81AB81BC818C159D05AE05BF05B8
S1130CF018F581E090E0A0E0B0E0ED81FE8181A3F1
S1130D0092A3A3A3B4A3138E118E828D8823A1F082
S1130D10FFEF24E38CE0F15020408040E1F700C075
S1130D20000081E0AD81BE8158968C9305C081E0BE
S1130D30ED81FE81818F15CF26960FB6F894DEBF24
S1130D400FBECDBFDF91CF91FF90EF90DF90CF909A
S1130D50BF90AF909F908F907F906F905F904F90D7
S1130D600895FC0184819581A681B7810196A11D16
S1130D70B11D84839583A683B7834085518562859D
S1130D80738584179507A607B70720F44483558312
S1130D906683778384859585A685B7854481558147
S1130DA06681778184179507A607B70720F48483A3
S1130DB09583A683B78384819581A681B781808337
S1130DC09183A283B3830895FC0184819581A681D4
S1130DD0B7810197A109B10984839583A683B78359
S1130DE0408551856285738584179507A607B707E3
S1130DF020F4448355836683778384859585A6850B
S1130E00B785448155816681778184179507A60744
S1130E10B70720F484839583A683B783848195815F
S1130E20A681B78180839183A283B38308950F93AE
S1130E301F93FC01AB01770F660B770B058D168DA5
S1130E40278D30A1400F511F621F731F458F568F8E
S1130E50678F70A384899589A689B78984179507B4
S1130E60A607B70720F4858F968FA78FB0A31F918D
S1130E700F910895FC01CB01770FAA0BBB0B458D95
S1130E80568D678D70A1481B590B6A0B7B0B458FE0
S1130E90568F678F70A3452B462B472B41F48089CF
S1130EA09189A289B389858F968FA78FB0A308955E
S1130EB00F931F93FC01AB01770F660B770B05A112
S1130EC016A127A130A5400F511F621F731F45A310
S1130ED056A367A370A784899589A689B7898417BF
S1130EE09507A607B70720F485A396A3A7A3B0A7E1
S1130EF01F910F910895FC01CB01770FAA0BBB0B37
S1130F0045A156A167A170A5481B590B6A0B7B0B21
S1130F1045A356A367A370A7452B462B472B41F443
S1130F2080899189A289B38985A396A3A7A3B0A731
S1130F300895FC01838D811107C0908D911105C026
S1130F40918D81E08927089580E00895DB018F93D6
S1130F509F932DD0BF91AF91A29F800D911DA39F10
S1130F60900DB29F900D11240895A1E21A2EAA1B90
S1130F70BB1BFD010DC0AA1FBB1FEE1FFF1FA21745
S1130F80B307E407F50720F0A21BB30BE40BF50B42
S1130F90661F771F881F991F1A9469F760957095CB
S1130FA0809590959B01AC01BD01CF01089509D0B6
S1130FB0A59F900DB49F900DA49F800D911D1124A9
S1130FC00895A29FB001B39FC001A39F01D0B29F17
S1110FD0700D811D1124911D0895F894FFCF1A
S9030000FC
