S017000041546D65676138496E7465726170742E737265635F
S11300001EC038C037C036C035C034C0E1C232C0AB
S113001031C030C02FC02EC02DC02CC02BC02AC070
S113002029C028C027C076CA89CA76CA77CA79CABD
S113003085CA79CA7ACA7CCA81CA7CCA7DCA112493
S11300401FBECFE5D4E0DEBFCDBF10E0A0E6B0E038
S1130050ECE9F6E102C005900D92A436B107D9F798
S113006020E0A4E6B0E001C01D92A33EB207E1F790
S113007003D612CBC5CFFC016083418352838AE04F
S113008090E0948383836334A1F0643411F1623487
S113009079F527B381E090E002C0880F991F4A9553
S11300A0E2F7982F9095922397BB98B3892B88BB3E
S11300B0089524B381E090E002C0880F991F4A9507
S11300C0E2F7982F9095922394BB95B3892B85BB27
S11300D0089521B381E090E002C0880F991F4A95EA
S11300E0E2F7982F9095922391BB92B3892B82BB10
S11300F00895FC0127813085232B21F01086178277
S113010081E0089580E00895FC019081933479F0B2
S11301109434C1F0923419F526B330E0C90101805A
S113012002C0959587950A94E2F7817015C023B3B0
S113013030E0C901018002C0959587950A94E2F7E1
S113014081700AC020B330E0C901018002C09595D6
S113015087950A94E2F7817091E08927089580E0F9
S11301600895CF93DF93EC01CFDF882389F08D814D
S11301709E8101969E838D832B813C8128173907AC
S11301809CF43E832D8381E090E09A8789870CC09C
S11301901E821D8289859A85892B21F081E090E059
S11301A098878F831A861986DF91CF910895FC0171
S11301B06083418352836334A1F0643411F1623467
S11301C079F527B381E090E002C0880F991F4A9522
S11301D0E2F7982F9095922397BB98B3892B88BB0D
S11301E0089524B381E090E002C0880F991F4A95D6
S11301F0E2F7982F9095922394BB95B3892B85BBF6
S1130200089521B381E090E002C0880F991F4A95B8
S1130210E2F7982F9095922391BB92B3892B82BBDE
S11302200895FC019081933479F09434C1F09234B0
S113023019F526B330E0C901018002C09595879570
S11302400A94E2F7817015C023B330E0C90101803C
S113025002C0959587950A94E2F781700AC020B38D
S113026030E0C901018002C0959587950A94E2F7B0
S1130270817091E08927089580E0089584B38863AC
S113028084BB85B3877C85BB0895AB98882314F41D
S1130290AC9A01C0AC9892E09A95F1F700C0AB9A81
S11302A095E09A95F1F70000AB9886FF02C0AC9AEE
S11302B001C0AC9892E09A95F1F700C0AB9A95E032
S11302C09A95F1F70000AB9885FF02C0AC9A01C083
S11302D0AC9892E09A95F1F700C0AB9A95E09A95A4
S11302E0F1F70000AB9884FF02C0AC9A01C0AC984F
S11302F092E09A95F1F700C0AB9A95E09A95F1F7E0
S11303000000AB9883FF02C0AC9A01C0AC9892E0A5
S11303109A95F1F700C0AB9A95E09A95F1F7000031
S1130320AB9882FF02C0AC9A01C0AC9892E09A9557
S1130330F1F700C0AB9A95E09A95F1F70000AB98FD
S113034081FF02C0AC9A01C0AC9892E09A95F1F793
S113035000C0AB9A95E09A95F1F70000AB9880FF46
S113036002C0AC9A01C0AC9882E08A95F1F700C053
S1130370AB9A95E09A95F1F70000AB980895CF9366
S1130380C62FAD98AC9A81DF8C2F7FDFAC9AAD9AE3
S1130390CF910895CF93C09162006FE08C2FEFDF6F
S11303A0C150D9F7CF9108956FEF89E0E8DF6091EC
S11303B0620065508BE0E3DF65E08AE0E0DF61E046
S11303C08CE0DDDFE7DF60E081E0D9DF60E082E040
S11303D0D6DF60E083E0D3DF60E084E0D0DF08951F
S11303E09F92AF92BF92CF92DF92EF92FF920F93C0
S11303F01F93CF93DF9300D000D0CDB7DEB76983CE
S11304007A838B839C835A0189819A81AB81BC81D5
S1130410BB2394F489819A81AB81BC81B095A0956A
S1130420909581959F4FAF4FBF4F89839A83AB833C
S1130430BC839924939401C0912CACDF89819A8167
S1130440AB81BC81892B8A2B8B2B21F460E081E06A
S113045096DF41C001E010E00F2EFAE0CF2ED12C40
S1130460E12CF12CF02D01C0022F812F90E08A1590
S11304709B0569F4112359F069817A818B819C81F0
S1130480A7019601D7D86058802F79DF09C0698108
S11304907A818B819C81A7019601CCD8802F6FDF54
S11304A069817A818B819C81A7019601C3D82983B4
S11304B03A834B835C8389819A81AB81BC811F5FC2
S11304C021E0200F892B8A2B8B2B71F6992019F0B0
S11304D06AE0822F54DF0F900F900F900F90DF91FE
S11304E0CF911F910F91FF90EF90DF90CF90BF902D
S11304F0AF909F900895CF93DF9300D000D0CDB7F5
S1130500DEB769837A838B839C8369817A818B814B
S11305109C8124E630E040E050E08CD8CA01B90167
S113052041E050E05DDF0F900F900F900F90DF914E
S1130530CF9108958091E100882391F08091DF00AC
S11305409091E00001969093E0008093DF00813168
S1130550974234F01092E1001092E0001092DF0014
S113056008958091E200811127C084E690E04ED77F
S113057081110CC0609164007091650080916600E7
S11305809091670040E050E02BDF08958091E100F6
S1130590882361F060916400709165008091660029
S11305A09091670040E050E01BDF089540E050E088
S11305B060E070E0CB0114DF08958EB588608EBDD5
S11305C089B7806189BF8EB584608EBD78940895A3
S11305D01F920F920FB60F9211242F933F934F93B4
S11305E05F936F937F938F939F93AF93BF93EF9397
S11305F0FF9384E690E0B7D7609164007091650042
S113060084E690E079D4ADDFFF91EF91BF91AF9193
S11306109F918F917F916F915F914F913F912F9116
S11306200F900FBE0F901F90189540E050E063E4C8
S11306308AED90E0BCDD41E050E063E487ED90E0BA
S1130640B6DD40E050E064E48CEC90E014DD41E081
S113065050E064E481EC90E00EDD42E050E064E4BC
S113066086EB90E008DD44E050E064E48BEA90E03F
S113067002DD43E050E064E480EA90E0FCDC20E04A
S113068042E050E063E48CE990E005D321E046E0E9
S113069050E062E488E990E0FED221E047E050E0D7
S11306A062E484E990E0F7D221E045E050E064E4BC
S11306B080E990E0F0D284E690E03CD4B89AB99A0C
S11306C0BA9ABB9ABC9ABD9A8F9AD8DD6DDE75DF53
S11306D02FEF80E792E0215080409040E1F700C086
S11306E000008CE990E0A8D308958CEC90E039DD0B
S11306F081EC90E036DD86EB90E033DD8BEA90E030
S113070030DD80EA90E02DDD089581EC90E0F1DCAD
S1130710882389F080917F0081110DC08AED90E0DB
S113072080DD811108C087ED90E07BDD882319F01E
S113073081E080937C0008958CEC90E0DADC8823DF
S113074069F08AED90E06DDD811108C087ED90E0DD
S113075068DD882319F081E080937D00089586EB9D
S113076090E0C7DC882319F081E080937E0008952F
S11307708091B4009091B500892B49F18091DD00FE
S11307809091DE000196883B2BE092072CF4909325
S1130790DE008093DD001BC088EB9BE09093DE00BD
S11307A08093DD006AE070E084E690E048D581E063
S11307B08093E1001092E0001092DF008FEF91EE41
S11307C024E0815090402040E1F700C000008BEA13
S11307D090E08FDC882391F081E090E09093DE003C
S11307E08093DD0061E070E084E690E028D581E04C
S11307F08093E1001092E0001092DF008091A90044
S11308009091AA00892B49F18091DD009091DE003E
S11308100196883B2BE092072CF49093DE008093A2
S1130820DD001BC088EB9BE09093DE008093DD002D
S11308306AE070E084E690E03AD581E08093E100DC
S11308401092E0001092DF008FEF91EE24E08150CF
S113085090402040E1F700C0000080EA90E049DCCD
S1130860882391F081E090E09093DE008093DD0096
S113087061E070E084E690E01AD581E08093E100C5
S11308801092E0001092DF0008958F929F92BF9221
S1130890CF92DF92EF92FF920F931F93CF93DF9348
S11308A084E690E0B3D5882309F4B4C0CBEAD0E061
S11308B00F2EF0EAEF2EF0E0FF2EF02D0F2EF1ECCC
S11308C0CF2EF0E0DF2EF02DBB24B39489859A85DA
S11308D0892B29F4F70181859285892B29F0F6016A
S11308E081859285892B29F48091E200882309F47B
S11308F091C0B092E20080E990E09ED284E990E059
S11309003BD288E990E038D2CE012BDC89859A85E8
S1130910892BC1F00F5F1F4F8090600090906100A1
S1130920081519057CF068EE73E084E690E0E8D4DD
S1130930FFEF20E782E0F15020408040E1F700C063
S113094000008401CE01D5DB882399F064E670E0D1
S113095084E690E0D5D480E990E00ED29FEFE0E702
S1130960F2E09150E040F040E1F700C0000000E008
S113097010E0C701F6DBF70181859285892BC1F070
S11309800F5F1F4F8090600090906100081519055B
S11309907CF068EE73E084E690E0D5D4FFEF20E7C6
S11309A082E0F15020408040E1F700C00000840163
S11309B0C7019FDB882399F064E670E084E690E049
S11309C0C2D480E990E0D8D19FEFE0E7F2E0915003
S11309D0E040F040E1F700C0000000E010E060916A
S11309E0810070918200809183009091840083DD66
S11309F0C601B7DBC6017DDB89859A85892B09F0A1
S1130A0065CFF60181859285892B09F05FCF10921D
S1130A10E2005CCFDF91CF911F910F91FF90EF9097
S1130A20DF90CF90BF909F908F9008958F929F9268
S1130A30BF92CF92DF92EF92FF920F931F93CF93C7
S1130A40DF9384E690E0E2D4882309F4B6C0CBEACD
S1130A50D0E00F2EF0EAEF2EF0E0FF2EF02D0F2E57
S1130A60FCECCF2EF0E0DF2EF02DBB24B39489856F
S1130A709A85892B29F4F70181859285892B29F0A0
S1130A80F60181859285892B29F48091E2008823DF
S1130A9009F493C0B092E20080E990E0CDD184E9FA
S1130AA090E06AD188E990E067D1CE015ADB89856C
S1130AB09A85892BC1F00F5F1F4F80906000909042
S1130AC06100081519057CF068EE73E084E690E097
S1130AD05AD4FFEF20E782E0F15020408040E1F754
S1130AE000C000008401CE0104DB882399F064E691
S1130AF070E084E690E047D480E990E03DD19FEF38
S1130B00E0E7F2E09150E040F040E1F700C000007F
S1130B1000E010E0C70125DBCE0123DBF70181856E
S1130B209285892BC1F00F5F1F4F809060009090D9
S1130B306100081519057CF068EE73E084E690E026
S1130B4045D4FFEF20E782E0F15020408040E1F7F8
S1130B5000C000008401C701CCDA882399F064E660
S1130B6070E084E690E032D480E990E005D19FEF14
S1130B70E0E7F2E09150E040F040E1F700C000000F
S1130B8000E010E06091890070918A0080918B00F0
S1130B9090918C00B0DCC601E4DAC601AADA89853A
S1130BA09A85892B09F063CFF60181859285892B7B
S1130BB009F05DCF1092E2005ACFDF91CF911F91DF
S1130BC00F91FF90EF90DF90CF90BF909F908F9008
S1130BD008958AED90E025DB811105C087ED90E052
S1130BE020DB811105C0E4E6F0E0108E118E138E37
S1130BF08AED90E016DB882321F08CE990E0BCD0EC
S1130C0008958CE990E018D1089580917C008111B9
S1130C1004C080917D00882351F080E990E00CD1DC
S1130C2084E990E0A9D088E990E0A6D003C080E9E7
S1130C3090E0A2D080917F00882379F080917C009D
S1130C40811107C080917D00811103C088E990E083
S1130C50F3D084E990E090D0089588E990E08CD0B6
S1130C6080917C00811107C080917D00811103C0B7
S1130C7084E990E0E1D00895D8DC37DD46DD5CDD21
S1130C806EDD76DD02DED2DEA4DF84E690E0A0D164
S1130C90BCDF50DCF2CFFC016083418352832383A9
S1130CA02223A1F16334A1F0643409F1623409F020
S1130CB062C028B381E090E002C0880F991F4A9572
S1130CC0E2F7922F982B98BB97B3892B87BB089593
S1130CD025B381E090E002C0880F991F4A95E2F79E
S1130CE0922F982B95BB94B3892B84BB089522B380
S1130CF081E090E002C0880F991F4A95E2F7922F95
S1130D00982B92BB91B3892B81BB08956334A1F0D6
S1130D10643411F1623479F528B381E090E002C0C3
S1130D20880F991F4A95E2F7982F9095922398BBC4
S1130D3097B3892B87BB089525B381E090E002C067
S1130D40880F991F4A95E2F7982F9095922395BBA7
S1130D5094B3892B84BB089522B381E090E002C050
S1130D60880F991F4A95E2F7982F9095922392BB8A
S1130D7091B3892B81BB0895FC01F8948381882366
S1130D8061F18081833489F08434D9F0823409F0AC
S1130D9051C028B381E090E0018002C0880F991F00
S1130DA00A94E2F7822B88BB45C025B381E090E02A
S1130DB0018002C0880F991F0A94E2F7822B85BB39
S1130DC039C022B381E090E0018002C0880F991FEE
S1130DD00A94E2F7822B82BB2DC08081833489F090
S1130DE08434E1F0823431F528B381E090E001806D
S1130DF002C0880F991F0A94E2F78095822388BB6A
S1130E0019C025B381E090E0018002C0880F991FCA
S1130E100A94E2F78095822385BB0CC022B381E05B
S1130E2090E0018002C0880F991F0A94E2F7809530
S1130E30822382BB78940895FC01F8948381811104
S1130E402CC08081833489F08434D9F0823409F051
S1130E5051C028B381E090E0018002C0880F991F3F
S1130E600A94E2F7822B88BB45C025B381E090E069
S1130E70018002C0880F991F0A94E2F7822B85BB78
S1130E8039C022B381E090E0018002C0880F991F2D
S1130E900A94E2F7822B82BB2DC08081833489F0CF
S1130EA08434E1F0823431F528B381E090E00180AC
S1130EB002C0880F991F0A94E2F78095822388BBA9
S1130EC019C025B381E090E0018002C0880F991F0A
S1130ED00A94E2F78095822385BB0CC022B381E09B
S1130EE090E0018002C0880F991F0A94E2F7809570
S1130EF0822382BB78940895CF93DF93EC019B0106
S1130F00770F440B550B288339834A835B8368E549
S1130F1074E180E090E06CD3C9016BA5662329F0ED
S1130F2099230CF40196959587959BBD8ABDDF9115
S1130F30CF910895CF92DF92EF92FF92CF93DF93F8
S1130F40EC0184E190E0A0E0B0E08C839D83AE836B
S1130F50BF83C12CD12C7601C394C886D986EA8676
S1130F60FB8686E990E0A0E0B0E08C879D87AE87A1
S1130F70BF8784E690E0A0E0B0E0888B998BAA8BD1
S1130F80BB8B80E395E7A0E0B0E08C8B9D8BAE8BB0
S1130F90BF8B64E170E0CE01AFDF88EE93E0A0E0A8
S1130FA0B0E08D8F9E8FAF8FB8A38DA39EA3AFA308
S1130FB0B8A7C9A2DAA2EBA2FCA281E090E09AA7AA
S1130FC089A7DF91CF91FF90EF90DF90CF900895A4
S1130FD04F925F926F927F928F929F92AF92BF9245
S1130FE0CF92DF92EF92FF92CF93DF9300D000D0A5
S1130FF000D0CDB7DEB79E838D83DC0158968C91EB
S11310005897882339F059968C915997882311F071
S113101058961C92ED81FE81828D882381F0838D08
S11310208111F3C0848D811103C081E0848F04C0D9
S1131030AD81BE815C961C92ED81FE81128EAD81E4
S1131040BE8158968C915897882309F45FC0EBEDC4
S1131050F5E03197F1F700C000009196CD90DD9056
S1131060ED90FC909497FFEFCF1ADF0AEF0AFF0A86
S1131070AD81BE819196CD92DD92ED92FC929497D2
S113108018968D909D90AD90BC901B975D964D9059
S11310905D906D907C909097FD0184819581A681EF
S11310A0B7819C01AD01281939094A095B09C701B7
S11310B0B6018FD2A30192019BD2DA01C901880D36
S11310C0991DAA1DBB1D0097A105B10539F0ED813D
S11310D0FE8180839183A283B38307C0AD81BE81E7
S11310E08D929D92AD92BC9213974C145D046E0444
S11310F07F0460F481E090E0A0E0B0E0ED81FE8147
S113110081A392A3A3A3B4A3838F108EAD81BE81C8
S113111059968C915997882309F47CC0EBEDF5E03E
S11311203197F1F700C000009196CD90DD90ED90DD
S1131130FC909497FFEFCF1ADF0AEF0AFF0AAD8104
S1131140BE819196CD92DD92ED92FC929497149685
S11311508D909D90AD90BC90179718964D905D9092
S11311606D907C901B9795968D919D910D90BC915F
S1131170A02D89839A83AB83BC83A5019401241990
S1131180350946095709C701B60123D229813A8195
S11311904B815C812DD2821A930AA40AB50A39F0D4
S11311A0ED81FE8180829182A282B38207C0AD81EB
S11311B0BE814D925D926D927C92139789819A8142
S11311C0AB81BC818C159D05AE05BF0518F581E08A
S11311D090E0A0E0B0E0ED81FE8181A392A3A3A3FF
S11311E0B4A3138E118E828D8823A1F0FFEF24E324
S11311F08CE0F15020408040E1F700C0000081E025
S1131200AD81BE8158968C9305C081E0ED81FE814D
S1131210818F15CF26960FB6F894DEBF0FBECDBFD3
S1131220DF91CF91FF90EF90DF90CF90BF90AF9080
S11312309F908F907F906F905F904F900895FC01E6
S1131240CB01770FAA0BBB0B448155816681778153
S1131250840F951FA61FB71F84839583A683B78326
S1131260408551856285738584179507A607B7075E
S113127020F4448355836683778384859585A68586
S1131280B785448155816681778184179507A607C0
S1131290B70720F484839583A683B78384819581DB
S11312A0A681B78180839183A283B3830895FC01CF
S11312B0CB014481558166817781092E000CAA0BEC
S11312C0BB0B84179507A607B70748F4481B590BAF
S11312D06A0B7B0B448355836683778308C08085C0
S11312E09185A285B38584839583A683B7838481FE
S11312F09581A681B78180839183A283B383089566
S11313000F931F93FC01AB01770F660B770B058DD1
S1131310168D278D30A1400F511F621F731F458FFB
S1131320568F678F70A384899589A689B789841796
S11313309507A607B70720F4858F968FA78FB0A3CC
S11313401F910F910895FC01858D968DA78DB0A1F5
S1131350AB01770F660B770B481759076A077B07B2
S113136048F4841B950BA60BB70B858F968FA78F1C
S1131370B0A3089580899189A289B389858F968FB6
S1131380A78FB0A308950F931F93FC01AB01770FB0
S1131390660B770B05A116A127A130A5400F511F9D
S11313A0621F731F45A356A367A370A784899589F9
S11313B0A689B78984179507A607B70720F485A3DC
S11313C096A3A7A3B0A71F910F910895FC0185A12F
S11313D096A1A7A1B0A5AB01770F660B770B4817B1
S11313E059076A077B0748F4841B950BA60BB70BB8
S11313F085A396A3A7A3B0A7089580899189A289FC
S1131400B38985A396A3A7A3B0A70895FC01838DF0
S1131410811107C0908D911105C0918D81E08927BC
S1131420089580E00895FC0121A532A523303105FB
S1131430B1F03CF42130310561F02230310561F026
S113144019C02530310589F06CF02630310581F062
S113145011C0C498C29A0EC0C198C59A0BC0C29854
S1131460C09A08C0C598C39A05C0C098C49A02C05F
S1131470C398C19A21A532A52F5F3F4F273031056C
S11314801CF432A721A7089581E090E092A781A7D8
S11314900895FC0121A532A523303105C1F03CF4A7
S11314A021303105D1F022303105A1F018C02530AA
S11314B0310539F04CF02630310589F4C49AC298CC
S11314C00EC0C19AC5980BC0C29AC09808C0C59AEC
S11314D0C39805C0C09AC49802C0C39AC19821A5F4
S11314E032A52F5F3F4F273031051CF432A721A7C7
S11314F0089581E090E092A781A70895DC01999670
S1131500ED91FC919A973197EC30F105B8F4ED5ECA
S1131510FF4F0994C49812C0C29A10C0C198C59ACA
S11315200DC0C2980BC0C09A09C0C598C39A06C022
S1131530C09804C0C49A02C0C398C19A99962D91C8
S11315403C919A972F5F3F4F2D3031052CF49A969A
S11315503C932E939997089581E090E09A969C93FA
S11315608E9399970895FC0180819181A281B38122
S11315704497A105B10540F581A592A5019721F4F1
S113158081E083A701C013A6838D811103C0808DE0
S1131590882379F0848D811109C083A5882319F0EB
S11315A0CF01ACDF0895CF013EDF0895CF0171DF95
S11315B00895C098C198C298C398C498C59881E00A
S11315C090E092A781A7089581A592A50197E1F6DD
S11315D0DACFDB018F939F9349D0BF91AF91A29F44
S11315E0800D911DA39F900DB29F900D112408951D
S11315F0A1E21A2EAA1BBB1BFD010DC0AA1FBB1F13
S1131600EE1FFF1FA217B307E407F50720F0A21B84
S1131610B30BE40BF50B661F771F881F991F1A94F1
S113162069F760957095809590959B01AC01BD011B
S1131630CF010895052E97FB16F400940FD057FDA3
S113164005D0D6DF07FC02D046F408C0509540957B
S1131650309521953F4F4F4F5F4F0895909580955A
S1131660709561957F4F8F4F9F4F089509D0A59F27
S1131670900DB49F900DA49F800D911D1124089589
S1131680A29FB001B39FC001A39F01D0B29F700D70
S10F1690811D1124911D0895F894FFCFD2
S107169CE803080053
S9030000FC
