:100000001CC036C035C034C033C032C06CC330C031
:100010002FC02EC02DC02CC02BC02AC029C028C084
:1000200027C026C025C0F8C1F9C1FAC1FBC1FCC177
:10003000FDC1FEC1FFC100C201C211241FBECFE538
:10004000D4E0DEBFCDBF10E0A0E6B0E0EAEEF6E11E
:1000500002C005900D92A236B107D9F720E0A2E6C2
:10006000B0E001C01D92A03EB207E1F78FD63BCBB6
:10007000C7CFFC016083418352838AE090E0948380
:1000800083836334A1F0643411F1623479F527B3CA
:1000900081E090E002C0880F991F4A95E2F7982FFF
:1000A0009095922397BB98B3892B88BB089524B36E
:1000B00081E090E002C0880F991F4A95E2F7982FDF
:1000C0009095922394BB95B3892B85BB089521B35A
:1000D00081E090E002C0880F991F4A95E2F7982FBF
:1000E0009095922391BB92B3892B82BB0895FC011A
:1000F00027813085232B21F01086178281E0089517
:1001000080E00895FC019081933479F09434C1F03B
:10011000923419F526B330E0C901018002C09595EB
:1001200087950A94E2F7817015C023B330E0C901C6
:10013000018002C0959587950A94E2F781700AC004
:1001400020B330E0C901018002C0959587950A94DB
:10015000E2F7817091E08927089580E00895CF93B8
:10016000DF93EC01CFDF882389F08D819E8101969A
:100170009E838D832B813C81281739079CF43E8315
:100180002D8381E090E09A8789870CC01E821D82B2
:1001900089859A85892B21F081E090E098878F836B
:1001A0001A861986DF91CF910895FC0160834183FF
:1001B00052836334A1F0643411F1623479F527B3CA
:1001C00081E090E002C0880F991F4A95E2F7982FCE
:1001D0009095922397BB98B3892B88BB089524B33D
:1001E00081E090E002C0880F991F4A95E2F7982FAE
:1001F0009095922394BB95B3892B85BB089521B329
:1002000081E090E002C0880F991F4A95E2F7982F8D
:100210009095922391BB92B3892B82BB0895FC01E8
:100220009081933479F09434C1F0923419F526B367
:1002300030E0C901018002C0959587950A94E2F7E4
:10024000817015C023B330E0C901018002C09595CB
:1002500087950A94E2F781700AC020B330E0C901A3
:10026000018002C0959587950A94E2F7817091E02C
:100270008927089580E0089584B3886384BB85B39B
:10028000877C85BB0895AB9A92E09A95F1F700C000
:10029000882314F4AC9A01C0AC9892E09A95F1F7D7
:1002A00000C0AB9895E09A95F1F70000AB9A92E008
:1002B0009A95F1F700C086FF02C0AC9A01C0AC98D5
:1002C00092E09A95F1F700C0AB9895E09A95F1F716
:1002D0000000AB9A92E09A95F1F700C085FF02C04A
:1002E000AC9A01C0AC9892E09A95F1F700C0AB9837
:1002F00095E09A95F1F70000AB9A92E09A95F1F7A4
:1003000000C084FF02C0AC9A01C0AC9892E09A95FC
:10031000F1F700C0AB9895E09A95F1F70000AB9A21
:1003200092E09A95F1F700C083FF02C0AC9A01C039
:10033000AC9892E09A95F1F700C0AB9895E09A9549
:10034000F1F70000AB9A92E09A95F1F700C082FFB6
:1003500002C0AC9A01C0AC9892E09A95F1F700C047
:10036000AB9895E09A95F1F70000AB9A92E09A95D8
:10037000F1F700C081FF02C0AC9A01C0AC9892E0D6
:100380009A95F1F700C0AB9895E09A95F1F70000C7
:10039000AB9A92E09A95F1F700C080FF02C0AC9A48
:1003A00001C0AC9882E08A95F1F700C0AB9895E067
:1003B0009A95F1F70000AB9808951F93CF93DF93C0
:1003C000162FD42FC22FAD98AC985DDF812F5BDF45
:1003D0008D2F59DF8C2F57DFAC98AD9A8DE08A9521
:1003E000F1F70000AD98DF91CF911F910895CF9361
:1003F000DF9300D000D0CDB7DEB769837A838B83DB
:100400009C8389819A81AB81BC818A309105B8F443
:10041000FC01ED5EFF4F09942EE711C02CE00FC0E8
:1004200026EB0DC02EE90BC02CEC09C02AED07C04D
:100430002AEF05C02EE003C02EEF01C02EED822F63
:100440000F900F900F900F90DF91CF9108953F92F2
:100450004F925F926F927F928F929F92AF92BF92D4
:10046000CF92DF92EF92FF920F931F93CF93DF9380
:10047000CDB7DEB728970FB6F894DEBF0FBECDBF5D
:1004800069837A838B839C838A0189819A81AB817A
:10049000BC81892B8A2B8B2B49F460E070E0CB0167
:1004A000A6DF20E040E060E088DF98C069817A81C3
:1004B0008B819C8149805A806B807C8089809A8066
:1004C000AB80BC8029813A814B815C812D833E8346
:1004D0004F8358870F2EFAE0CF2ED12CE12CF12C30
:1004E000F02DA7019601CDD87727882799277FDFA0
:1004F000382EC301B201A7019601C3D8CA01B901C0
:10050000A7019601BED877278827992770DF782E14
:10051000C501B40124E630E040E050E0B2D8CA01A1
:10052000B901A7019601ADD87727882799275FDF02
:10053000B82E6D817E818F81988528EE33E040E072
:1005400050E09FD8CA01B901A70196019AD8772730
:10055000882799274CDF49815A816B817C81483EED
:100560005340610571050CF480E049815A816B812B
:100570007C8144365105610571050CF4B12C49812B
:100580005A816B817C814A305105610571051CF4EB
:1005900001151105E9F00230110581F024F4013054
:1005A000110541F016C00330110561F0043011054A
:1005B00069F00FC0432D4160342E0BC0572D5160A0
:1005C000752E07C09B2D9160B92E03C0816001C0BC
:1005D000712C282F4B2D672D832DEFDE28960FB61B
:1005E000F894DEBF0FBECDBFDF91CF911F910F9169
:1005F000FF90EF90DF90CF90BF90AF909F908F9043
:100600007F906F905F904F903F900895CF93DF93CE
:1006100000D000D0CDB7DEB769837A838B839C830B
:1006200069817A818B819C8124E630E040E050E052
:1006300028D8CA01B90141E050E009DF0F900F90BE
:100640000F900F90DF91CF9108958091DE00882365
:1006500091F08091DC009091DD0001969093DD0097
:100660008093DC008131974234F01092DE001092CA
:10067000DD001092DC0008958091DF00811127C019
:1006800082E690E03AD781110CC0609162007091CF
:100690006300809164009091650040E050E0D7DEF7
:1006A00008958091DE00882361F06091620070916E
:1006B0006300809164009091650040E050E0C7DEE7
:1006C000089540E050E060E070E0CB01C0DE0895A6
:1006D0008EB588608EBD89B7806189BF8EB5846014
:1006E0008EBD789408951F920F920FB60F92112429
:1006F0002F933F934F935F936F937F938F939F932A
:10070000AF93BF93EF93FF9382E690E06ED7609133
:1007100062007091630082E690E0C0D4ADDFFF918B
:10072000EF91BF91AF919F918F917F916F915F9169
:100730004F913F912F910F900FBE0F901F901895E2
:1007400040E050E063E487ED90E02FDD41E050E0D1
:1007500063E484ED90E029DD40E050E064E489EC5E
:1007600090E087DC41E050E064E48EEB90E081DCD7
:1007700042E050E064E483EB90E07BDC44E050E056
:1007800064E488EA90E075DC43E050E064E48DE9DD
:1007900090E06FDC20E042E050E063E489E990E023
:1007A00004D321E046E050E062E485E990E0FDD228
:1007B00021E047E050E062E481E990E0F6D221E0F8
:1007C00045E050E064E48DE890E0EFD282E690E00E
:1007D0001DD4B89AB99ABA9ABB9ABC9ABD9A8F9A04
:1007E0004BDD76DF2FEF80E792E021508040904094
:1007F000E1F700C0000089E990E0A8D3089589ECF2
:1008000090E0ADDC8EEB90E0AADC83EB90E0A7DC1F
:1008100088EA90E0A4DC8DE990E0A1DC08958EEBFD
:1008200090E065DC882389F080917D0081110DC006
:1008300087ED90E0F4DC811108C084ED90E0EFDCFE
:10084000882319F081E080937A00089589EC90E084
:100850004EDC882369F087ED90E0E1DC811108C06F
:1008600084ED90E0DCDC882319F081E080937B004C
:10087000089583EB90E03BDC882319F081E08093BE
:100880007C0008958091B1009091B200892B49F1CC
:100890008091DA009091DB000196883B2BE0920773
:1008A0002CF49093DB008093DA001BC088EB9BE074
:1008B0009093DB008093DA006AE070E082E690E0DB
:1008C00035D581E08093DE001092DD001092DC00CF
:1008D0008FEF91EE24E0815090402040E1F700C07E
:1008E000000088EA90E003DC882391F081E090E04A
:1008F0009093DB008093DA0061E070E082E690E0A4
:1009000015D581E08093DE001092DD001092DC00AE
:100910008091A6009091A700892B49F18091DA007F
:100920009091DB000196883B2BE092072CF490938A
:10093000DB008093DA001BC088EB9BE09093DB0028
:100940008093DA006AE070E082E690E027D581E0EB
:100950008093DE001092DD001092DC008FEF91EEAC
:1009600024E0815090402040E1F700C000008DE974
:1009700090E0BDDB882391F081E090E09093DB0074
:100980008093DA0061E070E082E690E007D581E0D4
:100990008093DE001092DD001092DC0008958F92AB
:1009A0009F92BF92CF92DF92EF92FF920F931F938D
:1009B000CF93DF9382E690E0A0D5882309F4B4C0FA
:1009C000C8EAD0E00F2EFDE9EF2EF0E0FF2EF02D6B
:1009D0000F2EFEEBCF2EF0E0DF2EF02DBB24B394D4
:1009E00089859A85892B29F4F70181859285892B40
:1009F00029F0F60181859285892B29F48091DF0009
:100A0000882309F491C0B092DF008DE890E09ED277
:100A100081E990E03BD285E990E038D2CE019FDBBE
:100A200089859A85892BC1F00F5F1F4F80906000E8
:100A300090906100081519057CF068EE73E082E67D
:100A400090E0D5D4FFEF20E782E0F15020408040D5
:100A5000E1F700C000008401CE0149DB882399F052
:100A600064E670E082E690E0C2D48DE890E00ED2B9
:100A70009FEFE0E7F2E09150E040F040E1F700C086
:100A8000000000E010E0C7016ADBF7018185928574
:100A9000892BC1F00F5F1F4F809060009090610024
:100AA000081519057CF068EE73E082E690E0C2D488
:100AB000FFEF20E782E0F15020408040E1F700C0E6
:100AC00000008401C70113DB882399F064E670E01D
:100AD00082E690E0AFD48DE890E0D8D19FEFE0E7D8
:100AE000F2E09150E040F040E1F700C0000000E08B
:100AF00010E060917F007091800080918100909162
:100B0000820084DDC6012BDBC601F1DA89859A8576
:100B1000892B09F065CFF60181859285892B09F033
:100B20005FCF1092DF005CCFDF91CF911F910F91CB
:100B3000FF90EF90DF90CF90BF909F908F9008959F
:100B40008F929F92BF92CF92DF92EF92FF920F937C
:100B50001F93CF93DF9382E690E0CFD4882309F4EC
:100B6000B6C0C8EAD0E00F2EFDE9EF2EF0E0FF2E70
:100B7000F02D0F2EF9ECCF2EF0E0DF2EF02DBB2460
:100B8000B39489859A85892B29F4F701818592850B
:100B9000892B29F0F60181859285892B29F4809192
:100BA000DF00882309F493C0B092DF008DE890E065
:100BB000CDD181E990E06AD185E990E067D1CE019D
:100BC000CEDA89859A85892BC1F00F5F1F4F8090FF
:100BD000600090906100081519057CF068EE73E0E4
:100BE00082E690E047D4FFEF20E782E0F15020401A
:100BF0008040E1F700C000008401CE0178DA88234C
:100C000099F064E670E082E690E034D48DE890E0FC
:100C10003DD19FEFE0E7F2E09150E040F040E1F796
:100C200000C0000000E010E0C70199DACE0197DAB9
:100C3000F70181859285892BC1F00F5F1F4F80904E
:100C4000600090906100081519057CF068EE73E073
:100C500082E690E032D4FFEF20E782E0F1502040BE
:100C60008040E1F700C000008401C70140DA88231A
:100C700099F064E670E082E690E01FD48DE890E0A1
:100C800005D19FEFE0E7F2E09150E040F040E1F75E
:100C900000C0000000E010E06091870070918800C3
:100CA0008091890090918A00B1DCC60158DAC601B2
:100CB0001EDA89859A85892B09F063CFF601818533
:100CC0009285892B09F05DCF1092DF005ACFDF911A
:100CD000CF911F910F91FF90EF90DF90CF90BF9039
:100CE0009F908F90089587ED90E099DA811105C06B
:100CF00084ED90E094DA811105C0E2E6F0E0108E18
:100D0000118E138E87ED90E08ADA882321F089E92D
:100D100090E0BCD0089589E990E018D108958091C1
:100D20007A00811104C080917B00882351F08DE806
:100D300090E00CD181E990E0A9D085E990E0A6D0BF
:100D400003C08DE890E0A2D080917D00882379F0E7
:100D500080917A00811107C080917B00811103C0CE
:100D600085E990E0F3D081E990E090D0089585E99D
:100D700090E08CD080917A00811107C080917B0037
:100D8000811103C081E990E0E1D00895D9DC37DD1D
:100D900046DD5CDD6EDD76DD02DED2DEA4DF82E6DE
:100DA00090E08DD1BCDF51DCF2CFFC016083418348
:100DB000528323832223A1F16334A1F0643409F127
:100DC000623409F062C028B381E090E002C0880F6D
:100DD000991F4A95E2F7922F982B98BB97B3892BCE
:100DE00087BB089525B381E090E002C0880F991F6A
:100DF0004A95E2F7922F982B95BB94B3892B84BB2D
:100E0000089522B381E090E002C0880F991F4A95AF
:100E1000E2F7922F982B92BB91B3892B81BB089557
:100E20006334A1F0643411F1623479F528B381E0C0
:100E300090E002C0880F991F4A95E2F7982F90958D
:100E4000922398BB97B3892B87BB089525B381E084
:100E500090E002C0880F991F4A95E2F7982F90956D
:100E6000922395BB94B3892B84BB089522B381E070
:100E700090E002C0880F991F4A95E2F7982F90954D
:100E8000922392BB91B3892B81BB0895FC01F89406
:100E90008381882361F18081833489F08434D9F09F
:100EA000823409F051C028B381E090E0018002C093
:100EB000880F991F0A94E2F7822B88BB45C025B39F
:100EC00081E090E0018002C0880F991F0A94E2F748
:100ED000822B85BB39C022B381E090E0018002C043
:100EE000880F991F0A94E2F7822B82BB2DC0808164
:100EF000833489F08434E1F0823431F528B381E021
:100F000090E0018002C0880F991F0A94E2F7809553
:100F1000822388BB19C025B381E090E0018002C024
:100F2000880F991F0A94E2F78095822385BB0CC035
:100F300022B381E090E0018002C0880F991F0A94DB
:100F4000E2F78095822382BB78940895FC01F8949F
:100F5000838181112CC08081833489F08434D9F05D
:100F6000823409F051C028B381E090E0018002C0D2
:100F7000880F991F0A94E2F7822B88BB45C025B3DE
:100F800081E090E0018002C0880F991F0A94E2F787
:100F9000822B85BB39C022B381E090E0018002C082
:100FA000880F991F0A94E2F7822B82BB2DC08081A3
:100FB000833489F08434E1F0823431F528B381E060
:100FC00090E0018002C0880F991F0A94E2F7809593
:100FD000822388BB19C025B381E090E0018002C064
:100FE000880F991F0A94E2F78095822385BB0CC075
:100FF00022B381E090E0018002C0880F991F0A941B
:10100000E2F78095822382BB789408950F931F9313
:10101000FC0142E350E060E070E044835583668366
:10102000778381E090E0A0E0B0E080879187A2879D
:10103000B38706E910E020E030E0048715872687B3
:10104000378704E610E020E030E0008B118B228B24
:10105000338B00E315E720E030E0048B158B268B03
:10106000378B408351836283738328E630E03BBD36
:101070002ABD48EE53E060E070E0458F568F678FE1
:1010800070A345A356A367A370A781A392A3A3A3AC
:10109000B4A392A781A71F910F9108959B01770F89
:1010A000440B550BFC01208331834283538368E555
:1010B00074E180E090E0C3D23BBD2ABD08954F9219
:1010C0005F926F927F928F929F92AF92BF92CF92D8
:1010D000DF92EF92FF92CF93DF9300D000D000D049
:1010E000CDB7DEB79E838D83DC0158968C915897DF
:1010F000882339F059968C915997882311F0589686
:101100001C92ED81FE81828D882381F0838D811177
:10111000F3C0848D811103C081E0848F04C0AD8150
:10112000BE815C961C92ED81FE81128EAD81BE81E6
:1011300058968C915897882309F45FC0EBEDF5E041
:101140003197F1F700C000009196CD90DD90ED90C1
:10115000FC909497FFEFCF1ADF0AEF0AFF0AAD81E8
:10116000BE819196CD92DD92ED92FC929497189665
:101170008D909D90AD90BC901B975D964D905D902D
:101180006D907C909097FD0184819581A681B781B7
:101190009C01AD01281939094A095B09C701B6014B
:1011A0003FD2A30192014BD2DA01C901880D991DEA
:1011B000AA1DBB1D0097A105B10539F0ED81FE8187
:1011C00080839183A283B38307C0AD81BE818D925A
:1011D0009D92AD92BC9213974C145D046E047F04F3
:1011E00060F481E090E0A0E0B0E0ED81FE8181A3B9
:1011F00092A3A3A3B4A3838F108EAD81BE81599611
:101200008C915997882309F47CC0EBEDF5E0319778
:10121000F1F700C000009196CD90DD90ED90FC902C
:101220009497FFEFCF1ADF0AEF0AFF0AAD81BE8164
:101230009196CD92DD92ED92FC92949714968D90BA
:101240009D90AD90BC90179718964D905D906D90C5
:101250007C901B9795968D919D910D90BC91A02DA2
:1012600089839A83AB83BC83A50194012419350932
:1012700046095709C701B601D3D129813A814B816B
:101280005C81DDD1821A930AA40AB50A39F0ED8196
:10129000FE8180829182A282B38207C0AD81BE812D
:1012A0004D925D926D927C92139789819A81AB8168
:1012B000BC818C159D05AE05BF0518F581E090E059
:1012C000A0E0B0E0ED81FE8181A392A3A3A3B4A32B
:1012D000138E118E828D8823A1F0FFEF24E38CE022
:1012E000F15020408040E1F700C0000081E0AD8176
:1012F000BE8158968C9305C081E0ED81FE81818F7F
:1013000015CF26960FB6F894DEBF0FBECDBFDF9186
:10131000CF91FF90EF90DF90CF90BF90AF909F90D4
:101320008F907F906F905F904F900895FC01CB015C
:10133000770FAA0BBB0B4481558166817781840F9F
:10134000951FA61FB71F84839583A683B783408507
:1013500051856285738584179507A607B70720F422
:10136000448355836683778384859585A685B78571
:10137000448155816681778184179507A607B70751
:1013800020F484839583A683B78384819581A68185
:10139000B78180839183A283B3830895FC01CB013D
:1013A0004481558166817781092E000CAA0BBB0B05
:1013B00084179507A607B70748F4481B590B6A0B13
:1013C0007B0B448355836683778308C08085918532
:1013D000A285B38584839583A683B7838481958111
:1013E000A681B78180839183A283B38308950F93ED
:1013F0001F93FC01AB01770F660B770B058D168DE4
:10140000278D30A1400F511F621F731F458F568FCC
:10141000678F70A384899589A689B78984179507F2
:10142000A607B70720F4858F968FA78FB0A31F91CB
:101430000F910895FC01858D968DA78DB0A1AB010C
:10144000770F660B770B481759076A077B0748F435
:10145000841B950BA60BB70B858F968FA78FB0A318
:10146000089580899189A289B389858F968FA78FE6
:10147000B0A308950F931F93FC01AB01770F660B88
:10148000770B05A116A127A130A5400F511F621FA0
:10149000731F45A356A367A370A784899589A6895E
:1014A000B78984179507A607B70720F485A396A3E5
:1014B000A7A3B0A71F910F910895FC0185A196A144
:1014C000A7A1B0A5AB01770F660B770B481759079B
:1014D0006A077B0748F4841B950BA60BB70B85A303
:1014E00096A3A7A3B0A7089580899189A289B389FB
:1014F00085A396A3A7A3B0A70895FC01838D8111AE
:1015000007C0908D911105C0918D81E089270895C4
:1015100080E00895FC0121A532A523303105B1F00A
:101520003CF42130310561F02230310561F019C001
:101530002530310589F06CF02630310581F011C07D
:10154000C498C29A0EC0C198C59A0BC0C298C09ADE
:1015500008C0C598C39A05C0C098C49A02C0C39871
:10156000C19A21A532A52F5F3F4F273031051CF4CA
:1015700032A721A7089581E090E092A781A708955E
:10158000FC0121A532A523303105C1F03CF4213006
:101590003105D1F022303105A1F018C025303105D8
:1015A00039F04CF02630310589F4C49AC2980EC047
:1015B000C19AC5980BC0C29AC09808C0C59AC39872
:1015C00005C0C09AC49802C0C39AC19821A532A58B
:1015D0002F5F3F4F273031051CF432A721A7089514
:1015E00081E090E092A781A70895FC01238D21114D
:1015F00003C0208D222341F0FC01248D211102C063
:1016000089DF0895BDDF0895C098C198C298C39836
:10161000C498C59821E030E0FC0132A721A70895C5
:10162000DB018F939F9349D0BF91AF91A29F800D13
:10163000911DA39F900DB29F900D11240895A1E2DA
:101640001A2EAA1BBB1BFD010DC0AA1FBB1FEE1F3C
:10165000FF1FA217B307E407F50720F0A21BB30B87
:10166000E40BF50B661F771F881F991F1A9469F703
:1016700060957095809590959B01AC01BD01CF015F
:101680000895052E97FB16F400940FD057FD05D052
:10169000D6DF07FC02D046F408C05095409530953F
:1016A00021953F4F4F4F5F4F0895909580957095CE
:1016B00061957F4F8F4F9F4F089509D0A59F900D43
:1016C000B49F900DA49F800D911D11240895A29F99
:1016D000B001B39FC001A39F01D0B29F700D811DC7
:0A16E0001124911D0895F894FFCF26
:0216EA00E80313
:00000001FF
