:100000001CC036C035C034C033C032C06CC330C031
:100010002FC02EC02DC02CC02BC02AC029C028C084
:1000200027C026C025C0F8C1F9C1FAC1FBC1FCC177
:10003000FDC1FEC1FFC100C201C211241FBECFE538
:10004000D4E0DEBFCDBF10E0A0E6B0E0E0ECF7E129
:1000500002C005900D92A236B107D9F720E0A2E6C2
:10006000B0E001C01D92A23EB207E1F783D6A6CB55
:10007000C7CFFC016083418352838AE090E0948380
:1000800083836334A1F0643411F1623479F527B3CA
:1000900081E090E002C0880F991F4A95E2F7982FFF
:1000A0009095922397BB98B3892B88BB089524B36E
:1000B00081E090E002C0880F991F4A95E2F7982FDF
:1000C0009095922394BB95B3892B85BB089521B35A
:1000D00081E090E002C0880F991F4A95E2F7982FBF
:1000E0009095922391BB92B3892B82BB0895FC011A
:1000F00027813085232B21F01086178281E0089517
:1001000080E00895FC019081933479F09434C1F03B
:10011000923419F526B330E0C901018002C09595EB
:1001200087950A94E2F7817015C023B330E0C901C6
:10013000018002C0959587950A94E2F781700AC004
:1001400020B330E0C901018002C0959587950A94DB
:10015000E2F7817091E08927089580E00895CF93B8
:10016000DF93EC01CFDF882389F08D819E8101969A
:100170009E838D832B813C81281739079CF43E8315
:100180002D8381E090E09A8789870CC01E821D82B2
:1001900089859A85892B21F081E090E098878F836B
:1001A0001A861986DF91CF910895FC0160834183FF
:1001B00052836334A1F0643411F1623479F527B3CA
:1001C00081E090E002C0880F991F4A95E2F7982FCE
:1001D0009095922397BB98B3892B88BB089524B33D
:1001E00081E090E002C0880F991F4A95E2F7982FAE
:1001F0009095922394BB95B3892B85BB089521B329
:1002000081E090E002C0880F991F4A95E2F7982F8D
:100210009095922391BB92B3892B82BB0895FC01E8
:100220009081933479F09434C1F0923419F526B367
:1002300030E0C901018002C0959587950A94E2F7E4
:10024000817015C023B330E0C901018002C09595CB
:1002500087950A94E2F781700AC020B330E0C901A3
:10026000018002C0959587950A94E2F7817091E02C
:100270008927089580E0089584B3886384BB85B39B
:10028000877C85BB0895AB9A92E09A95F1F700C000
:10029000882314F4AC9A01C0AC9892E09A95F1F7D7
:1002A00000C0AB9895E09A95F1F70000AB9A92E008
:1002B0009A95F1F700C086FF02C0AC9A01C0AC98D5
:1002C00092E09A95F1F700C0AB9895E09A95F1F716
:1002D0000000AB9A92E09A95F1F700C085FF02C04A
:1002E000AC9A01C0AC9892E09A95F1F700C0AB9837
:1002F00095E09A95F1F70000AB9A92E09A95F1F7A4
:1003000000C084FF02C0AC9A01C0AC9892E09A95FC
:10031000F1F700C0AB9895E09A95F1F70000AB9A21
:1003200092E09A95F1F700C083FF02C0AC9A01C039
:10033000AC9892E09A95F1F700C0AB9895E09A9549
:10034000F1F70000AB9A92E09A95F1F700C082FFB6
:1003500002C0AC9A01C0AC9892E09A95F1F700C047
:10036000AB9895E09A95F1F70000AB9A92E09A95D8
:10037000F1F700C081FF02C0AC9A01C0AC9892E0D6
:100380009A95F1F700C0AB9895E09A95F1F70000C7
:10039000AB9A92E09A95F1F700C080FF02C0AC9A48
:1003A00001C0AC9882E08A95F1F700C0AB9895E067
:1003B0009A95F1F70000AB9808951F93CF93DF93C0
:1003C000162FD42FC22FAD98AC985DDF812F5BDF45
:1003D0008D2F59DF8C2F57DFAC98AD9A8DE08A9521
:1003E000F1F70000AD98DF91CF911F910895CF9361
:1003F000DF9300D000D0CDB7DEB769837A838B83DB
:100400009C8389819A81AB81BC818A309105B8F443
:10041000FC01ED5EFF4F09942EE711C02CE00FC0E8
:1004200026EB0DC02EE90BC02CEC09C02AED07C04D
:100430002AEF05C02EE003C02EEF01C02EED822F63
:100440000F900F900F900F90DF91CF9108953F92F2
:100450004F925F926F927F928F929F92AF92BF92D4
:10046000CF92DF92EF92FF920F931F93CF93DF9380
:10047000CDB7DEB728970FB6F894DEBF0FBECDBF5D
:1004800069837A838B839C838A0189819A81AB817A
:10049000BC81892B8A2B8B2B49F460E070E0CB0167
:1004A000A6DF20E040E060E088DF98C069817A81C3
:1004B0008B819C8149805A806B807C8089809A8066
:1004C000AB80BC8029813A814B815C812D833E8346
:1004D0004F8358870F2EFAE0CF2ED12CE12CF12C30
:1004E000F02DA701960138D97727882799277FDF34
:1004F000382EC301B201A70196012ED9CA01B90154
:10050000A701960129D977278827992770DF782EA8
:10051000C501B40124E630E040E050E01DD9CA0135
:10052000B901A701960118D97727882799275FDF96
:10053000B82E6D817E818F81988528EE33E040E072
:1005400050E00AD9CA01B901A701960105D9772758
:10055000882799274CDF49815A816B817C81483EED
:100560005340610571050CF480E049815A816B812B
:100570007C8144365105610571050CF4B12C49812B
:100580005A816B817C814A305105610571051CF4EB
:1005900001151105E9F00230110581F024F4013054
:1005A000110541F016C00330110561F0043011054A
:1005B00069F00FC0432D4160342E0BC0572D5160A0
:1005C000752E07C09B2D9160B92E03C0816001C0BC
:1005D000712C282F4B2D672D832DEFDE28960FB61B
:1005E000F894DEBF0FBECDBFDF91CF911F910F9169
:1005F000FF90EF90DF90CF90BF90AF909F908F9043
:100600007F906F905F904F903F900895CF93DF93CE
:1006100000D000D0CDB7DEB769837A838B839C830B
:1006200069817A818B819C8124E630E040E050E052
:1006300093D8CA01B90141E050E009DF0F900F9053
:100640000F900F90DF91CF9108958091E000882363
:1006500091F08091DE009091DF0001969093DF0091
:100660008093DE008131974234F01092E0001092C6
:10067000DF001092DE0008958091E100811127C013
:1006800082E690E0A5D781110CC060916200709164
:100690006300809164009091650040E050E0D7DEF7
:1006A00008958091E000882361F06091620070916C
:1006B0006300809164009091650040E050E0C7DEE7
:1006C000089540E050E060E070E0CB01C0DE0895A6
:1006D0008EB588608EBD89B7806189BF8EB5846014
:1006E0008EBD789408951F920F920FB60F92112429
:1006F0002F933F934F935F936F937F938F939F932A
:10070000AF93BF93EF93FF9382E690E0D9D76091C8
:1007100062007091630082E690E06FD4ADDFFF91DC
:10072000EF91BF91AF919F918F917F916F915F9169
:100730004F913F912F910F900FBE0F901F901895E2
:10074000BB9AC39885B58A6685BD14BC13BC089551
:1007500040E050E063E489ED90E027DD40E050E0C8
:1007600064E48EEC90E085DC41E050E064E483ECEE
:1007700090E07FDC42E050E064E488EB90E079DCDC
:1007800044E050E064E48DEA90E073DC43E050E044
:1007900064E482EA90E06DDC20E041E050E063E454
:1007A0008DE990E0F6D221E046E050E062E488E98D
:1007B00090E0EFD221E047E050E062E483E990E08E
:1007C000E8D221E045E050E064E48EE890E0E1D238
:1007D00082E690E07FD4B89AB99ABA9AA29ABC9A63
:1007E000BD9A8F9A49DD74DFABDF2FEF80E792E08F
:1007F000215080409040E1F700C000008DE990E07A
:100800009AD308958EEC90E0AADC83EC90E0A7DC0C
:1008100088EB90E0A4DC8DEA90E0A1DC82EA90E035
:100820009EDC089583EC90E062DC882361F0809187
:100830007D00811108C089ED90E0F1DC811103C0D9
:1008400081E080937A0008958EEC90E050DC88235C
:1008500041F089ED90E0E3DC811103C081E08093F9
:100860007B00089588EB90E042DC882319F081E05A
:1008700080937C0008958091B6009091B700892BF9
:1008800049F18091DC009091DD000196883B2BE0DE
:1008900092072CF49093DD008093DC001BC088EB62
:1008A0009BE09093DD008093DC006AE070E082E6DC
:1008B00090E095D581E08093E0001092DF001092E7
:1008C000DE008FEF91EE24E0815090402040E1F770
:1008D00000C000008DEA90E00ADC882391F081E0FE
:1008E00090E09093DD008093DC0061E070E082E6B0
:1008F00090E075D581E08093E0001092DF001092C7
:10090000DE008091AB009091AC00892B49F1809181
:10091000DC009091DD000196883B2BE092072CF4DF
:100920009093DD008093DC001BC088EB9BE09093EC
:10093000DD008093DC006AE070E082E690E087D51D
:1009400081E08093E0001092DF001092DE008FEFD4
:1009500091EE24E0815090402040E1F700C000007B
:1009600082EA90E0C4DB882391F081E090E09093EC
:10097000DD008093DC0061E070E082E690E067D506
:1009800081E08093E0001092DF001092DE00089575
:100990008F929F92BF92CF92DF92EF92FF920F932E
:1009A0001F93CF93DF9382E690E012D6882309F459
:1009B000B4C0CDEAD0E00F2EF2EAEF2EF0E0FF2E29
:1009C000F02D0F2EF3ECCF2EF0E0DF2EF02DBB2418
:1009D000B39489859A85892B29F4F70181859285BD
:1009E000892B29F0F60181859285892B29F4809144
:1009F000E100882309F491C0B092E1008EE890E014
:100A00009AD283E990E036D288E990E033D2CE01E1
:100A1000A6DB89859A85892BC1F00F5F1F4F8090D7
:100A2000600090906100081519057CF068EE73E095
:100A300082E690E047D5FFEF20E782E0F1502040CA
:100A40008040E1F700C000008401CE0150DB882324
:100A500099F064E670E082E690E034D58EE890E0AC
:100A600009D29FEFE0E7F2E09150E040F040E1F77B
:100A700000C0000000E010E0C70171DBF7018185D4
:100A80009285892BC1F00F5F1F4F8090600090907E
:100A90006100081519057CF068EE73E082E690E0CD
:100AA00034D5FFEF20E782E0F15020408040E1F7AD
:100AB00000C000008401C7011ADB882399F064E6B6
:100AC00070E082E690E021D58EE890E0D3D19FEFF0
:100AD000E0E7F2E09150E040F040E1F700C00000B4
:100AE00000E010E060917F007091800080918100B3
:100AF000909182008BDDC60132DBC601F8DA898570
:100B00009A85892B09F065CFF60181859285892B1D
:100B100009F05FCF1092E1005CCFDF91CF911F9180
:100B20000F91FF90EF90DF90CF90BF909F908F90AC
:100B300008958F929F92BF92CF92DF92EF92FF9291
:100B40000F931F93CF93DF9382E690E041D58823E4
:100B500009F4B6C0CDEAD0E00F2EF2EAEF2EF0E0B5
:100B6000FF2EF02D0F2EFEECCF2EF0E0DF2EF02D1D
:100B7000BB24B39489859A85892B29F4F701818553
:100B80009285892B29F0F60181859285892B29F49C
:100B90008091E100882309F493C0B092E1008EE8CF
:100BA00090E0C9D183E990E065D188E990E062D115
:100BB000CE01D5DA89859A85892BC1F00F5F1F4F49
:100BC0008090600090906100081519057CF068EE37
:100BD00073E082E690E0B9D4FFEF20E782E0F150C5
:100BE00020408040E1F700C000008401CE017FDAA0
:100BF000882399F064E670E082E690E0A6D48EE85F
:100C000090E038D19FEFE0E7F2E09150E040F04013
:100C1000E1F700C0000000E010E0C701A0DACE015B
:100C20009EDAF70181859285892BC1F00F5F1F4FF6
:100C30008090600090906100081519057CF068EEC6
:100C400073E082E690E0A4D4FFEF20E782E0F15069
:100C500020408040E1F700C000008401C70147DA6E
:100C6000882399F064E670E082E690E091D48EE803
:100C700090E000D19FEFE0E7F2E09150E040F040DB
:100C8000E1F700C0000000E010E060918700709183
:100C900088008091890090918A00B8DCC6015FDAF3
:100CA000C60125DA89859A85892B09F063CFF6017B
:100CB00081859285892B09F05DCF1092E1005ACF92
:100CC000DF91CF911F910F91FF90EF90DF90CF9028
:100CD000BF909F908F90089589ED90E0A0DA8823CF
:100CE00029F0E2E6F0E0108E118E138E89ED90E08F
:100CF00096DA882321F08DE990E0BCD008958DE943
:100D000090E019D1089580917A00811104C08091FA
:100D10007B00882351F08EE890E00DD183E990E0CC
:100D2000A9D088E990E0A6D003C08EE890E0A2D0D8
:100D300080917D00882379F080917A00811107C02D
:100D400080917B00811103C088E990E0F4D083E9B1
:100D500090E090D0089588E990E08CD080917A005E
:100D6000811107C080917B00811103C083E990E06D
:100D7000E2D00895EDDC46DD55DD66DD73DD7BDD1B
:100D800007DED7DEA9DF82E690E0F2D1BCDF5DDCD2
:100D9000F2CFFC0160834183528323832223A1F19C
:100DA0006334A1F0643409F1623409F062C028B3FD
:100DB00081E090E002C0880F991F4A95E2F7922FD8
:100DC000982B98BB97B3892B87BB089525B381E0F7
:100DD00090E002C0880F991F4A95E2F7922F982B56
:100DE00095BB94B3892B84BB089522B381E090E036
:100DF00002C0880F991F4A95E2F7922F982B92BB59
:100E000091B3892B81BB08956334A1F0643411F14F
:100E1000623479F528B381E090E002C0880F991F11
:100E20004A95E2F7982F9095922398BB97B3892B18
:100E300087BB089525B381E090E002C0880F991F19
:100E40004A95E2F7982F9095922395BB94B3892BFE
:100E500084BB089522B381E090E002C0880F991FFF
:100E60004A95E2F7982F9095922392BB91B3892BE4
:100E700081BB0895FC01F8948381882361F180810E
:100E8000833489F08434D9F0823409F051C028B316
:100E900081E090E0018002C0880F991F0A94E2F778
:100EA000822B88BB45C025B381E090E0018002C061
:100EB000880F991F0A94E2F7822B85BB39C022B3B1
:100EC00081E090E0018002C0880F991F0A94E2F748
:100ED000822B82BB2DC08081833489F08434E1F081
:100EE000823431F528B381E090E0018002C0880FA0
:100EF000991F0A94E2F78095822388BB19C025B315
:100F000081E090E0018002C0880F991F0A94E2F707
:100F10008095822385BB0CC022B381E090E00180E4
:100F200002C0880F991F0A94E2F78095822382BB42
:100F3000148278940895FC01F894838181112CC067
:100F40008081833489F08434D9F0823409F051C02F
:100F500028B381E090E0018002C0880F991F0A94B5
:100F6000E2F7822B88BB45C025B381E090E0018089
:100F700002C0880F991F0A94E2F7822B85BB39C003
:100F800022B381E090E0018002C0880F991F0A948B
:100F9000E2F7822B82BB2DC08081833489F08434B8
:100FA000E1F0823431F528B381E090E0018002C0A5
:100FB000880F991F0A94E2F78095822388BB19C095
:100FC00025B381E090E0018002C0880F991F0A9448
:100FD000E2F78095822385BB0CC022B381E090E0CC
:100FE000018002C0880F991F0A94E2F7809582233E
:100FF00082BB81E0848378940895CF93DF93EC01E2
:101000009B01770F440B550B288339834A835B83FD
:1010100068E574E180E090E07DD33BBD2ABD888126
:101020009981AA81BB810197A109B1090497A10502
:10103000B10510F48AE583BD88819981AA81BB81BD
:101040000597A109B1090597A105B10510F484E63A
:1010500083BD88819981AA81BB810A97A109B109C1
:101060000A97A105B10510F482E883BD88819981B2
:10107000AA81BB814497A109B1090A97A105B105CD
:1010800010F486E983BD88819981AA81BB814E973E
:10109000A109B1090A97A105B10510F488EC83BD37
:1010A00088819981AA81BB818897A109B1090A9792
:1010B000A105B10510F488EC83BD88819981AA81CE
:1010C000BB81C297A105B10510F08FEF83BDDF9101
:1010D000CF910895CF92DF92EF92FF92CF93DF935B
:1010E000EC0188E290E0A0E0B0E08C839D83AE83C9
:1010F000BF83C12CD12C7601C394C886D986EA86D9
:10110000FB8686E990E0A0E0B0E08C879D87AE8703
:10111000BF8784E690E0A0E0B0E0888B998BAA8B33
:10112000BB8B80E395E7A0E0B0E08C8B9D8BAE8B12
:10113000BF8B68E270E0CE0160DF88EE93E0A0E054
:10114000B0E08D8F9E8FAF8FB8A38DA39EA3AFA36A
:10115000B8A7C9A2DAA2EBA2FCA281E090E09AA70C
:1011600089A7DF91CF91FF90EF90DF90CF90089506
:101170004F925F926F927F928F929F92AF92BF92A7
:10118000CF92DF92EF92FF92CF93DF9300D000D007
:1011900000D0CDB7DEB79E838D83DC0158968C914D
:1011A0005897882339F059968C915997882311F0D4
:1011B00058961C92ED81FE81828D882381F0838D6B
:1011C0008111F3C0848D811103C081E0848F04C03C
:1011D000AD81BE815C961C92ED81FE81128EAD8147
:1011E000BE8158968C915897882309F45FC0EBED27
:1011F000F5E03197F1F700C000009196CD90DD90B9
:10120000ED90FC909497FFEFCF1ADF0AEF0AFF0AE8
:10121000AD81BE819196CD92DD92ED92FC92949734
:1012200018968D909D90AD90BC901B975D964D90BB
:101230005D906D907C909097FD0184819581A68151
:10124000B7819C01AD01281939094A095B09C70119
:10125000B60151D2A30192015DD2DA01C901880D14
:10126000991DAA1DBB1D0097A105B10539F0ED819F
:10127000FE8180839183A283B38307C0AD81BE8149
:101280008D929D92AD92BC9213974C145D046E04A6
:101290007F0460F481E090E0A0E0B0E0ED81FE81A9
:1012A00081A392A3A3A3B4A3838F108EAD81BE812B
:1012B00059968C915997882309F47CC0EBEDF5E0A1
:1012C0003197F1F700C000009196CD90DD90ED9040
:1012D000FC909497FFEFCF1ADF0AEF0AFF0AAD8167
:1012E000BE819196CD92DD92ED92FC9294971496E8
:1012F0008D909D90AD90BC90179718964D905D90F5
:101300006D907C901B9795968D919D910D90BC91C1
:10131000A02D89839A83AB83BC83A50194012419F2
:10132000350946095709C701B601E5D129813A8136
:101330004B815C81EFD1821A930AA40AB50A39F075
:10134000ED81FE8180829182A282B38207C0AD814D
:10135000BE814D925D926D927C92139789819A81A4
:10136000AB81BC818C159D05AE05BF0518F581E0EC
:1013700090E0A0E0B0E0ED81FE8181A392A3A3A361
:10138000B4A3138E118E828D8823A1F0FFE729EA82
:1013900083E0F15020408040E1F700C0000081E090
:1013A000AD81BE8158968C9305C081E0ED81FE81B0
:1013B000818F15CF26960FB6F894DEBF0FBECDBF36
:1013C000DF91CF91FF90EF90DF90CF90BF90AF90E3
:1013D0009F908F907F906F905F904F900895FC0149
:1013E000CB01770FAA0BBB0B4481558166817781B6
:1013F000840F951FA61FB71F84839583A683B78389
:10140000408551856285738584179507A607B707C0
:1014100020F4448355836683778384859585A685E8
:10142000B785448155816681778184179507A60722
:10143000B70720F484839583A683B783848195813D
:10144000A681B78180839183A283B3830895CF92CD
:10145000DF92EF92FF920F931F93FC01048115819D
:1014600026813781CB01770FAA0BBB0B680179016D
:10147000C81AD90AEA0AFB0A408551856285738534
:101480004C155D056E057F0550F480179107A20786
:10149000B30728F4C482D582E682F78204C044836D
:1014A00055836683778384819581A681B781808304
:1014B0009183A283B3831F910F91FF90EF90DF90F0
:1014C000CF9008950F931F93FC01AB01770F660B2C
:1014D000770B058D168D278D30A1400F511F621F90
:1014E000731F458F568F678F70A384899589A6894E
:1014F000B78984179507A607B70720F4858F968FBD
:10150000A78FB0A31F910F910895FC01858D968D33
:10151000A78DB0A1AB01770F660B770B4817590762
:101520006A077B0748F4841B950BA60BB70B858FC6
:10153000968FA78FB0A3089580899189A289B389D6
:10154000858F968FA78FB0A308950F931F93FC01EB
:10155000AB01770F660B770B05A116A127A130A56C
:10156000400F511F621F731F45A356A367A370A7A7
:1015700084899589A689B78984179507A607B7072F
:1015800020F485A396A3A7A3B0A71F910F91089558
:10159000FC0185A196A1A7A1B0A5AB01770F660BB1
:1015A000770B481759076A077B0748F4841B950B8C
:1015B000A60BB70B85A396A3A7A3B0A70895808910
:1015C0009189A289B38985A396A3A7A3B0A70895FB
:1015D000FC01838D811107C0908D911105C0918D03
:1015E00081E08927089580E00895FC0121A532A5B6
:1015F00023303105B1F03CF42130310561F0223067
:10160000310561F019C02530310589F06CF02630C4
:10161000310581F011C0C498C29A0EC0C198C59A14
:101620000BC0C298C09A08C0C598AA9A05C0C098B5
:10163000C49A02C0AA98C19A21A532A52F5F3F4F34
:10164000273031051CF432A721A7089581E090E0EE
:1016500092A781A70895FC0121A532A52330310569
:10166000C1F03CF421303105D1F022303105A1F038
:1016700018C02530310539F04CF02630310589F499
:10168000C49AC2980EC0C19AC5980BC0C29AC0989D
:1016900008C0C59AAA9805C0C09AC49802C0AA9A60
:1016A000C19821A532A52F5F3F4F273031051CF48B
:1016B00032A721A7089581E090E092A781A708951D
:1016C000FC01238D211103C0208D222341F0FC0158
:1016D000248D211102C089DF0895BDDF0895C098CF
:1016E000C198C298AA98C498C59821E030E0FC013E
:1016F00032A721A70895DB018F939F9349D0BF9113
:10170000AF91A29F800D911DA39F900DB29F900D50
:1017100011240895A1E21A2EAA1BBB1BFD010DC0C6
:10172000AA1FBB1FEE1FFF1FA217B307E407F50791
:1017300020F0A21BB30BE40BF50B661F771F881F6D
:10174000991F1A9469F760957095809590959B0103
:10175000AC01BD01CF010895052E97FB16F400944E
:101760000FD057FD05D0D6DF07FC02D046F408C0E5
:1017700050954095309521953F4F4F4F5F4F0895BD
:1017800090958095709561957F4F8F4F9F4F0895ED
:1017900009D0A59F900DB49F900DA49F800D911D21
:1017A00011240895A29FB001B39FC001A39F01D04F
:1017B000B29F700D811D1124911D0895F894FFCFE3
:0217C000E8033C
:00000001FF
