:100000001DC041C040C03FC03EC03DC077C33BC0E3
:100010003AC039C038C037C036C035C034C033C02C
:1000200032C031C030C003C204C205C206C207C21A
:1000300008C209C20AC20BC20CC2D40611241FBED8
:10004000CFE5D4E0DEBFCDBF10E0A0E6B0E0E2E94E
:10005000F7E102C005900D92A63CB107D9F721E067
:10006000A6ECB0E001C01D92AC3AB207E1F710E097
:10007000CEE1D0E003C02197FE0177DBCD31D1077F
:10008000D1F783D684CBBCCFFC01608341835283FC
:100090008AE090E0948383836334A1F0643411F1A7
:1000A000623479F527B381E090E002C0880F991F90
:1000B0004A95E2F7982F9095922397BB98B3892B96
:1000C00088BB089524B381E090E002C0880F991F97
:1000D0004A95E2F7982F9095922394BB95B3892B7C
:1000E00085BB089521B381E090E002C0880F991F7D
:1000F0004A95E2F7982F9095922391BB92B3892B62
:1001000082BB0895FC0127813085232B21F01086C6
:10011000178281E0089580E00895FC019081933476
:1001200079F09434C1F0923419F526B330E0C90166
:10013000018002C0959587950A94E2F7817015C0F9
:1001400023B330E0C901018002C0959587950A94D8
:10015000E2F781700AC020B330E0C901018002C01B
:10016000959587950A94E2F7817091E08927089523
:1001700080E00895CF93DF93EC01CFDF882389F0EF
:100180008D819E8101969E838D832B813C812817D2
:1001900039079CF43E832D8381E090E09A8789871C
:1001A0000CC01E821D8289859A85892B21F081E0F1
:1001B00090E098878F831A861986DF91CF910895F2
:1001C000FC016083418352836334A1F0643411F1F4
:1001D000623479F527B381E090E002C0880F991F5F
:1001E0004A95E2F7982F9095922397BB98B3892B65
:1001F00088BB089524B381E090E002C0880F991F66
:100200004A95E2F7982F9095922394BB95B3892B4A
:1002100085BB089521B381E090E002C0880F991F4B
:100220004A95E2F7982F9095922391BB92B3892B30
:1002300082BB0895FC019081933479F09434C1F02D
:10024000923419F526B330E0C901018002C09595BA
:1002500087950A94E2F7817015C023B330E0C90195
:10026000018002C0959587950A94E2F781700AC0D3
:1002700020B330E0C901018002C0959587950A94AA
:10028000E2F7817091E08927089580E0089584B3B2
:10029000886384BB85B3877C85BB0895AB9A92E065
:1002A0009A95F1F700C0882314F4AC9A01C0AC9879
:1002B00092E09A95F1F700C0AB9895E09A95F1F726
:1002C0000000AB9A92E09A95F1F700C086FF02C059
:1002D000AC9A01C0AC9892E09A95F1F700C0AB9847
:1002E00095E09A95F1F70000AB9A92E09A95F1F7B4
:1002F00000C085FF02C0AC9A01C0AC9892E09A950C
:10030000F1F700C0AB9895E09A95F1F70000AB9A31
:1003100092E09A95F1F700C084FF02C0AC9A01C048
:10032000AC9892E09A95F1F700C0AB9895E09A9559
:10033000F1F70000AB9A92E09A95F1F700C083FFC5
:1003400002C0AC9A01C0AC9892E09A95F1F700C057
:10035000AB9895E09A95F1F70000AB9A92E09A95E8
:10036000F1F700C082FF02C0AC9A01C0AC9892E0E5
:100370009A95F1F700C0AB9895E09A95F1F70000D7
:10038000AB9A92E09A95F1F700C081FF02C0AC9A57
:1003900001C0AC9892E09A95F1F700C0AB9895E057
:1003A0009A95F1F70000AB9A92E09A95F1F700C0A8
:1003B00080FF02C0AC9A01C0AC9882E08A95F1F748
:1003C00000C0AB9895E09A95F1F70000AB980895BE
:1003D0001F93CF93DF93162FD42FC22FAD98AC98D5
:1003E0005DDF812F5BDF8D2F59DF8C2F57DFAC98BE
:1003F000AD9A8DE08A95F1F70000AD98DF91CF912D
:100400001F910895CF93DF9300D000D0CDB7DEB712
:1004100069837A838B839C8389819A81AB81BC8138
:100420008A309105B8F4FC01ED5EFF4F09942EE788
:1004300011C02CE00FC026EB0DC02EE90BC02CEC38
:1004400009C02AED07C02AEF05C02EE003C02EEF39
:1004500001C02EED822F0F900F900F900F90DF9123
:10046000CF9108953F924F925F926F927F928F92B9
:100470009F92AF92BF92CF92DF92EF92FF920F9333
:100480001F93CF93DF93CDB7DEB728970FB6F894BD
:10049000DEBF0FBECDBF69837A838B839C838A01C5
:1004A00089819A81AB81BC81892B8A2B8B2B49F462
:1004B00060E070E0CB01A6DF20E040E060E088DF94
:1004C00098C069817A818B819C8149805A806B8038
:1004D0007C8089809A80AB80BC8029813A814B8165
:1004E0005C812D833E834F8358870F2EFAE0CF2EF9
:1004F000D12CE12CF12CF02DA701960110D97727F2
:10050000882799277FDF382EC301B201A701960102
:1005100006D9CA01B901A701960101D97727882711
:10052000992770DF782EC501B40124E630E040E061
:1005300050E0F5D8CA01B901A7019601F0D8772794
:10054000882799275FDFB82E6D817E818F819885FE
:1005500028EE33E040E050E0E2D8CA01B901A7013B
:100560009601DDD87727882799274CDF49815A8162
:100570006B817C81483E5340610571050CF480E03D
:1005800049815A816B817C81443651056105710531
:100590000CF4B12C49815A816B817C814A30510520
:1005A000610571051CF401151105E9F00230110512
:1005B00081F024F40130110541F016C0033011051B
:1005C00061F00430110569F00FC0432D4160342EF5
:1005D0000BC0572D5160752E07C09B2D9160B92E11
:1005E00003C0816001C0712C282F4B2D672D832DF6
:1005F000EFDE28960FB6F894DEBF0FBECDBFDF91B9
:10060000CF911F910F91FF90EF90DF90CF90BF900F
:10061000AF909F908F907F906F905F904F903F90A2
:100620000895CF93DF9300D000D0CDB7DEB76983B4
:100630007A838B839C8369817A818B819C8124E678
:1006400030E040E050E06BD8CA01B90141E050E031
:1006500009DF0F900F900F900F90DF91CF910895C9
:100660008091AA01882391F08091A8019091A9011D
:1006700001969093A9018093A8018131974234F0AB
:100680001092AA011092A9011092A80108958091D8
:10069000AB01811127C086EC90E074D781110CC0AA
:1006A0006091C6007091C7008091C8009091C90008
:1006B00040E050E0D7DE08958091AA01882361F0E0
:1006C0006091C6007091C7008091C8009091C900E8
:1006D00040E050E0C7DE089540E050E060E070E0A8
:1006E000CB01C0DE08958EB588608EBD89B780616C
:1006F00089BF8EB584608EBD789408951F920F9245
:100700000FB60F9211242F933F934F935F936F93E4
:100710007F938F939F93AF93BF93EF93FF9386EC59
:1007200090E0AFD76091C6007091C70086EC90E072
:1007300079D4ADDFFF91EF91BF91AF919F918F91F0
:100740007F916F915F914F913F912F910F900FBECD
:100750000F901F901895BB9AC39885B58A6685BD82
:1007600014BC13BC089540E050E063E483EA91E0D8
:1007700027DD40E050E064E488E991E085DC41E079
:1007800050E064E48DE891E07FDC42E050E064E416
:1007900082E891E079DC44E050E064E487E791E0AE
:1007A00073DC43E050E064E48CE691E06DDC20E033
:1007B00041E050E063E487E691E000D321E046E0C9
:1007C00050E062E482E691E0F9D221E047E050E0B7
:1007D00062E48DE591E0F2D221E045E050E064E48E
:1007E00088E591E0EBD286EC90E04ED4B89AB99AC5
:1007F000BA9AA29ABC9ABD9A8F9A49DD74DFABDF90
:100800002FEF80E792E0215080409040E1F700C058
:10081000000087E691E0A4D3089588E991E0AADC7E
:100820008DE891E0A7DC82E891E0A4DC87E791E025
:10083000A1DC8CE691E09EDC08958DE891E062DC1D
:10084000882361F08091E100811108C083EA91E082
:10085000F1DC811103C081E08093DE00089588E916
:1008600091E050DC882341F083EA91E0E3DC8111E0
:1008700003C081E08093DF00089582E891E042DCCC
:10088000882319F081E08093E00008958091800131
:1008900090918101892B49F18091A6019091A70146
:1008A0000196883B2BE092072CF49093A70180934C
:1008B000A6011BC088EB9BE09093A7018093A60143
:1008C0006AE070E086EC90E064D581E08093AA0154
:1008D0001092A9011092A8018FEF91EE24E08150AF
:1008E00090402040E1F700C0000087E791E00ADC7B
:1008F000882391F081E090E09093A7018093A60176
:1009000061E070E086EC90E044D581E08093AA013C
:100910001092A9011092A801809175019091760121
:10092000892B49F18091A6019091A7010196883BFE
:100930002BE092072CF49093A7018093A6011BC093
:1009400088EB9BE09093A7018093A6016AE070E09A
:1009500086EC90E056D581E08093AA011092A9011F
:100960001092A8018FEF91EE24E08150904020403A
:10097000E1F700C000008CE691E0C4DB882391F031
:1009800081E090E09093A7018093A60161E070E080
:1009900086EC90E036D581E08093AA011092A901FF
:1009A0001092A80108958F929F92BF92CF92DF92EA
:1009B000EF92FF920F931F93CF93DF9386EC90E01B
:1009C000E1D5882309F4B4C0C7E7D1E00F2EFCE6D7
:1009D000EF2EF1E0FF2EF02D0F2EFDE8CF2EF1E0EF
:1009E000DF2EF02DBB24B39489859A85892B29F4B9
:1009F000F70181859285892B29F0F6018185928501
:100A0000892B29F48091AB01882309F491C0B0921D
:100A1000AB0188E591E0A4D28DE591E040D282E679
:100A200091E03DD2CE01A6DB89859A85892BC1F064
:100A30000F5F1F4F809060009090610008151905AE
:100A40007CF068EE73E086EC90E016D5FFEF20E7CF
:100A500082E0F15020408040E1F700C000008401B6
:100A6000CE0150DB882399F064E670E086EC90E0DC
:100A700003D588E591E013D29FEFE0E7F2E09150D3
:100A8000E040F040E1F700C0000000E010E0C701E6
:100A900071DBF70181859285892BC1F00F5F1F4FB4
:100AA0008090600090906100081519057CF068EE58
:100AB00073E086EC90E003D5FFEF20E782E0F15091
:100AC00020408040E1F700C000008401C7011ADB2C
:100AD000882399F064E670E086EC90E0F0D488E535
:100AE00091E0DDD19FEFE0E7F2E09150E040F0408F
:100AF000E1F700C0000000E010E06091E3007091B9
:100B0000E4008091E5009091E6008BDDC60132DBC8
:100B1000C601F8DA89859A85892B09F065CFF60137
:100B200081859285892B09F05FCF1092AB015CCF54
:100B3000DF91CF911F910F91FF90EF90DF90CF90B9
:100B4000BF909F908F9008958F929F92BF92CF9267
:100B5000DF92EF92FF920F931F93CF93DF9386EC78
:100B600090E010D5882309F4B6C0C7E7D1E00F2E76
:100B7000FCE6EF2EF1E0FF2EF02D0F2EF8E9CF2E40
:100B8000F1E0DF2EF02DBB24B39489859A85892B63
:100B900029F4F70181859285892B29F0F601818559
:100BA0009285892B29F48091AB01882309F493C0A5
:100BB000B092AB0188E591E0D3D18DE591E06FD1A2
:100BC00082E691E06CD1CE01D5DA89859A85892BB0
:100BD000C1F00F5F1F4F809060009090610008157A
:100BE00019057CF068EE73E086EC90E088D4FFEFA6
:100BF00020E782E0F15020408040E1F700C0000093
:100C00008401CE017FDA882399F064E670E086ECF7
:100C100090E075D488E591E042D19FEFE0E7F2E003
:100C20009150E040F040E1F700C0000000E010E02B
:100C3000C701A0DACE019EDAF70181859285892B62
:100C4000C1F00F5F1F4F8090600090906100081509
:100C500019057CF068EE73E086EC90E073D4FFEF4A
:100C600020E782E0F15020408040E1F700C0000022
:100C70008401C70147DA882399F064E670E086ECC6
:100C800090E060D488E591E00AD19FEFE0E7F2E0E0
:100C90009150E040F040E1F700C0000000E010E0BB
:100CA0006091EB007091EC008091ED009091EE006E
:100CB000B8DCC6015FDAC60125DA89859A85892BF9
:100CC00009F063CFF60181859285892B09F05DCF0C
:100CD0001092AB015ACFDF91CF911F910F91FF90EE
:100CE000EF90DF90CF90BF909F908F90089583EA10
:100CF00091E0A0DA882329F0E6ECF0E0108E118E66
:100D0000138E83EA91E096DA882321F087E691E05A
:100D1000C6D0089587E691E023D108958091DE0042
:100D2000811104C08091DF00882351F088E591E0B3
:100D300017D18DE591E0B3D082E691E0B0D003C049
:100D400088E591E0ACD08091E100882379F0809132
:100D5000DE00811107C08091DF00811103C082E6AF
:100D600091E0FED08DE591E09AD0089582E691E081
:100D700096D08091DE00811107C08091DF00811143
:100D800003C08DE591E0ECD00895EDDC46DD55DD46
:100D900066DD73DD7BDD07DED7DEA9DF86EC90E064
:100DA000C1D1BCDF5DDCF2CF84E6E2E6F0E0A4EF87
:100DB000B0E001900D928A95E1F70895FC016083FF
:100DC0004183528323832223A1F16334A1F064344D
:100DD00009F1623409F062C028B381E090E002C0FA
:100DE000880F991F4A95E2F7922F982B98BB97B3DB
:100DF000892B87BB089525B381E090E002C0880F5E
:100E0000991F4A95E2F7922F982B95BB94B3892BA3
:100E100084BB089522B381E090E002C0880F991F3F
:100E20004A95E2F7922F982B92BB91B3892B81BB05
:100E300008956334A1F0643411F1623479F528B374
:100E400081E090E002C0880F991F4A95E2F7982F41
:100E50009095922398BB97B3892B87BB089525B3B0
:100E600081E090E002C0880F991F4A95E2F7982F21
:100E70009095922395BB94B3892B84BB089522B39C
:100E800081E090E002C0880F991F4A95E2F7982F01
:100E90009095922392BB91B3892B81BB0895FC015D
:100EA000F8948381882361F18081833489F08434CC
:100EB000D9F0823409F051C028B381E090E001807C
:100EC00002C0880F991F0A94E2F7822B88BB45C0A5
:100ED00025B381E090E0018002C0880F991F0A9439
:100EE000E2F7822B85BB39C022B381E090E001801C
:100EF00002C0880F991F0A94E2F7822B82BB2DC093
:100F00008081833489F08434E1F0823431F528B370
:100F100081E090E0018002C0880F991F0A94E2F7F7
:100F20008095822388BB19C025B381E090E00180C1
:100F300002C0880F991F0A94E2F78095822385BB2F
:100F40000CC022B381E090E0018002C0880F991F9D
:100F50000A94E2F78095822382BB148278940895E4
:100F6000FC01F894838181112CC08081833489F045
:100F70008434D9F0823409F051C028B381E090E084
:100F8000018002C0880F991F0A94E2F7822B88BB68
:100F900045C025B381E090E0018002C0880F991F11
:100FA0000A94E2F7822B85BB39C022B381E090E03E
:100FB000018002C0880F991F0A94E2F7822B82BB3E
:100FC0002DC08081833489F08434E1F0823431F59E
:100FD00028B381E090E0018002C0880F991F0A9435
:100FE000E2F78095822388BB19C025B381E090E0A9
:100FF000018002C0880F991F0A94E2F7809582232E
:1010000085BB0CC022B381E090E0018002C0880F54
:10101000991F0A94E2F78095822382BB81E0848342
:1010200078940895CF93DF93EC019B01770F440BE5
:10103000550B288339834A835B8368E574E180E03C
:1010400090E04BD33BBD2ABD88819981AA81BB81A9
:1010500082339105A105B10540F0FE01E057FF4F35
:10106000808191819CA78BA70AC04796880F991F02
:10107000FE01E80FF91F808191819CA78BA78BA5AA
:1010800083BDDF91CF910895CF92DF92EF92FF92CF
:10109000CF93DF93EC0188E290E0A0E0B0E08C8396
:1010A0009D83AE83BF83C12CD12C7601C394C886A7
:1010B000D986EA86FB8686E990E0A0E0B0E08C87DE
:1010C0009D87AE87BF8784E690E0A0E0B0E0888B84
:1010D000998BAA8BBB8B80E395E7A0E0B0E08C8B6B
:1010E0009D8BAE8BBF8B68E270E0CE019BDF88ECFE
:1010F00090E0A0E0B0E08D8F9E8FAF8FB8A38DA35E
:101100009EA3AFA3B8A7C9A2DAA2EBA2FCA281E07A
:1011100090E09AA789A7DF91CF91FF90EF90DF90A1
:10112000CF9008954F925F926F927F928F929F928D
:10113000AF92BF92CF92DF92EF92FF92CF93DF9365
:1011400000D000D000D0CDB7DEB79E838D83DC0108
:1011500058968C915897882339F059968C915997C5
:10116000882311F058961C92ED81FE81828D882390
:1011700081F0838D8111F3C0848D811103C081E0E2
:10118000848F04C0AD81BE815C961C92ED81FE818E
:10119000128EAD81BE8158968C915897882309F4A0
:1011A0005FC0EBEDF5E03197F1F700C000009196DC
:1011B000CD90DD90ED90FC909497FFEFCF1ADF0A71
:1011C000EF0AFF0AAD81BE819196CD92DD92ED923C
:1011D000FC92949718968D909D90AD90BC901B9723
:1011E0005D964D905D906D907C909097FD0184810F
:1011F0009581A681B7819C01AD01281939094A0959
:101200005B09C701B6015AD2A301920166D2DA0185
:10121000C901880D991DAA1DBB1D0097A105B10527
:1012200039F0ED81FE8180839183A283B38307C06F
:10123000AD81BE818D929D92AD92BC9213974C145C
:101240005D046E047F0460F481E090E0A0E0B0E013
:10125000ED81FE8181A392A3A3A3B4A3838F108EFB
:10126000AD81BE8159968C915997882309F47CC031
:10127000EBEDF5E03197F1F700C000009196CD90CD
:10128000DD90ED90FC909497FFEFCF1ADF0AEF0A04
:10129000FF0AAD81BE819196CD92DD92ED92FC92D6
:1012A000949714968D909D90AD90BC90179718963A
:1012B0004D905D906D907C901B9795968D919D9132
:1012C0000D90BC91A02D89839A83AB83BC83A5012B
:1012D00094012419350946095709C701B601EED111
:1012E00029813A814B815C81F8D1821A930AA40A40
:1012F000B50A39F0ED81FE8180829182A282B382AB
:1013000007C0AD81BE814D925D926D927C92139724
:1013100089819A81AB81BC818C159D05AE05BF0585
:1013200018F581E090E0A0E0B0E0ED81FE8181A3BE
:1013300092A3A3A3B4A3138E118E828D8823A1F050
:10134000FFE729EA83E0F15020408040E1F700C048
:10135000000081E0AD81BE8158968C9305C081E08C
:10136000ED81FE81818F15CF26960FB6F894DEBFF2
:101370000FBECDBFDF91CF91FF90EF90DF90CF9068
:10138000BF90AF909F908F907F906F905F904F90A5
:101390000895FC01CB01770FAA0BBB0B448155814B
:1013A00066817781840F951FA61FB71F848395835D
:1013B000A683B78340855185628573858417950719
:1013C000A607B70720F44483558366837783848513
:1013D0009585A685B7854481558166817781841777
:1013E0009507A607B70720F484839583A683B78360
:1013F00084819581A681B78180839183A283B38301
:101400000895CF92DF92EF92FF920F931F93FC010A
:101410000481158126813781CB01770FAA0BBB0B85
:1014200068017901C81AD90AEA0AFB0A4085518580
:10143000628573854C155D056E057F0550F4801738
:101440009107A207B30728F4C482D582E682F78207
:1014500004C0448355836683778384819581A68104
:10146000B78180839183A283B3831F910F91FF90F3
:10147000EF90DF90CF9008950F931F93FC01AB0185
:10148000770F660B770B058D168D278D30A1400FDA
:10149000511F621F731F458F568F678F70A38489FA
:1014A0009589A689B78984179507A607B70720F4F9
:1014B000858F968FA78FB0A31F910F910895FC0180
:1014C000858D968DA78DB0A1AB01770F660B770B3D
:1014D000481759076A077B0748F4841B950BA60B2E
:1014E000B70B858F968FA78FB0A3089580899189B8
:1014F000A289B389858F968FA78FB0A308950F9384
:101500001F93FC01AB01770F660B770B05A116A1AA
:1015100027A130A5400F511F621F731F45A356A37B
:1015200067A370A784899589A689B78984179507C9
:10153000A607B70720F485A396A3A7A3B0A71F917A
:101540000F910895FC0185A196A1A7A1B0A5AB01BB
:10155000770F660B770B481759076A077B0748F424
:10156000841B950BA60BB70B85A396A3A7A3B0A7C7
:10157000089580899189A289B38985A396A3A7A399
:10158000B0A70895FC01838D811107C0908D911142
:1015900005C0918D81E08927089580E00895C09865
:1015A000C198C298AA98C498C5980895FC0121A52D
:1015B00032A523303105B1F03CF42130310561F022
:1015C0002230310561F019C02530310589F06CF009
:1015D0002630310581F011C0C498C29A0EC0C1985E
:1015E000C59A0BC0C298C09A08C0C598AA9A05C0EF
:1015F000C098C49A02C0AA98C19A21A532A52F5FAB
:101600003F4F273031051CF432A721A7089581E010
:1016100090E092A781A70895FC0121A532A523306F
:101620003105C1F03CF421303105D1F022303105D3
:10163000A1F018C02530310539F04CF026303105C5
:1016400089F4C49AC2980EC0C19AC5980BC0C29AB8
:10165000C09808C0C59AAA9805C0C09AC49802C08C
:10166000AA9AC19821A532A52F5F3F4F2730310597
:101670001CF432A721A7089581E090E092A781A7EA
:101680000895CF93DF93EC018B8D811103C0888D7A
:10169000882349F08C8D811103C0CE0187DF0BC0F8
:1016A000CE01BADF08C0CE017ADF81E090E09AA7D0
:1016B00089A71CA61BA6DF91CF910895DB018F930C
:1016C0009F9349D0BF91AF91A29F800D911DA39F81
:1016D000900DB29F900D11240895A1E21A2EAA1B1D
:1016E000BB1BFD010DC0AA1FBB1FEE1FFF1FA217D2
:1016F000B307E407F50720F0A21BB30BE40BF50BCF
:10170000661F771F881F991F1A9469F76095709557
:10171000809590959B01AC01BD01CF010895052EE8
:1017200097FB16F400940FD057FD05D0D6DF07FCC9
:1017300002D046F408C050954095309521953F4F12
:101740004F4F5F4F089590958095709561957F4FAD
:101750008F4F9F4F08950FD0A59F900DB49F900D70
:10176000A49F800D911D11240895EE0FFF1F059079
:10177000F491E02D0994A29FB001B39FC001A39FF3
:1017800001D0B29F700D811D1124911D0895F89410
:10179000FFCFE8030100010001000100010001008A
:1017A0000100010001000100010001000100010031
:1017B0000100010001000100010001000100A00082
:1017C000A200A400A600A800AA00AC00AE00B000D1
:1017D000B200B400B600B800BA00BC00BE00BE0043
:1017E000BE00BE00BE00BE00BE00BE00BE00BE0009
:1017F000BE00BE00BE00FA00FFFFFFFFFFFFFFFFBD
:10180000FFFFFFFFFFFFFFFFFFFFFFFFFFFFFFFFE8
:10181000FFFFFFFFFFFFFFFFFFFFFFFFFFFFFFFFD8
:10182000FFFFFFFFFFFFFFFFFFFFFFFFFFFFFFFFC8
:10183000FFFFFFFFFFFFFFFFFFFFFFFFFFFFFFFFB8
:00000001FF
