S0150000526F746F7241746D65676131362E7372656343
S11300000C942A000C9447000C9447000C9447006D
S11300100C9447000C9447000C9447000C94470040
S11300200C9447000C9447000C9447000C94470030
S11300300C9447000C9447000C9447000C94470020
S11300400C9447000C9447000C9447000C94330123
S11300500C94470011241FBECFE5D4E0DEBFCDBF12
S113006010E0A0E6B0E0E8ECF2E002C005900D92EA
S1130070AC3AB107D9F720E0ACEAB0E001C01D9278
S1130080A43BB207E1F70E9457010C9462010C945F
S113009000008091B0009091B10099233CF0929AB5
S11300A08091B0009091B1009BBD8ABD8091B00059
S11300B09091B10099234CF492988091B000909162
S11300C0B10081509F4F9BBD8ABD08958091AE00C1
S11300D09091AF0099233CF0939A8091AE00909157
S11300E0AF0099BD88BD8091AE009091AF00992377
S11300F04CF493988091AE009091AF0081509F4F43
S113010099BD88BD08958091AC009091AD0099236C
S113011034F0969A8091AC009091AD0083BD8091AB
S1130120AC009091AD0099233CF496988091AC007A
S11301309091AD00815083BD089581B38C6F81BBD4
S113014082B38F7482BB82B38C6482BB089583B7FD
S1130150886083BF89B7826089BF83B7846083BFA7
S1130160789408958FB5826A8FBD8EB58A618EBDED
S11301701DBC1CBC8FEF90E097BD86BD1BBC1ABC98
S113018019BC18BC089585B58A6685BD14BC13BC1A
S113019008958091B2009091B30001969093B300BA
S11301A08093B2008091AA009091AB000196909345
S11301B0AB008093AA008091A8009091A9000196B9
S11301C09093A9008093A8008091B2009091B3000D
S11301D0849724F01092B3001092B2008091AA0088
S11301E09091AB00849724F01092AB001092AA0077
S11301F08091A8009091A900849724F01092A900FE
S11302001092A800E091B200F091B300EE0FFF1F2E
S1130210E05AFF4F808191819093B1008093B000A8
S1130220E091AA00F091AB00EE0FFF1FE05AFF4FE0
S1130230808191819093AF008093AE00E091A800FB
S1130240F091A900EE0FFF1FE05AFF4F80819181CA
S11302509093AD008093AC000E9449000E94660018
S11302600E94830008951F920F920FB60F921124DB
S11302702F933F934F935F936F937F938F939F93AA
S1130280AF93BF93EF93FF930E94C900FF91EF9147
S1130290BF91AF919F918F917F916F915F914F919A
S11302A03F912F910F900FBE0F901F9018950E94B1
S11302B09D000E94A7000E94B2000E94C3008FEF1D
S10B02C08CBFFFCFF894FFCFBF
S11302C800002C0057008000A400C300DD00F000EB
S11302D8FB00FF00FB00F000DD00C300A400800069
S11302E857002C000000D4FFA9FF80FF5CFF3DFFEE
S11302F823FF10FF05FF01FF05FF10FF23FF3DFF4C
S10F03085CFF80FFA9FFD4FF16000C006E
S9030000FC
