S0150000526F746F7241746D65676131362E7372656343
S11300000C942A000C9447000C9447000C9447006D
S11300100C9447000C9447000C9447000C94470040
S11300200C9447000C9447000C9447000C94470030
S11300300C9447000C9447000C9447000C94470020
S11300400C9447000C9447000C9447000C94430113
S11300500C94470011241FBECFE5D4E0DEBFCDBF12
S113006010E0A0E6B0E0E4EEF2E002C005900D92EC
S1130070AC3DB107D9F720E0ACEDB0E001C01D9272
S1130080A43EB207E1F70E9467010C9470010C943E
S113009000008091E0009091E10099233CF0929A55
S11300A08091E0009091E1009BBD8ABD8091E000C9
S11300B09091E10099234CF492988091E000909102
S11300C0E10081509F4F9BBD8ABD08958091DE0061
S11300D09091DF0099233CF0939A8091DE009091F7
S11300E0DF0099BD88BD8091DE009091DF009923E7
S11300F04CF493988091DE009091DF0081509F4FE3
S113010099BD88BD08958091DC009091DD0099230C
S113011034F0969A8091DC009091DD0083BD80914B
S1130120DC009091DD0099233CF496988091DC00EA
S11301309091DD00815083BD089581B38E6F81BBA2
S113014082B38F7482BB82B38E6482BB089583B7FB
S1130150886083BF89B7826089BF83B7856083BFA6
S1130160789484E08CBF08958FB5826A8FBD8EB574
S11301708A618EBD1DBC1CBC8FEF90E097BD86BD0F
S11301801BBC1ABC19BC18BC089585B58A6685BD0C
S113019014BC13BC08958091E2009091E300019691
S11301A09093E3008093E2008091DA009091DB0069
S11301B001969093DB008093DA008091D8009091AF
S11301C0D90001969093D9008093D8008091E200E1
S11301D09091E300CC9724F01092E3001092E20097
S11301E08091DA009091DB00CC9724F01092DB0030
S11301F01092DA008091D8009091D900CC9724F025
S11302001092D9001092D800E091E200F091E3003E
S1130210EE0FFF1FE05AFF4F808191819093E10020
S11302208093E000E091DA00F091DB00EE0FFF1F15
S1130230E05AFF4F808191819093DF008093DE002C
S1130240E091D800F091D900EE0FFF1FE05AFF4F64
S1130250808191819093DD008093DC000E944900AD
S11302600E9466000E9483008091E2009091E30066
S1130270892B09F4919A8091E2009091E3004D97C3
S113028009F4919808951F920F920FB60F921124BA
S11302902F933F934F935F936F937F938F939F938A
S11302A0AF93BF93EF93FF930E94CB00FF91EF9125
S11302B0BF91AF919F918F917F916F915F914F917A
S11302C03F912F910F900FBE0F901F9018950E9491
S11302D09D000E94A7000E94B4000E94C500FFCFA9
S10702E0F894FFCFBC
S11302E400001B0035004F0068007F009600AB003F
S11302F4BD00CE00DD00E900F200F900FE00FF00BD
S1130304FE00F900F300E900DD00CE00BE00AB00FE
S11303149600800068004F0035001B000000E6FFD3
S1130324CBFFB2FF99FF81FF6BFF56FF43FF32FF00
S113033423FF17FF0EFF07FF02FF01FF02FF06FF63
S11303440DFF17FF23FF31FF42FF55FF6AFF80FFB4
S10F035498FFB0FFCAFFE5FF3B00130058
S9030000FC
