:100000000C9443000C946B000C946B000C946B00EC
:100010000C946B000C946B000C946B000C946B00B4
:100020000C946B000C946B000C946B000C94A9085E
:100030000C946B000C946B000C946B000C946B0094
:100040000C946B000C946B000C946B000C946B0084
:100050000C946B000C946B000C946B000C946B0074
:100060000C946B000C946B00000202020402060266
:1000700008020A020C020E021002120214021602F8
:1000800018021A02140A11241FBECFEFD8E0DEBFF7
:10009000CDBF11E0A0E0B1E0E8EBF5E302C00590D0
:1000A0000D92AE33B107D9F727E0AEE3B1E001C05E
:1000B0001D92AF3BB207E1F710E0C3E4D0E004C00B
:1000C0002197FE010E94891AC234D107C9F70E9404
:1000D000F1090C94DA1A0C940000FC01608341834E
:1000E00052838AE090E0948383836334A1F0643484
:1000F00011F1623479F524B181E090E002C0880FFB
:10010000991F4A95E2F7982F9095922394B995B14B
:10011000892B85B9089527B181E090E002C0880F4E
:10012000991F4A95E2F7982F9095922397B998B125
:10013000892B88B908952AB181E090E002C0880F28
:10014000991F4A95E2F7982F909592239AB99BB1FF
:10015000892B8BB90895FC0127813085232B21F051
:100160001086178281E0089580E00895FC01908157
:10017000933479F09434C1F0923419F523B130E01E
:10018000C901018002C0959587950A94E2F78170B4
:1001900015C026B130E0C901018002C09595879550
:1001A0000A94E2F781700AC029B130E0C9010180E8
:1001B00002C0959587950A94E2F7817091E08927AE
:1001C000089580E00895CF93DF93EC010E94B6007C
:1001D000882389F08D819E8101969E838D832B815A
:1001E0003C81281739079CF43E832D8381E090E001
:1001F0009A8789870CC01E821D8289859A85892BE2
:1002000021F081E090E098878F831A861986DF912C
:10021000CF9108958AB18C618AB98BB1837E8BB9F5
:1002200008955A9A882314F45B9A01C05B985A98EF
:100230005A9A86FF02C05B9A01C05B985A985A9AF4
:1002400085FF02C05B9A01C05B985A985A9A84FF56
:1002500002C05B9A01C05B985A985A9A83FF02C009
:100260005B9A01C05B985A985A9A82FF02C05B9AC7
:1002700001C05B985A985A9A81FF02C05B9A01C0EC
:100280005B985A985A9A80FF02C05B9A01C05B98AB
:100290005A985A9808951F93CF93DF93162FD42F0F
:1002A000C22F5C985B980E941101812F0E9411015E
:1002B0008D2F0E9411018C2F0E9411015B985C9A76
:1002C00000C000C000005C98DF91CF911F9108959D
:1002D000EAE7F0E0808187688083ACE7B0E08C914A
:1002E00081648C9380818064808308950F931F9331
:1002F00080917A0086FD6BC06091780070917900E2
:1003000080E090E00E94141922EA35E446E95FE3B8
:100310000E94CB190E94E51860934C0170934D0127
:1003200080934E0190934F01009148011091490133
:1003300020914A0130914B01AB01BC01400F511F8C
:10034000621F731F409348015093490160934A0113
:1003500070934B018091440190914501A091460119
:10036000B09147010196A11DB11D80934401909366
:100370004501A0934601B09347018A3F9105A1052D
:10038000B10501F5CB01BA012CE231E040E050E0CB
:100390000E94481A2093400130934101409342014A
:1003A000509343011092440110924501109246016E
:1003B00010924701109248011092490110924A018F
:1003C00010924B01EAE7F0E08081806480831F9106
:1003D0000F910895CF93DF9300D000D0CDB7DEB753
:1003E00069837A838B839C8389819A81AB81BC8169
:1003F0008E30910500F5FC01EC5CFF4F0C94891ADE
:100400002EE719C02CE017C026EB15C02EE913C04B
:100410002CEC11C02AED0FC02AEF0DC02EE00BC04E
:100420002EEF09C02EED07C02EEE05C022E603C058
:1004300022E701C026ED822F0F900F900F900F90B2
:10044000DF91CF9108952F923F924F925F926F92DA
:100450007F928F929F92AF92BF92CF92DF92EF9254
:10046000FF920F931F93CF93DF93CDB7DEB72897FB
:100470000FB6F894DEBF0FBECDBF69837A838B833E
:100480009C831A01B901330F880B990B0E94EA0172
:10049000082F89819A81AB81BC81892B8A2B8B2B78
:1004A00061F460E070E0CB010E94EA0120E040E0EE
:1004B000682F802F0E944B0199C069817A818B81BE
:1004C0009C8149805A806B807C8089809A80AB8037
:1004D000BC8029813A814B815C812D833E834F838F
:1004E00058870F2EFAE0CF2ED12CE12CF12CF02DD5
:1004F000A70196010E946A1A7727882799270E94E8
:10050000EA01182FC301B201A70196010E946A1ADD
:10051000CA01B901A70196010E946A1A77278827A4
:1005200099270E94EA01782EC501B40124E630E043
:1005300040E050E00E946A1ACA01B901A701960181
:100540000E946A1A7727882799270E94EA01B82E05
:100550006D817E818F81988528EE33E040E050E008
:100560000E946A1ACA01B901A70196010E946A1A7B
:100570007727882799270E94EA0189819A81AB8190
:10058000BC8189819A81AB81BC8184369105A105AA
:10059000B1052CF432E0231631040CF4B12C89811E
:1005A0009A81AB81BC810A97A105B1051CF4211485
:1005B0003104A9F042E02416310449F053E0251635
:1005C000310449F02A94232859F4116009C0272DD9
:1005D0002160722E05C03B2D3160B32E01C0712CFD
:1005E0002B2D472D612F802F0E944B0128960FB68F
:1005F000F894DEBF0FBECDBFDF91CF911F910F9159
:10060000FF90EF90DF90CF90BF90AF909F908F9032
:100610007F906F905F904F903F902F900895CF9371
:10062000DF9300D000D0CDB7DEB769837A838B83A8
:100630009C8369817A818B819C8124E630E040E053
:1006400050E00E946A1ACA01B9012CE030E041E092
:1006500050E00E9423020F900F900F900F90DF91B7
:10066000CF910895CF93DF9300D000D0CDB7DEB700
:1006700069837A838B839C8369817A818B819C8156
:100680002AE030E042E050E00E9423020F900F90F9
:100690000F900F90DF91CF9108958091BC07882330
:1006A00091F08091B6079091B70701969093B707A4
:1006B0008093B607813D974034F01092BC071092AA
:1006C000B7071092B607089520E030E048EC52E4F6
:1006D0006091790170917A0180917B0190917C0108
:1006E0000E94C61918160CF08EC08091BD0790911B
:1006F000BE07892B89F580E591E00E9414128111D3
:100700000FC0609150017091510180915201909100
:1007100053012BE030E040E050E00E9423021CC077
:100720008091BC07882379F060915001709151014C
:1007300080915201909153012BE030E040E050E075
:100740000E94230209C02BE030E040E050E060E06E
:1007500070E0CB010E9423028091BD079091BE07FB
:10076000029771F46091970170919801072E000C27
:10077000880B990B2DE030E040E050E00E9423020E
:100780008091BD079091BE070397A9F56091400144
:10079000709141018091420190914301643671054D
:1007A0008105910578F02AE030E040E050E00E94B9
:1007B000481ACA01B9012AE030E041E050E00E9445
:1007C000230219C0611571058105910551F42AE0D4
:1007D00030E042E050E060E070E0CB010E94230294
:1007E0000AC06E5F7F4F8F4F9F4F2AE030E042E09C
:1007F00050E00E9423021092790110927A01109227
:100800007B0110927C01089589EA97E00E94E30041
:100810008EE997E00E94E30083E997E00E94E300FD
:1008200088E897E00E94E3008DE797E00E94E300EC
:1008300082E797E00E94E30008958EE997E00E9426
:10084000AB00882361F080916C01811108C0809118
:100850006207811104C080E591E00E949814089518
:1008600080916207882341F080E591E00E94F714AF
:100870008BE597E00E946C0F89EA97E00E94AB003D
:10088000882351F080E591E00E941412811104C088
:1008900080E591E00E94D814089583E997E00E94D2
:1008A000AB008823C1F080916D01811109C040E047
:1008B00050E060E070E48CEC90E00E94AF1A08C059
:1008C00040E050E060E87FE38CEC90E00E94AF1ADB
:1008D00081E080936A010895809191079091920739
:1008E000892B91F180913E0190913F0101968C3BC3
:1008F00022E092072CF490933F0180933E0124C0A4
:100900008CEB92E090933F0180933E018091BD0774
:100910009091BE07892B31F46AE070E080E591E0A8
:100920000E94F01081E08093BC078093BB07109277
:10093000B7071092B6078FEB94ED21E081509040FD
:100940002040E1F700C0000088E897E00E94AB007B
:100950008823D9F081E090E090933F0180933E019D
:100960008091BD079091BE07892B31F461E070E062
:1009700080E591E00E94F01081E08093BC078093B5
:10098000BB071092B7071092B60780918607909127
:100990008707892B91F180913E0190913F0101964B
:1009A0008C3B22E092072CF490933F0180933E0110
:1009B00024C08CEB92E090933F0180933E018091A4
:1009C000BD079091BE07892B31F46AE070E080E5A5
:1009D00091E00E94281181E08093BC078093BB07BF
:1009E0001092B7071092B6078FEB94ED21E081507B
:1009F00090402040E1F700C000008DE797E00E94A2
:100A0000AB008823E1F081E090E090933F01809378
:100A10003E018091BD079091BE07892B31F461E0C2
:100A200070E080E591E00E94281181E08093BC078E
:100A30008093BB071092B7071092B60704C080914D
:100A4000BB07882391F0609154017091550180910A
:100A50005601909157010E941419AB01BC018CED15
:100A600090E00E94AF1A1092BB07089583E697E0CA
:100A70000E94EA0E88E697E00E94890E8DE697E0D4
:100A80000E94890E089588E897E00E94E300809113
:100A9000910790919207892BE9F180913E01909105
:100AA0003F01019690933F0180933E012091000108
:100AB00030910101821793076CF130933F0120932D
:100AC0003E018091BD079091BE078B30910561F08A
:100AD0008C30910581F00A97A1F468EE73E080E50F
:100AE00091E00E9463110DC068EE73E080E591E033
:100AF0000E94A61106C06AE070E080E591E00E94C5
:100B0000E9112FE58AEE90E0215080409040E1F716
:100B100000C0000088E897E00E94AB00882389F1BC
:100B200010923F0110923E018091BD079091BE0747
:100B30008B30910561F08C30910581F00A97A1F41A
:100B400064E670E080E591E00E9463110DC064E608
:100B500070E080E591E00E94A61106C061E070E0BF
:100B600080E591E00E94E91183E697E00E94890EFA
:100B70002FE58AEE90E0215080409040E1F700C0E0
:100B8000000008958DE797E00E94E30080918607BA
:100B900090918707892BE9F180913E0190913F0167
:100BA000019690933F0180933E0120910001309186
:100BB0000101821793076CF130933F0120933E01AE
:100BC0008091BD079091BE078B30910561F08C300C
:100BD000910581F00A97A1F468EE73E080E591E059
:100BE0000E9486110DC068EE73E080E591E00E94DE
:100BF000C91106C06AE070E080E591E00E94FF1133
:100C00002FE58AEE90E0215080409040E1F700C04F
:100C100000008DE797E00E94AB00882389F11092D5
:100C20003F0110923E018091BD079091BE078B302D
:100C3000910561F08C30910581F00A97A1F464E68A
:100C400070E080E591E00E9486110DC064E670E0DE
:100C500080E591E00E94C91106C061E070E080E586
:100C600091E00E94FF1183E697E00E94890E2FE534
:100C70008AEE90E0215080409040E1F700C00000F3
:100C800008959F92AF92BF92CF92DF92EF92FF9220
:100C90000F931F93CF93DF9380E591E00E9414128E
:100CA000882309F452C008E817E00F2EFDE7AF2EA5
:100CB000F7E0BF2EF02DCEE9D7E00F2EFAE0CF2ED1
:100CC000D12CF02D0F2EF0E5EF2EF1E0FF2EF02DC0
:100CD00099249394F80181859285892B29F4F50153
:100CE00081859285892B21F089859A85892B31F41C
:100CF0008091BD079091BE070A9739F5D092BE0743
:100D0000C092BD070E9436050E9443050E94C2059D
:100D1000F70165A576A587A590A90E940F0390927B
:100D2000B907CE010E94E300CE010E94AB00F8019A
:100D300081859285892B71F689859A85892B51F653
:100D40001092BE071092BD07C5CF8091B9078823C6
:100D500091F060917D0170917E0180917F01909171
:100D600080010E941419AB01BC0188ED90E00E9443
:100D7000AF1A1092B907DF91CF911F910F91FF9099
:100D8000EF90DF90CF90BF90AF909F9008959F928B
:100D9000AF92BF92CF92DF92EF92FF920F931F9389
:100DA000CF93DF9380E591E00E941412882309F429
:100DB00052C008E817E00F2EFDE7AF2EF7E0BF2E78
:100DC000F02DC9EAD7E00F2EFBE0CF2ED12CF02D6D
:100DD0000F2EF0E5EF2EF1E0FF2EF02D99249394E5
:100DE000F80181859285892B29F4F5018185928509
:100DF000892B21F089859A85892B31F48091BD0753
:100E00009091BE070B9739F5D092BE07C092BD07EF
:100E10000E9436050E9443050E94C205F70161AD9C
:100E200072AD83AD94AD0E940F039092BA07CE01CC
:100E30000E94E300CE010E94AB00F80181859285FB
:100E4000892B71F689859A85892B51F61092BE07F8
:100E50001092BD07C5CF8091BA07882391F06091A9
:100E6000890170918A0180918B0190918C010E947F
:100E70001419AB01BC0184ED90E00E94AF1A1092EE
:100E8000BA07DF91CF911F910F91FF90EF90DF9004
:100E9000CF90BF90AF909F9008959F92AF92BF92D6
:100EA000CF92DF92EF92FF920F931F93CF93DF9336
:100EB00080E591E00E941412882309F454C008E8E8
:100EC00017E00F2EFDE7AF2EF7E0BF2EF02DC2E7A3
:100ED000D7E00F2EFCE0CF2ED12CF02D0F2EF9E90C
:100EE000EF2EF1E0FF2EF02D99249394F8018185E7
:100EF0009285892B29F4F50181859285892B21F032
:100F000089859A85892B31F48091BD079091BE0720
:100F10000C9749F5D092BE07C092BD070E943605D6
:100F20000E9443050E94C205F70160817181072E6E
:100F3000000C880B990B0E9432039092B807CE01E7
:100F40000E94E300CE010E94AB00F80181859285EA
:100F5000892B61F689859A85892B41F61092BE0707
:100F60001092BD07C3CF8091B807882391F060919C
:100F7000990170919A01072E000C880B990B0E9421
:100F80001619AB01BC0180ED90E00E94AF1A1092DF
:100F9000B807DF91CF911F910F91FF90EF90DF90F5
:100FA000CF90BF90AF909F900895EF92FF920F93D4
:100FB0001F93CF93DF9380E591E00E941412882362
:100FC00029F18091A7079091A807892BF9F08091CA
:100FD0007B0790917C07892BC9F0CEE9D7E006C04A
:100FE00080917B0790917C07892B81F080E591E0CF
:100FF0000E94FD1482E797E00E94E30082E797E0F9
:101000000E94AB0089859A85892B51F780917001E8
:10101000882339F180E591E00E941412882309F1B8
:101020001092700140E050E060E87FE388EC90E0CF
:101030000E94AF1A01ED11E0C0E0D0E00F2EF9E9F7
:10104000EF2EF2E0FF2EF02DF801419151916191C8
:1010500071918F01CE010E94AF1A24960E151F05C3
:1010600099F7DF91CF911F910F91FF90EF90089525
:1010700082E797E00E94AB008823F1F08091BD07E2
:101080009091BE078230910561F08330910581F027
:10109000892B91F483E090E09093BE078093BD0785
:1010A000089583E090E09093BE078093BD07089574
:1010B0001092BE071092BD070895809168018111BA
:1010C00004C080916901882369F083E697E00E945B
:1010D000EA0E88E697E00E94890E8DE697E00E946E
:1010E000890E04C083E697E00E94890E80916C010E
:1010F0008823F1F08091680181112AC080916901F3
:10110000811126C080916D01882369F08DE697E0FA
:101110000E94EA0E83E697E00E94EA0E88E697E0D6
:101120000E94EA0E08958DE697E00E94EA0E089567
:101130008DE697E00E94890E80916801811108C0B8
:1011400080916901811104C088E697E00E94EA0E4F
:1011500008951F920F920FB60F9211242F933F9371
:101160004F935F936F937F938F939F93AF93BF93AF
:10117000EF93FF9380916B01882329F080E591E044
:101180000E94EA1304C080E591E00E94DC12FF9106
:10119000EF91BF91AF919F918F917F916F915F91EF
:1011A0004F913F912F910F900FBE0F901F90189568
:1011B000EF92FF920F931F93CF93DF9341E050E0A4
:1011C00064E482E797E00E946D0040E050E063E451
:1011D00089EA97E00E946D0042E050E063E48EE906
:1011E00097E00E946D0043E050E063E483E997E0FC
:1011F0000E946D0045E050E063E488E897E00E94BB
:101200006D0044E050E063E48DE797E00E946D00DC
:1012100021E045E050E062E48DE697E00E94180E80
:1012200021E044E050E062E488E697E00E94180E76
:1012300021E047E050E064E483E697E00E94180E66
:101240008BE597E00E944C0F0E9468010E940A0102
:1012500080E591E00E948E108CED90E00E94A91A2A
:101260000E94DE187093B5076093B4079B0121506C
:1012700031092539310560F4CB01770FAA0BBB0B7F
:101280008093540190935501A0935601B093570158
:1012900084ED90E00E94A91A0E94DE187093B507B1
:1012A0006093B4079B01215031092F32354760F418
:1012B000CB01770FAA0BBB0B8093890190938A0116
:1012C000A0938B01B0938C0188ED90E00E94A91A45
:1012D0000E94DE187093B5076093B4079B012150FC
:1012E00031092F32354760F4CB01770FAA0BBB0BC6
:1012F00080937D0190937E01A0937F01B093800144
:1013000080ED90E00E94A91A0E94DE187093B50744
:101310006093B4079B01215031092B3D354020F4E7
:1013200070939A01609399018CEC90E00E94A91A45
:101330000E94DE187093B5076093B40761307105A1
:1013400019F410926D0106C06230710539F581E023
:1013500080936D0188EC90E00E94A91A0E94DE182B
:101360007093B5076093B4076130710521F500E013
:1013700010E0C1EDD1E00F2EF9E9EF2EF2E0FF2EE3
:10138000F02DC8010E94A91A6993799389939993C2
:101390000C5F1F4FCE15DF05A1F70DC088EC90E064
:1013A0000E94A91A0E94DE187093B5076093B407D3
:1013B00061307105E1F2DF91CF911F910F91FF90A4
:1013C000EF9008950E947601609140017091410173
:1013D00070939C0160939B018BE597E00E945C0FEA
:1013E00008950E94D8080E9404040E94E2090E9405
:1013F0001D040E9430040E944D040E946C040E944F
:1014000041060E94C7060E944D070E94D5070E9410
:1014100038080E945D0880E591E00E946E160E94E7
:101420004D030E946403DFCF80E3E2E0F1E0A1EA34
:10143000B1E001900D928A95E1F7E1EDF1E088ECE1
:10144000DF011D928A95E9F78DEC9CECACE4BFE3DB
:1014500080839183A283B3838093D5019093D60137
:10146000A093D701B093D8018093D9019093DA016A
:10147000A093DB01B093DC018093DD019093DE014A
:10148000A093DF01B093E0018093E1019093E2012A
:10149000A093E301B093E4018093E5019093E6010A
:1014A000A093E701B093E8018093E9019093EA01EA
:1014B000A093EB01B093EC018093ED019093EE01CA
:1014C000A093EF01B093F0018093F1019093F201AA
:1014D000A093F301B093F40180E090E0A0E8BFE3B3
:1014E0008093F5019093F601A093F701B093F80172
:1014F0008093F9019093FA01A093FB01B093FC0152
:101500008093FD019093FE01A093FF01B093000230
:101510008093010290930202A0930302B09304020D
:101520008093050290930602A0930702B0930802ED
:101530008093090290930A02A0930B02B0930C02CD
:1015400080930D0290930E02A0930F02B0931002AD
:101550008093110290931202A0931302B09314028D
:101560008093150290931602A0931702B09318026D
:101570008093190290931A02A0931B02B0931C024D
:1015800080931D0290931E02A0931F02B09320022D
:101590008093210290932202A0932302B09324020D
:1015A0008093250290932602A0932702B0932802ED
:1015B0008093290290932A02A0932B02B0932C02CD
:1015C00080932D0290932E02A0932F02B0933002AD
:1015D0008093310290933202A0933302B09334028D
:1015E0008093350290933602A0933702B09338026D
:1015F0008093390290933A02A0933B02B0933C024D
:1016000080933D0290933E02A0933F02B09340022C
:101610008093410290934202A0934302B09344020C
:101620008093450290934602A0934702B0934802EC
:101630008093490290934A02A0934B02B0934C02CC
:1016400080934D0290934E02A0934F02B0935002AC
:101650008093510290935202A0935302B09354028C
:101660008093550290935602A0935702B09358026C
:101670008093590290935A02A0935B02B0935C024C
:1016800080935D0290935E02A0935F02B09360022C
:101690008093610290936202A0936302B09364020C
:1016A0008093650290936602A0936702B0936802EC
:1016B0008093690290936A02A0936B02B0936C02CC
:1016C00080936D0290936E02A0936F02B0937002AC
:1016D0008093710290937202A0937302B09374028C
:1016E0008093750290937602A0937702B09378026C
:1016F0008093790290937A02A0937B02B0937C024C
:1017000080937D0290937E02A0937F02B09380022B
:101710008093810290938202A0938302B09384020B
:101720008093850290938602A0938702B0938802EB
:101730008093890290938A02A0938B02B0938C02CB
:1017400080938D0290938E02A0938F02B0939002AB
:101750008093910290939202A0939302B09394028B
:101760008CE0E2E3F1E0A9E9B2E001900D928A9504
:10177000E1F7EDEFF4E088E592E0DF019C011D92D6
:1017800021503040E1F78CEE91E5A5E0B2E4808392
:101790009183A283B3838EEA97E4A5E8B1E48093B2
:1017A000010590930205A0930305B09304058FE80B
:1017B00092ECA1E3B1E48093050590930605A09314
:1017C0000705B09308058EEA97E4A5E0B1E480939D
:1017D000090590930A05A0930B05B0930C0588EBBF
:1017E0009EE1A5EDB0E480930D0590930E05A093C6
:1017F0000F05B09310058AE999E9A1EBB0E4809355
:10180000110590931205A0931305B09314058CEE67
:1018100091E5A8E9B0E48093150590931605A0938F
:101820001705B093180588EB9EE1A5E8B0E4809316
:10183000190590931A05A0931B05B0931C058DEC18
:101840009CECACE6B0E480931D0590931E05A0933C
:101850001F05B093200588EB9EE1A5E5B0E48093D9
:10186000210590932205A0932305B093240585E8D4
:101870009BEEA1E4B0E48093250590932605A09308
:101880002705B09328058EEA97E4A1E3B0E480939E
:10189000290590932A05A0932B05B0932C058AE087
:1018A00097EDA3E2B0E480932D0590932E05A093CD
:1018B0002F05B09330058CEE91E5A8E1B0E480935C
:1018C000310590933205A0933305B09334058BE72F
:1018D00094E1AEE0B0E48093350590933605A09393
:1018E0003705B093380588EB9EE1A5E0B0E480931E
:1018F000390590933A05A0933B05B0933C0588E4E5
:1019000091EEAAEFBFE380933D0590933E05A0932F
:101910003F05B09340058DEC9CECACEEBFE38093AB
:10192000410590934205A0934305B093440580E0A0
:1019300090E0A0EEBFE38093450590934605A09309
:101940004705B093480581EE9AE7A4EDBFE3809385
:10195000490590934A05A0934B05B0934C0581E748
:101960009DE3AAECBFE380934D0590934E05A093B1
:101970004F05B09350058EEA97E4A1ECBFE3809346
:10198000510590935205A0935305B09354058CEEE6
:1019900091E5A8EBBFE38093550590935605A0937E
:1019A0005705B093580587ED93EAA0EBBFE380930A
:1019B000590590935A05A0935B05B0935C0581E7A8
:1019C0009DE3AAEABFE380935D0590935E05A09333
:1019D0005F05B09360058AE097EDA3EABFE38093CB
:1019E000610590936205A0936305B093640584EA52
:1019F00090E7ADE9BFE38093650590936605A093FA
:101A00006705B09368058CEE91E5A8E9BFE3809384
:101A1000690590936A05A0936B05B0936C0585E802
:101A20009BEEA1E9BFE380936D0590936E05A093B3
:101A30006F05B09370058BE794E1AEE8BFE3809348
:101A4000710590937205A0937305B093740583ECB0
:101A500095EFA8E8BFE38093750590937605A09372
:101A60007705B093780588EB9EE1A5E8BFE3809306
:101A7000790590937A05A0937B05B0937C058EEA57
:101A800097E4A1E8BFE380937D0590937E05A09342
:101A90007F05B093800588E491EEAAE7BFE38093C9
:101AA000810590938205A0938305B093840583E319
:101AB00093E3A3E7BFE38093850590938605A09306
:101AC0008705B09388058FE195E8ABE6BFE3809387
:101AD000890590938A05A0938B05B0938C0586E6C3
:101AE00096E6A6E6BFE380938D0590938E05A093BE
:101AF0008F05B09390058AE999E9A9E5BFE3809342
:101B0000910590939205A0939305B093940581EE6F
:101B10009AE7A4E5BFE38093950590939605A0937B
:101B20009705B093980589E29CE5AFE4BFE3809305
:101B3000990590939A05A0939B05B0939C0581E726
:101B40009DE3AAE4BFE380939D0590939E05A09337
:101B50009F05B093A00584E19EEAA7E4BFE38093CC
:101B6000A1059093A205A093A305B093A4058CE5CD
:101B70009FE8A2E4BFE38093A5059093A605A093F8
:101B8000A705B093A80584EA90E7ADE3BFE380938F
:101B9000A9059093AA05A093AB05B093AC0588E482
:101BA00091EEAAE3BFE38093AD059093AE05A093B9
:101BB000AF05B093B0058FE892ECA5E3BFE3809347
:101BC000B1059093B205A093B305B093B40587ED2A
:101BD00093EAA0E3BFE38093B5059093B605A09385
:101BE000B705B093B8058BE794E1AEE2BFE380930D
:101BF000B9059093BA05A093BB05B093BC058FE1DE
:101C000095E8ABE2BFE38093BD059093BE05A0933A
:101C1000BF05B093C00586E696E6A6E2BFE38093D3
:101C2000C1059093C205A093C305B093C405089560
:101C3000FC0160834183528323832223A1F1633417
:101C4000A1F0643409F1623409F062C025B181E089
:101C500090E002C0880F991F4A95E2F7922F982BC7
:101C600095B994B1892B84B9089528B181E090E0A9
:101C700002C0880F991F4A95E2F7922F982B98B9C6
:101C800097B1892B87B908952BB181E090E002C00C
:101C9000880F991F4A95E2F7922F982B9BB99AB11A
:101CA000892B8AB908956334A1F0643411F1623448
:101CB00079F525B181E090E002C0880F991F4A951F
:101CC000E2F7982F9095922395B994B1892B84B916
:101CD000089528B181E090E002C0880F991F4A95CD
:101CE000E2F7982F9095922398B997B1892B87B9ED
:101CF00008952BB181E090E002C0880F991F4A95AA
:101D0000E2F7982F909592239BB99AB1892B8AB9C3
:101D10000895FC01F8948381882361F180818334E4
:101D200089F08434D9F0823409F051C025B181E0C2
:101D300090E0018002C0880F991F0A94E2F7822B7D
:101D400085B945C028B181E090E0018002C0880FCC
:101D5000991F0A94E2F7822B88B939C02BB181E030
:101D600090E0018002C0880F991F0A94E2F7822B4D
:101D70008BB92DC08081833489F08434E1F08234C2
:101D800031F525B181E090E0018002C0880F991FF4
:101D90000A94E2F78095822385B919C028B181E0C1
:101DA00090E0018002C0880F991F0A94E2F78095A5
:101DB000822388B90CC02BB181E090E0018002C081
:101DC000880F991F0A94E2F7809582238BB91482B9
:101DD00078940895FC01F894838181112CC080814E
:101DE000833489F08434D9F0823409F051C025B1AC
:101DF00081E090E0018002C0880F991F0A94E2F709
:101E0000822B85B945C028B181E090E0018002C0F5
:101E1000880F991F0A94E2F7822B88B939C02BB139
:101E200081E090E0018002C0880F991F0A94E2F7D8
:101E3000822B8BB92DC08081833489F08434E1F00A
:101E4000823431F525B181E090E0018002C0880F35
:101E5000991F0A94E2F78095822385B919C028B1A9
:101E600081E090E0018002C0880F991F0A94E2F798
:101E70008095822388B90CC02BB181E090E001806D
:101E800002C0880F991F0A94E2F7809582238BB9CC
:101E900081E0848378940895CF93DF93EC0120E070
:101EA00040E050E064E40E94180E8AEF90E09E83C8
:101EB0008D83DF91CF910895CF93DF93FC0125812E
:101EC0003681621773072CF0EC010E94890E81E0C5
:101ED0008F83DF91CF910895FC0117820E94EA0E53
:101EE000089584B18F6684B98AB181668AB985B153
:101EF000876085B9089584B5806A84BD85B58160A1
:101F000085BD17BC18BC0895E1E8F0E080818860C9
:101F10008083AFE6B0E08C9182608C938081816099
:101F2000808378940895E0EBF0E08081806880837E
:101F3000E1EBF0E08081816080831092B20010922A
:101F4000B300089584B5836084BDE0EBF0E0808148
:101F500083608083089584B58D7F84BD84B58E7F32
:101F600084BDE0EBF0E080818D7F808380818E7F77
:101F7000808308954F925F926F927F92AF92BF924B
:101F8000CF92DF92EF92FF920F931F93CF93DF9345
:101F9000FC01EB5AFE4F2FEF3FEF318320835C01B2
:101FA00029EAA21A2EEFB20A8C010D571D4FEC013F
:101FB000CF54DC4FC12CD12C76016894C1F80F2E80
:101FC000F5E84F2EF5E45F2E66246394712CF02D16
:101FD000C301B201A70196010E946A1AF50121937B
:101FE00031935F016AE07BE882E090E0A70196010F
:101FF0000E946A1AF801219331938F01F2E3CF1600
:10200000D104A4F4B6010D2C000C880B990B0E948E
:1020100016199B01AC0167ED73EA86E292E40E9417
:102020006C18688379838A839B8313C0B6010D2C57
:10203000000C880B990B0E9416199B01AC0166EFEE
:1020400078EA86EA92E40E946C18688379838A832E
:102050009B832FEFC21AD20AE20AF20A249687E97A
:10206000C816D104E104F10409F0B2CFDF91CF9199
:102070001F910F91FF90EF90DF90CF90BF90AF90A6
:102080007F906F905F904F900895FC01AB01770FA8
:10209000660B770B4083518362837383838D882320
:1020A00091F04150510961097109440F551F4E0FBC
:1020B0005F1FDA01AF57BD4F8D919C9190938900BE
:1020C0008093880011C04150510961097109440F82
:1020D000551F4E0F5F1FDA01AB5ABE4F8D919C9179
:1020E000909389008093880080819181A281B3813F
:1020F0000197A109B109880F991F880F991F8E0FA9
:102100009F1FDC01A355BC4F8D919D910D90BC91FB
:10211000A02D85A396A3A7A3B0A70895CF92DF9281
:10212000EF92FF92CF93DF93EC010E94BA0F0E94CF
:10213000710F0E947B0F0E94840F0E94930F85E015
:1021400090E0A0E0B0E08C839D83AE83BF83C12C80
:10215000D12C7601C394C886D986EA86FB8686E9A7
:1021600090E0A0E0B0E08C879D87AE87BF878CE3CE
:1021700090E0A0E0B0E0888B998BAA8BBB8B80E3CA
:1021800095E7A0E0B0E08C8B9D8BAE8BBF8B61E0C0
:1021900070E0CE010E94451088EE93E0A0E0B0E030
:1021A0008DA79EA7AFA7B8AB89AF9AAFABAFBCAFB7
:1021B000C9AADAAAEBAAFCAAFE01EB5BFF4F81E0F9
:1021C00090E091838083C75BDF4F8EE190E099833D
:1021D0008883DF91CF91FF90EF90DF90CF900895AB
:1021E000FC01CB01770FAA0BBB0B448155816681A3
:1021F0007781840F951FA61FB71F84839583A683BD
:10220000B783408551856285738584179507A60736
:10221000B70720F444835583668377838485958547
:10222000A685B78544815581668177818417950796
:10223000A607B70720F484839583A683B783848198
:102240009581A681B78180839183A283B38308950A
:10225000CF92DF92EF92FF920F931F93FC010481C4
:10226000158126813781CB01770FAA0BBB0B680143
:102270007901C81AD90AEA0AFB0A408551856285A4
:1022800073854C155D056E057F0550F48017910729
:10229000A207B30728F4C482D582E682F78204C07D
:1022A000448355836683778384819581A681B78132
:1022B00080839183A283B3831F910F91FF90EF904E
:1022C000DF90CF9008950F931F93FC01AB01770F20
:1022D000660B770B05A516A527A530A9400F511F42
:1022E000621F731F45A756A767A770AB848995899E
:1022F000A689B78984179507A607B70720F485A78D
:1023000096A7A7A7B0AB1F910F910895FC0185A5D3
:1023100096A5A7A5B0A9AB01770F660B770B481759
:1023200059076A077B0748F4841B950BA60BB70B6C
:1023300085A796A7A7A7B0AB089580899189A289A0
:10234000B38985A796A7A7A7B0AB08950F931F934E
:10235000FC01AB01770F660B770B01AD12AD23AD1E
:1023600034AD400F511F621F731F41AF52AF63AFB7
:1023700074AF84899589A689B78984179507A607BC
:10238000B70720F481AF92AFA3AFB4AF1F910F9105
:102390000895FC0181AD92ADA3ADB4ADAB01770F53
:1023A000660B770B481759076A077B0748F4841BAD
:1023B000950BA60BB70B81AF92AFA3AFB4AF089547
:1023C00080899189A289B38981AF92AFA3AFB4AF5D
:1023D0000895FC01E75BFF4F20813181620F731F7D
:1023E000693E23E072071CF4718360830895FC0149
:1023F000E75BFF4F20E137E2318320830895FC0142
:10240000E75BFF4F20813181621773072CF4261B95
:10241000370B318320830895FC01E75BFF4F21E0F8
:1024200030E0318320830895FC01848D811107C041
:10243000908D911105C0918D81E08927089580E0EC
:1024400008950F931F93CF93DF93EB01FC0140811D
:102450005181628173814150510961097109440FB1
:10246000551F440F551F480F591F8A010F571F4F03
:10247000FE01EE0FFF1F8E0F9F1FFC01EF5AFF4F53
:1024800060817181072E000C880B990B0E94161930
:10249000F80120813181428153810E94CB190E9431
:1024A000E51867BDCD30D10508F428982D972B97F6
:1024B00008F4289ADF91CF911F910F9108950F93FF
:1024C0001F93CF93DF93EB01FC0140815181628127
:1024D00073814150510961097109440F551F440F1F
:1024E000551F480F591F8A010F571F4FFE01EE0F4E
:1024F000FF1F8E0F9F1FFC01EF5AFF4F60817181FC
:10250000072E000C880B990B0E941619F8012081E8
:102510003181428153810E94CB190E94E51868BD28
:10252000CD30D10508F429982D972B9708F4299AD6
:10253000DF91CF911F910F9108950F931F93CF9328
:10254000DF93EB01FC014081518162817381415035
:10255000510961097109440F551F440F551F480F58
:10256000591F8A010F571F4FFE01EE0FFF1F8E0FDD
:102570009F1FFC01EF5AFF4F60817181072E000CF5
:10258000880B990B0E941619F80120813181428134
:1025900053810E94CB190E94E5186093B300CD309F
:1025A000D10508F42A982D972B9708F42A9ADF91E1
:1025B000CF911F910F910895CF93DF93EC018C8DF4
:1025C000811104C0888D882309F484C0FE01EB5F6B
:1025D000F94F80819181019691838083DE01A95F0B
:1025E000B94F8D919C911197019611969C938E9362
:1025F00012968D919C911197019611969C938E93B2
:1026000080819181489714F011821082FE01E95F68
:10261000F94F80819181489714F011821082FE0158
:10262000E75FF94F80819181489714F01182108201
:10263000FE01EB5FF94F60817181CE010E94211292
:102640008D8D811109C0FE01E95FF94F60817181B3
:10265000CE010E945F1208C0FE01E75FF94F608162
:102660007181CE010E945F128D8D811109C0FE0122
:10267000E75FF94F60817181CE010E949D1208C011
:10268000FE01E95FF94F60817181CE010E949D12C8
:102690002DA13EA14FA158A569A17AA18BA19CA112
:1026A0000E94FB1769A37AA38BA39CA3FE01EB5F97
:1026B000F94F80819181892B41F488819981AA8188
:1026C000BB81C297A105B105A0F468817981CE01D3
:1026D0000E9445102DA13EA14FA158A569A57AA53C
:1026E0008BA59CA50E94FB1769A77AA78BA79CA71F
:1026F0000FC081E08B8F83E090E0FE01E95FF94F2E
:102700009183808387E090E0329691838083DDCF50
:10271000DF91CF9108956630710550F42898DB0160
:10272000AA0FBB1FA80FB91FA75BBE4F2C9127BDD7
:102730009B01265031092630310558F4289AB901F9
:10274000660F771FFC01E60FF71FE75BFE4F8081E6
:1027500087BD08956630710550F42998DB01AA0FF2
:10276000BB1FA80FB91FA75BBE4F2C9128BD9B01B3
:10277000265031092630310558F4299AB901660FDF
:10278000771FFC01E60FF71FE75BFE4F808188BDD6
:1027900008956630710558F42A98DB01AA0FBB1F13
:1027A000A80FB91FA75BBE4F2C912093B3009B01CC
:1027B000265031092630310560F42A9AB901660F96
:1027C000771FFC01E60FF71FE75BFE4F80818093C8
:1027D000B3000895CF93DF93EC018C8D811104C079
:1027E000888D882309F484C0FE01EB5FF94F808156
:1027F0009181019691838083DE01A95FB94F8D910C
:102800009C911197019611969C938E9312968D919F
:102810009C911197019611969C938E938081918142
:102820000C9714F011821082FE01E95FF94F80814C
:1028300091810C9714F011821082FE01E75FF94F2D
:10284000808191810C9714F011821082FE01EB5F60
:10285000F94F60817181CE010E948B138D8D8111A2
:1028600009C0FE01E95FF94F60817181CE010E94CC
:10287000AA1308C0FE01E75FF94F60817181CE01A4
:102880000E94AA138D8D811109C0FE01E75FF94FE7
:1028900060817181CE010E94C91308C0FE01E95F09
:1028A000F94F60817181CE010E94C9132DA13EA113
:1028B0004FA158A569A17AA18BA19CA10E94FB17E9
:1028C00069A37AA38BA39CA3FE01EB5FF94F8081E0
:1028D0009181892B41F488819981AA81BB81C2971A
:1028E000A105B105A0F068817981CE010E94451053
:1028F0002DA13EA14FA158A569A57AA58BA59CA5A0
:102900000E94FB1769A77AA78BA79CA70EC01B8EF6
:1029100087E090E0FE01E95FF94F918380838FE0CB
:1029200090E0329691838083DECFDF91CF9108953E
:10293000EF92FF920F931F93CF93DF93EC01FC0173
:10294000EB5FF94F118210827C0189EFE81AF80AD7
:1029500087E090E0D70111969C938E938E01075FDC
:10296000194F8FE090E0D80111969C938E9360816F
:102970007181CE010E942112F70160817181CE0127
:102980000E945F12D8016D917C91CE010E949D1230
:10299000CE010E94A20F81E0888F19A21AA21BA269
:1029A0001CA2DF91CF911F910F91FF90EF9008959E
:1029B000FC0111A212A213A214A221E0218F0895FA
:1029C000CF93DF93EC0160E070E00E94211260E0A1
:1029D00070E0CE010E945F1260E070E0CE010E94C4
:1029E0009D12CE010E94AB0FDF91CF910895FC01A3
:1029F000148E118E0E94E0140895CF93DF93EC01A2
:102A000081E090E0A0E0B0E08C839D83AE83BF8343
:102A1000CE010E94981481E08F8FFE01EF57FF4F87
:102A2000CE01875B9E4F40E050E060E07FE3419342
:102A3000519361937193E817F907C9F7DF91CF912B
:102A400008954F925F926F927F928F929F92AF9272
:102A5000BF92CF92DF92EF92FF920F931F93CF938B
:102A6000DF9300D000D000D0CDB7DEB79A83898342
:102A7000FC01E35BFF4F208131812F5F3F4F3183AA
:102A800020833C97DC01A55BBF4F6D917C91CB010E
:102A9000770FAA0BBB0B40815181628173817C014E
:102AA0008D01E40EF51E061F171FC801B701E08255
:102AB000F18202831383223331050CF4F8C00981BB
:102AC0001A811E830D8322E330E040E050E00E9433
:102AD000481A69017A01F801E15BFF4F31832083D5
:102AE0003E9710821182128213823C9611821082CC
:102AF000349700811181C8010297281739070CF01B
:102B000086C0AD81BE818D909D90AD90BC90B2E3AA
:102B10008B169104A104B10408F079C02401350199
:102B2000E1E04E1A510861087108F201EE0FFF1F33
:102B3000EE0FFF1F2D813E81E20FF31FEF57FF4F76
:102B400080819181A281B38189839A83AB83BC8385
:102B500020E030E040E85FE3BC01CD010E9467184F
:102B600088230CF054C0B8016C197D09072E000CA5
:102B7000880B990B0E941619AFE08A169104A104E4
:102B8000B10438F420E030E44CE156E40E946C18C3
:102B900006C020E030E04AE754E40E946C18298126
:102BA0003A814B815C810E94FB176B017C0120E024
:102BB00030E040E85FE30E94C619181694F0C201A5
:102BC000880F991F880F991F0D811E81080F191FEB
:102BD0000F571F4FD801CD92DD92ED92FC921397C3
:102BE00066C0C201880F991F880F991FED80FE8073
:102BF000E80EF91E87010F571F4F80E090E0A0E814
:102C0000BFE3F80180839183A283B38350C0ED8139
:102C1000FE8180819181A281B38182339105A105DA
:102C2000B10589F4178E11A212A213A214A281E099
:102C3000818F42E350E060E070E044835583668317
:102C4000778380A334C0ED81FE8111A212A213A26A
:102C500014A2AC01BD014F5F5F4F6F4F7F4F4083A8
:102C60005183628373838C01000F111F000F111FAA
:102C70000E0F1F1F0F571F4F0197A109B109880F92
:102C8000991F880F991FE80FF91FEF57FF4F2DEC81
:102C90003CEC4CE45DE360817181828193810E9410
:102CA000FA17D8016D937D938D939C931397269675
:102CB0000FB6F894DEBF0FBECDBFDF91CF911F914D
:102CC0000F91FF90EF90DF90CF90BF90AF909F90CB
:102CD0008F907F906F905F904F9008954F925F928A
:102CE0006F927F928F929F92AF92BF92CF92DF921C
:102CF000EF92FF92CF93DF9300D000D000D0CDB7FA
:102D0000DEB79E838D83DC0158968C91589788237B
:102D100039F059968C915997882311F058961C9246
:102D2000ED81FE81828D8823E1F0848D811147C180
:102D3000858D811103C081E0858F04C0AD81BE8186
:102D40005D961C92ED81FE81128E0BC0AD81BE811D
:102D500091961D921D921D921C92949781E0599616
:102D60008C93ED81FE81808D882309F46BC061A175
:102D700072A183A194A10E94E5186B017C01AD8131
:102D8000BE81D1966D937D938D939C93D497149629
:102D90004D905D906D907C90179718968D909D90BA
:102DA000AD90BC901B979D968D919D910D90BC917F
:102DB000A02D89839A83AB83BC83A3019201281938
:102DC00039094A095B09C701B6010E94381A2981ED
:102DD0003A814B815C810E94481ADA01C901880D51
:102DE000991DAA1DBB1D0097A105B10539F0ED8104
:102DF000FE8180839183A283B38307C0AD81BE81AE
:102E00008D929D92AD92BC92139789819A81AB81EC
:102E1000BC81C816D906EA06FB06A0F081E090E066
:102E2000A0E0B0E0ED81FE8181AB92ABA3ABB4AB8F
:102E30004082518262827382848F108E11A212A20C
:102E400013A214A2AD81BE8159968C915997882303
:102E500009F46DC091966D917D918D919C9194979F
:102E60000E94E5184B015C01ED81FE8161AB72AB04
:102E700083AB94ABC480D580E680F78040845184D6
:102E80006284738481AD92ADA3ADB4AD89839A831E
:102E9000AB83BC83A701960124193509460957095C
:102EA000C501B4010E94381A29813A814B815C81A5
:102EB0000E94481AC21AD30AE40AF50A39F0ED81D1
:102EC000FE81C082D182E282F38207C0AD81BE81E1
:102ED0004D925D926D927C92139789819A81AB811C
:102EE000BC8188159905AA05BB0508F581E090E02D
:102EF000A0E0B0E0ED81FE8181AB92ABA3ABB4ABBF
:102F0000148E178E118ECF010E94E014AD81BE8108
:102F10005A968C915A97882351F081E05E968C9353
:102F20005E97FD0111A212A213A214A206C0AD81E8
:102F3000BE815E968C91882311F1ED81FE81FD9614
:102F400080819181A281B3810196A11DB11D8083F1
:102F50009183A283B383893E9340A105B10578F0A4
:102F60008D819E810E949814AD81BE815E961C92D7
:102F70005E97FD01FD961082118212821382ED810F
:102F8000FE81878D882309F1848D8823F1F061A16A
:102F900072A183A194A10E94E518AD81BE81D5964E
:102FA0006D937D938D939C93D897653F7140810578
:102FB000910558F08D819E810E94211506C0ED81FA
:102FC000FE81818D8111CDCEC1CE26960FB6F894AB
:102FD000DEBF0FBECDBFDF91CF91FF90EF90DF90AE
:102FE000CF90BF90AF909F908F907F906F905F90A9
:102FF0004F9008955058BB27AA270E9412180C948E
:103000008C190E947E1938F00E94851920F039F43D
:103010009F3F19F426F40C947B190EF4E095E7FB1E
:103020000C947519E92F0E949D1958F3BA1762077D
:1030300073078407950720F079F4A6F50C94BF195F
:103040000EF4E0950B2EBA2FA02D0B01B9019001C3
:103050000C01CA01A0011124FF27591B99F0593F07
:1030600050F4503E68F11A16F040A22F232F342F4F
:103070004427585FF3CF469537952795A795F0409D
:103080005395C9F77EF41F16BA0B620B730B840BB2
:10309000BAF09150A1F0FF0FBB1F661F771F881F6A
:1030A000C2F70EC0BA0F621F731F841F48F48795C2
:1030B00077956795B795F7959E3F08F0B0CF9395B4
:1030C000880F08F09927EE0F9795879508950E942D
:1030D000511908F481E008950E9480180C948C190D
:1030E0000E94851958F00E947E1940F029F45F3F34
:1030F00029F00C94751951110C94C0190C947B197A
:103100000E949D1968F39923B1F3552391F3951B00
:10311000550BBB27AA2762177307840738F09F5FF8
:103120005F4F220F331F441FAA1FA9F335D00E2E65
:103130003AF0E0E832D091505040E695001CCAF7D2
:103140002BD0FE2F29D0660F771F881FBB1F261795
:1031500037074807AB07B0E809F0BB0B802DBF016C
:10316000FF2793585F4F3AF09E3F510578F00C943B
:1031700075190C94C0195F3FE4F3983ED4F386951B
:1031800077956795B795F7959F5FC9F7880F911D5C
:103190009695879597F90895E1E0660F771F881F48
:1031A000BB1F621773078407BA0720F0621B730BFB
:1031B000840BBA0BEE1F88F7E09508950E94E5187E
:1031C0006894B1110C94C01908950E94A51988F053
:1031D0009F5798F0B92F9927B751B0F0E1F0660FDB
:1031E000771F881F991F1AF0BA95C9F714C0B1301C
:1031F00091F00E94BF19B1E008950C94BF19672F98
:10320000782F8827B85F39F0B93FCCF3869577954A
:103210006795B395D9F73EF4909580957095619533
:103220007F4F8F4F9F4F0895E89409C097FB3EF45E
:1032300090958095709561957F4F8F4F9F4F992303
:10324000A9F0F92F96E9BB279395F6958795779581
:103250006795B795F111F8CFFAF4BB0F11F460FF41
:103260001BC06F5F7F4F8F4F9F4F16C0882311F099
:1032700096E911C0772321F09EE8872F762F05C0AD
:10328000662371F096E8862F70E060E02AF09A9548
:10329000660F771F881FDAF7880F9695879597F93D
:1032A0000895990F0008550FAA0BE0E8FEEF1616D7
:1032B0001706E807F907C0F012161306E407F5072A
:1032C00098F0621B730B840B950B39F40A2661F09E
:1032D000232B242B252B21F408950A2609F4A14041
:1032E000A6958FEF811D811D089597F99F6780E84E
:1032F00070E060E008959FEF80EC089500240A9448
:103300001616170618060906089500240A941216C0
:103310001306140605060895092E0394000C11F4F3
:10332000882352F0BB0F40F4BF2B11F460FF04C0A0
:103330006F5F7F4F8F4F9F4F089557FD9058440FF9
:10334000551F59F05F3F71F04795880F97FB991F04
:1033500061F09F3F79F087950895121613061406C1
:10336000551FF2CF4695F1DF08C01616170618064E
:10337000991FF1CF86957105610508940895E89429
:10338000BB2766277727CB0197F908950E9451192B
:1033900008F48FEF08950E94DE190C948C190E9496
:1033A0007E1938F00E94851920F0952311F00C94B5
:1033B00075190C947B1911240C94C0190E949D1945
:1033C00070F3959FC1F3950F50E0551F629FF00178
:1033D000729FBB27F00DB11D639FAA27F00DB11D91
:1033E000AA1F649F6627B00DA11D661F829F22271A
:1033F000B00DA11D621F739FB00DA11D621F839FA1
:10340000A00D611D221F749F3327A00D611D231F76
:10341000849F600D211D822F762F6A2F11249F57C4
:1034200050409AF0F1F088234AF0EE0FFF1FBB1FC7
:10343000661F771F881F91505040A9F79E3F510586
:1034400080F00C9475190C94C0195F3FE4F3983E1A
:10345000D4F3869577956795B795F795E7959F5F30
:10346000C1F7FE2B880F911D9695879597F90895C2
:10347000DB018F939F930E948F1ABF91AF91A29F00
:10348000800D911DA39F900DB29F900D1124089562
:10349000A1E21A2EAA1BBB1BFD010DC0AA1FBB1F58
:1034A000EE1FFF1FA217B307E407F50720F0A21BCA
:1034B000B30BE40BF50B661F771F881F991F1A9437
:1034C00069F760957095809590959B01AC01BD0161
:1034D000CF010895052E97FB1EF400940E94811AD7
:1034E00057FD07D00E94481A07FC03D04EF40C94F5
:1034F000811A50954095309521953F4F4F4F5F4F22
:10350000089590958095709561957F4F8F4F9F4F4F
:103510000895EE0FFF1F0590F491E02D09940E948D
:103520009A1AA59F900DB49F900DA49F800D911D98
:1035300011240895A29FB001B39FC001A39F700DF5
:10354000811D1124911DB29F700D811D1124911DAB
:103550000895A6E1B0E044E050E00C94BE1A242F98
:103560000E94CD1A252F0E94CD1A0C94B71A0E94E2
:10357000CC1A272F0C94CD1ADC01CB01FC01F99950
:10358000FECF06C0F2BDE1BDF89A319600B40D92AF
:1035900041505040B8F70895262FF999FECF1FBA31
:1035A00092BD81BD20BD0FB6F894FA9AF99A0FBE6C
:0835B00001960895F894FFCF85
:1035B8006400000042007F00B400DD00F600FF0058
:1035C800F600DD00B50080004200000042007F00E8
:1035D800B400DD00F600FF00F600DD00B500800055
:0E35E80042000000FF00FF00FF00FF00000097
:00000001FF
