S011000061746D6567613332382E7372656307
S11300000C9434000C9451000C9451000C94510045
S11300100C9451000C9451000C9451000C94510018
S11300200C9451000C9451000C9451000C94510008
S11300300C9451000C9451000C9451000C945100F8
S11300400C9451000C9451000C9451000C945100E8
S11300500C9451000C9451000C9451000C945100D8
S11300600C9451000C94510011241FBECFEFD8E022
S1130070DEBFCDBF11E0A0E0B1E0EEEAF2E002C0E5
S113008005900D92AC37B107D9F721E0ACE7B1E0A8
S113009001C01D92A438B207E1F70E944C010C94F0
S11300A055010C9400008091800190918101992365
S11300B04CF0289A8091800190918101909389005D
S11300C080938800809180019091810199235CF450
S11300D02898809180019091810181509F4F909345
S11300E0890080938800089580917E0190917F011A
S11300F099234CF02C9A80917E0190917F019093EA
S11301008B0080938A0080917E0190917F019923D6
S11301105CF42C9880917E0190917F0181509F4FD7
S113012090938B0080938A00089580917C01909134
S11301307D0199233CF02D9A80917C0190917D0161
S11301408093B30080917C0190917D01992344F4C4
S11301502D9880917C0190917D0181508093B30012
S1130160089584B1816384B985B18E7C85B985B1E4
S1130170816385B90895E0E8F0E08081826A808334
S1130180E1E8F0E080818A6180831092850010921A
S113019084008FEF90E09093870080938600109204
S11301A089001092880010928B0010928A000895A2
S11301B0E0EBF0E08081836880831092B2001092BB
S11301C0B3000895809182019091830101969093E8
S11301D083018093820180917A0190917B01019641
S11301E090937B0180937A018091780190917901B9
S11301F00196909379018093780180918201909186
S11302008301CC9724F01092830110928201809193
S11302107A0190917B01CC9724F010927B0110928B
S11302207A018091780190917901CC9724F0109211
S1130230790110927801E0918201F0918301EE0F2F
S1130240FF1FE050FF4F8081918190938101809343
S11302508001E0917A01F0917B01EE0FFF1FE050E5
S1130260FF4F8081918190937F0180937E01E09183
S11302707801F0917901EE0FFF1FE050FF4F80816C
S1130280918190937D0180937C010E9453000E9490
S113029074000E94950008950E94B1000E94BB0062
S11102A00E94D8000E94E200FFCFF894FFCF26
S11302AE00001B0035004F0068007F009600AB0075
S11302BEBD00CE00DD00E900F200F900FE00FF00F3
S11302CEFE00F900F300E900DD00CE00BE00AB0035
S11302DE9600800068004F0035001B000000E6FF0A
S11302EECBFFB2FF99FF81FF6BFF56FF43FF32FF37
S11302FE23FF17FF0EFF07FF02FF01FF02FF06FF9A
S113030E0DFF17FF23FF31FF42FF55FF6AFF80FFEA
S10F031E98FFB0FFCAFFE5FF3B0013008E
S9030000FC
