S011000061746D6567613332382E7372656307
S11300000C9434000C9451000C9451000C94510045
S11300100C9451000C9451000C9451000C94510018
S11300200C9451000C9451000C9451000C940F0149
S11300300C9451000C9451000C9451000C945100F8
S11300400C9451000C9451000C9451000C945100E8
S11300500C9451000C9451000C9451000C945100D8
S11300600C9451000C94510011241FBECFEFD8E022
S1130070DEBFCDBF11E0A0E0B1E0ECE8F2E002C0E9
S113008005900D92A034B107D9F721E0A0E4B1E0C6
S113009001C01D92A234B207E1F70E9439010C9409
S11300A044010C940000FC01EE0FFF1FE050FF4FD1
S11300B0208127BD8E30910508F4289A0E97409729
S11300C008F428980895FC01EE0FFF1FE050FF4F3D
S11300D0208128BD8E30910508F4299A0E97409707
S11300E008F429980895FC01EE0FFF1FE050FF4F1C
S11300F020812093B3008E30910508F42A9A0E973C
S1130100409708F42A98089584B18F6684B98AB117
S113011081668AB985B1876085B9089584B5836A93
S113012084BD85B5816085BD17BC18BC0895E1E820
S1130130F0E0808188608083AFE6B0E08C918260DB
S11301408C9380818160808378940895E0EBF0E063
S1130150808183688083E1EBF0E08081816080832B
S11301601092B2001092B3000895809140019091D2
S113017041010196909341018093400180913E0199
S113018090913F01019690933F0180933E018091AD
S11301903C0190913D01019690933D0180933C0177
S11301A080914001909141014E9724F010924101B9
S11301B01092400180913E0190913F014E9724F0AE
S11301C010923F0110923E0180913C0190913D01BB
S11301D04E9724F010923D0110923C018091400111
S11301E0909141010E94530080913E0190913F0102
S11301F00E94630080913C0190913D010E94730034
S11302008091400190914101892B09F4589A809181
S11302104001909141010F9709F4589808951F9255
S11302200F920FB60F9211242F933F934F935F9326
S11302306F937F938F939F93AF93BF93EF93FF93AA
S11302400E94B50085E09DE090938900809388002A
S1130250FF91EF91BF91AF919F918F917F916F919A
S11302605F914F913F912F910F900FBE0F901F9070
S113027018950E9484000E948E000E9497000E949C
S10F0280A6000E94B500FFCFF894FFCF49
S113028C000068009600BD00DD00F200FE00FE00D8
S113029CF300DD00BE00960068003500000000008D
S11302AC67009500BD00DD00F200FE00FE00F300C7
S11302BCDD00BE00960068003600000014000A0041
S9030000FC
