:1000000021C045C044C043C042C041C0CBC33FC073
:100010003EC03DC03CC03BC03AC039C038C037C00C
:1000200036C035C034C007C208C209C20AC20BC2FA
:100030000CC20DC20EC20FC210C211C212C213C234
:1000400014C2B90811241FBECFE5D4E0DEBFCDBF76
:1000500010E0A0E6B0E0ECE6FDE102C005900D92F4
:10006000A63CB107D9F721E0A6ECB0E001C01D9293
:10007000AF3CB207E1F710E0C2E2D0E003C0219745
:10008000FE0160DEC132D107D1F761D86DCEB8CFA5
:10009000FC016083418352838AE090E094838383F0
:1000A0006334A1F0643411F1623479F527B381E04F
:1000B00090E002C0880F991F4A95E2F7982F90951B
:1000C000922397BB98B3892B88BB089524B381E012
:1000D00090E002C0880F991F4A95E2F7982F9095FB
:1000E000922394BB95B3892B85BB089521B381E0FE
:1000F00090E002C0880F991F4A95E2F7982F9095DB
:10010000922391BB92B3892B82BB0895FC01278176
:100110003085232B21F01086178281E0089580E03E
:100120000895FC019081933479F09434C1F09234B5
:1001300019F526B330E0C901018002C09595879575
:100140000A94E2F7817015C023B330E0C901018041
:1001500002C0959587950A94E2F781700AC020B392
:1001600030E0C901018002C0959587950A94E2F7B5
:10017000817091E08927089580E00895CF93DF93FF
:10018000EC01CFDF882389F08D819E8101969E83CB
:100190008D832B813C81281739079CF43E832D8366
:1001A00081E090E09A8789870CC01E821D82898534
:1001B0009A85892B21F081E090E098878F831A86B9
:1001C0001986DF91CF910895FC01608341835283AA
:1001D0006334A1F0643411F1623479F527B381E01E
:1001E00090E002C0880F991F4A95E2F7982F9095EA
:1001F000922397BB98B3892B88BB089524B381E0E1
:1002000090E002C0880F991F4A95E2F7982F9095C9
:10021000922394BB95B3892B85BB089521B381E0CC
:1002200090E002C0880F991F4A95E2F7982F9095A9
:10023000922391BB92B3892B82BB0895FC019081DC
:10024000933479F09434C1F0923419F526B330E048
:10025000C901018002C0959587950A94E2F78170E3
:1002600015C023B330E0C901018002C09595879580
:100270000A94E2F781700AC020B330E0C90101801E
:1002800002C0959587950A94E2F7817091E08927DD
:10029000089580E0089584B3886384BB85B3877C28
:1002A00085BB0895AB9A92E09A95F1F700C0882338
:1002B00014F4AC9A01C0AC9892E09A95F1F700C0A2
:1002C000AB9895E09A95F1F70000AB9A92E09A9579
:1002D000F1F700C086FF02C0AC9A01C0AC9892E072
:1002E0009A95F1F700C0AB9895E09A95F1F7000068
:1002F000AB9A92E09A95F1F700C085FF02C0AC9AE4
:1003000001C0AC9892E09A95F1F700C0AB9895E0E7
:100310009A95F1F70000AB9A92E09A95F1F700C038
:1003200084FF02C0AC9A01C0AC9892E09A95F1F7B4
:1003300000C0AB9895E09A95F1F70000AB9A92E077
:100340009A95F1F700C083FF02C0AC9A01C0AC9847
:1003500092E09A95F1F700C0AB9895E09A95F1F785
:100360000000AB9A92E09A95F1F700C082FF02C0BC
:10037000AC9A01C0AC9892E09A95F1F700C0AB98A6
:1003800095E09A95F1F70000AB9A92E09A95F1F713
:1003900000C081FF02C0AC9A01C0AC9892E09A956F
:1003A000F1F700C0AB9895E09A95F1F70000AB9A91
:1003B00092E09A95F1F700C080FF02C0AC9A01C0AC
:1003C000AC9882E08A95F1F700C0AB9895E09A95D9
:1003D000F1F70000AB9808951F93CF93DF93162F8A
:1003E000D42FC22FAD98AC985DDF812F5BDF8D2FAE
:1003F00059DF8C2F57DFAC98AD9A8DE08A95F1F7D5
:100400000000AD98DF91CF911F910895CF93DF93B6
:1004100000D000D0CDB7DEB769837A838B839C830D
:1004200089819A81AB81BC818E309105F8F4FC0101
:10043000ED5EFF4F09942EE719C02CE017C026EBA4
:1004400015C02EE913C02CEC11C02AED0FC02AEF05
:100450000DC02EE00BC02EEF09C02EED07C02EEE12
:1004600005C022E603C022E701C026ED822F0F90CF
:100470000F900F900F90DF91CF9108952F923F92A0
:100480004F925F926F927F928F929F92AF92BF92A4
:10049000CF92DF92EF92FF920F931F93CF93DF9350
:1004A000CDB7DEB728970FB6F894DEBF0FBECDBF2D
:1004B00069837A838B839C831A01B901330F880B7C
:1004C000990BA4DF082F89819A81AB81BC81892B8C
:1004D0008A2B8B2B51F460E070E0CB0197DF20E09A
:1004E00040E0682F802F78DF8DC069817A818B8111
:1004F0009C8149805A806B807C8089809A80AB8007
:10050000BC8029813A814B815C812D833E834F835E
:1005100058870F2EFAE0CF2ED12CE12CF12CF02DA4
:10052000A7019601E9DB7727882799276FDF182F26
:10053000C301B201A7019601DFDBCA01B901A7011E
:100540009601DADB77278827992760DF782EC501A7
:10055000B40124E630E040E050E0CEDBCA01B9014E
:10056000A7019601C9DB7727882799274FDFB82E87
:100570006D817E818F81988528EE33E040E050E0E8
:10058000BBDBCA01B901A7019601B6DB7727882733
:1005900099273CDF89819A81AB81BC8189819A81CD
:1005A000AB81BC8184369105A105B1052CF432E004
:1005B000231631040CF4B12C89819A81AB81BC8162
:1005C0000A97A105B1051CF421143104A9F042E0F9
:1005D0002416310449F053E02516310449F02A94D9
:1005E000232859F4116009C0272D2160722E05C0FF
:1005F0003B2D3160B32E01C0712C2B2D472D612F67
:10060000802FEADE28960FB6F894DEBF0FBECDBF6E
:10061000DF91CF911F910F91FF90EF90DF90CF90DE
:10062000BF90AF909F908F907F906F905F904F9012
:100630003F902F900895CF93DF9300D000D0CDB797
:10064000DEB769837A838B839C8369817A818B810E
:100650009C8124E630E040E050E04EDBCA01B90165
:100660002CE030E041E050E009DF0F900F900F9058
:100670000F90DF91CF910895CF93DF9300D000D0FA
:10068000CDB7DEB769837A838B839C8369817A8156
:100690008B819C812AE030E042E050E0EFDE0F9059
:1006A0000F900F900F90DF91CF9108958091CC0122
:1006B000882391F08091CA019091CB01019690938B
:1006C000CB018093CA018131974234F01092CC0162
:1006D0001092CB011092CA0108958091CD019091A2
:1006E000CE01892B69F586EC90E07DD881110EC092
:1006F0006091C6007091C7008091C8009091C900B8
:100700002BE030E040E050E0B9DE1AC08091CC012F
:10071000882371F06091C6007091C7008091C80075
:100720009091C9002BE030E040E050E0A7DE08C027
:100730002BE030E040E050E060E070E0CB019EDE76
:100740008091CD019091CE01029769F46091F20001
:100750007091F300072E000C880B990B2DE030E010
:1007600040E050E08BDE8091CD019091CE01039767
:1007700069F46091BA017091BB018091BC019091C4
:10078000BD012AE030E042E050E078DE08958EB509
:1007900088608EBD89B7806189BF8EB584608EBD4B
:1007A000789408951F920F920FB60F9211242F93F1
:1007B0003F934F935F936F937F938F939F93AF93E9
:1007C000BF93EF93FF9386EC90E048DA6091C60008
:1007D0007091C70086EC90E00AD67FDFFF91EF9121
:1007E000BF91AF919F918F917F916F915F914F9149
:1007F0003F912F910F900FBE0F901F901895BB9AAD
:10080000C39885B58A6685BD14BC13BC089586B1AE
:10081000876886B987B1816487B9369A0895369911
:100820005DC084B195B1A0E0B0E0B695A79597956D
:1008300087958093C6019093C701A093C801B09398
:10084000C9014091C2015091C3016091C4017091EE
:10085000C501840F951FA61FB71F8093C2019093F7
:10086000C301A093C401B093C5014091BE01509152
:10087000BF016091C0017091C1014F5F5F4F6F4F29
:100880007F4F4093BE015093BF016093C0017093AE
:10089000C1014A3F510561057105F9F4BC01CD0163
:1008A0002CE231E040E050E005DA2093BA013093C9
:1008B000BB014093BC015093BD011092BE01109248
:1008C000BF011092C0011092C1011092C20110929A
:1008D000C3011092C4011092C501369A089540E0F8
:1008E00050E063E485EB91E06FDC40E050E064E4CD
:1008F0008AEA91E0CDDB41E050E064E48FE991E0E9
:10090000C7DB42E050E064E484E991E0C1DB44E00D
:1009100050E064E489E891E0BBDB43E050E064E44C
:100920008EE791E0B5DB46E050E064E483E791E0D8
:10093000AFDB20E047E050E064E48EE691E023D4B2
:1009400021E046E050E062E489E691E01CD421E039
:1009500047E050E062E484E691E015D421E045E010
:1009600050E064E48FE591E00ED486EC90E079D518
:10097000B89AB99ABA9AA29ABC9ABD9A8F9A8BDC05
:1009800006DF3DDF44DF2FEF80E792E0215080401B
:100990009040E1F700C000008EE691E0C6D40895D3
:1009A0008AEA91E0EBDB8FE991E0E8DB84E991E012
:1009B000E5DB89E891E0E2DB8EE791E0DFDB83E7CE
:1009C00091E0DCDB2CDF8091BA019091BB01909328
:1009D000F7008093F60008958FE991E097DB882374
:1009E00061F08091E100811108C085EB91E026DC87
:1009F000811103C081E08093DE0008958AEA91E0CE
:100A000085DB882341F085EB91E018DC811103C080
:100A100081E08093DF00089584E991E077DB88230B
:100A200019F081E08093E000089580919201909107
:100A30009301892BD9F18091B8019091B901019668
:100A4000883B2BE092072CF49093B9018093B80176
:100A50002DC088EB9BE09093B9018093B801809101
:100A6000CD019091CE01892B29F46AE070E086ECEB
:100A700090E049D58091CD019091CE0102970297E7
:100A800028F46AE070E086EC90E0B0D581E08093D5
:100A9000CC011092CB011092CA018FEF91EE24E0AD
:100AA000815090402040E1F700C0000089E891E0CB
:100AB0002DDB882321F181E090E09093B9018093B0
:100AC000B8018091CD019091CE01892B29F461E08C
:100AD00070E086EC90E017D58091CD019091CE0129
:100AE0000297029728F461E070E086EC90E07ED5F2
:100AF00081E08093CC011092CB011092CA018091C9
:100B0000870190918801892BD1F18091B801909152
:100B1000B9010196883B2BE092072CF49093B90120
:100B20008093B8012CC088EB9BE09093B90180932F
:100B3000B8018091CD019091CE01892B29F46AE012
:100B400070E086EC90E017D58091CD019091CE01B8
:100B5000029729F46AE070E086EC90E071D581E0BC
:100B60008093CC011092CB011092CA018FEF91EECD
:100B700024E0815090402040E1F700C000008EE763
:100B800091E0C4DA882319F181E090E09093B901F3
:100B90008093B8018091CD019091CE01892B29F4E9
:100BA00061E070E086EC90E0E6D48091CD01909118
:100BB000CE01029729F461E070E086EC90E040D528
:100BC00081E08093CC011092CB011092CA0108956C
:100BD0008FE591E0AAD384E691E046D389E691E0DF
:100BE00043D3089589E891E0C9DA80919201909108
:100BF0009301892BD1F18091B8019091B9010196AF
:100C00009093B9018093B801209160003091610008
:100C10008217930754F13093B9012093B801809162
:100C2000CD019091CE018B30910559F08C3091051A
:100C300071F00A9789F468EE73E086EC90E029D5AC
:100C40000BC068EE73E086EC90E066D505C06AE004
:100C500070E086EC90E0A3D52FEF80E792E0215082
:100C600080409040E1F700C0000089E891E04EDA52
:100C7000882369F11092B9011092B8018091CD01D9
:100C80009091CE018B30910559F08C30910571F027
:100C90000A9789F464E670E086EC90E0FAD40BC021
:100CA00064E670E086EC90E037D505C061E070E066
:100CB00086EC90E074D58FE591E0D6D22FEF80E7F7
:100CC00092E0215080409040E1F700C0000008957C
:100CD0008EE791E053DA8091870190918801892B0A
:100CE000D1F18091B8019091B90101969093B90129
:100CF0008093B801209160003091610082179307C2
:100D000054F13093B9012093B8018091CD019091B5
:100D1000CE018B30910559F08C30910571F00A9716
:100D200089F468EE73E086EC90E0D6D40BC068EEF0
:100D300073E086EC90E013D505C06AE070E086ECC5
:100D400090E040D52FEF80E792E021508040904026
:100D5000E1F700C000008EE791E0D8D9882369F15F
:100D60001092B9011092B8018091CD019091CE01FD
:100D70008B30910559F08C30910571F00A9789F408
:100D800064E670E086EC90E0A7D40BC064E670E007
:100D900086EC90E0E4D405C061E070E086EC90E081
:100DA00011D58FE591E060D22FEF80E792E02150DE
:100DB00080409040E1F700C000000895AF92BF92DC
:100DC000CF92DF92EF92FF920F931F93CF93DF9317
:100DD00086EC90E008D5882309F448C009E811E0C2
:100DE0000F2EFEE7AF2EF1E0BF2EF02DCFE9D1E0C0
:100DF0000F2EFAE0CF2ED12CF02D0F2EF6ECEF2E89
:100E0000F0E0FF2EF02DF80181859285892B29F4E1
:100E1000F50181859285892B21F089859A85892B19
:100E200031F48091CD019091CE010A97F9F4D092DE
:100E3000CE01C092CD01CCDED5DE4ADFF701668D52
:100E4000778D80A191A1F7DBCE0198D9CE015ED933
:100E5000F80181859285892BB1F689859A85892B40
:100E600091F61092CE011092CD01CDCFDF91CF91AE
:100E70001F910F91FF90EF90DF90CF90BF90AF90B8
:100E80000895AF92BF92CF92DF92EF92FF920F93AD
:100E90001F93CF93DF9386EC90E0A5D4882309F4C9
:100EA00048C009E811E00F2EFEE7AF2EF1E0BF2E9B
:100EB000F02DCAEAD1E00F2EFBE0CF2ED12CF02D81
:100EC0000F2EF6ECEF2EF0E0FF2EF02DF8018185CD
:100ED0009285892B29F4F50181859285892B21F052
:100EE00089859A85892B31F48091CD019091CE012D
:100EF0000B97F9F4D092CE01C092CD0169DE72DE7B
:100F0000E7DEF70166A177A180A591A594DBCE016C
:100F100035D9CE01FBD8F80181859285892BB1F6B0
:100F200089859A85892B91F61092CE011092CD0178
:100F3000CDCFDF91CF911F910F91FF90EF90DF9078
:100F4000CF90BF90AF900895AF92BF92CF92DF92B3
:100F5000EF92FF920F931F93CF93DF9386EC90E075
:100F600042D4882309F44AC009E811E00F2EFEE7B5
:100F7000AF2EF1E0BF2EF02DC3E7D1E00F2EFCE045
:100F8000CF2ED12CF02D0F2EF6ECEF2EF0E0FF2E11
:100F9000F02DF80181859285892B29F4F501818551
:100FA0009285892B21F089859A85892B31F480914E
:100FB000CD019091CE010C9709F5D092CE01C0924F
:100FC000CD0106DE0FDE84DEF70166A577A5072ECC
:100FD000000C880B990B50DBCE01D0D8CE0196D8EF
:100FE000F80181859285892BA1F689859A85892BBF
:100FF00081F61092CE011092CD01CBCFDF91CF912F
:101000001F910F91FF90EF90DF90CF90BF90AF9026
:101010000895CF93DF9386EC90E0E5D3882311F118
:101020008091A8019091A901892BE1F080917C0128
:1010300090917D01892BB1F0CFE9D1E006C080917C
:101040007C0190917D01892B69F086EC90E0D8D3EA
:1010500083E791E093D883E791E058D889859A8512
:10106000892B69F7DF91CF91089583E791E04ED8FE
:101070008823F1F08091CD019091CE0182309105CD
:1010800061F08330910581F0892B91F482E090E04A
:101090009093CE018093CD01089583E090E09093EA
:1010A000CE018093CD0108951092CE011092CD0112
:1010B000089585EB91E0C2D8882329F0E6ECF0E0B2
:1010C000108E118E138E85EB91E0B8D8882321F015
:1010D0008EE691E0C9D008958EE691E026D108957C
:1010E0008091DE00811104C08091DF00882351F0DF
:1010F0008FE591E01AD184E691E0B6D089E691E0DF
:10110000B3D003C08FE591E0AFD08091E100882398
:1011100079F08091DE00811107C08091DF0081119C
:1011200003C089E691E001D184E691E09DD0089565
:1011300089E691E099D08091DE00811107C080910D
:10114000DF00811103C084E691E0EFD00895C7DB92
:1011500027DC42DC53DC60DC68DC30DE92DEF4DE6F
:1011600058DF83DFA6DF86EC90E0C3D3B9DF9EDAD9
:10117000EFCF84E6E2E6F0E0ABEFB0E001900D9255
:101180008A95E1F70895FC016083418352832383AC
:101190002223A1F16334A1F0643409F1623409F02F
:1011A00062C028B381E090E002C0880F991F4A9581
:1011B000E2F7922F982B98BB97B3892B87BB0895A2
:1011C00025B381E090E002C0880F991F4A95E2F7AD
:1011D000922F982B95BB94B3892B84BB089522B38F
:1011E00081E090E002C0880F991F4A95E2F7922FA4
:1011F000982B92BB91B3892B81BB08956334A1F0E6
:10120000643411F1623479F528B381E090E002C0D2
:10121000880F991F4A95E2F7982F9095922398BBD3
:1012200097B3892B87BB089525B381E090E002C076
:10123000880F991F4A95E2F7982F9095922395BBB6
:1012400094B3892B84BB089522B381E090E002C05F
:10125000880F991F4A95E2F7982F9095922392BB99
:1012600091B3892B81BB0895FC01F8948381882375
:1012700061F18081833489F08434D9F0823409F0BB
:1012800051C028B381E090E0018002C0880F991F0F
:101290000A94E2F7822B88BB45C025B381E090E039
:1012A000018002C0880F991F0A94E2F7822B85BB48
:1012B00039C022B381E090E0018002C0880F991FFD
:1012C0000A94E2F7822B82BB2DC08081833489F09F
:1012D0008434E1F0823431F528B381E090E001807C
:1012E00002C0880F991F0A94E2F78095822388BB79
:1012F00019C025B381E090E0018002C0880F991FDA
:101300000A94E2F78095822385BB0CC022B381E06A
:1013100090E0018002C0880F991F0A94E2F780953F
:10132000822382BB148278940895FC01F89483810F
:1013300081112CC08081833489F08434D9F08234C7
:1013400009F051C028B381E090E0018002C0880F0D
:10135000991F0A94E2F7822B88BB45C025B381E030
:1013600090E0018002C0880F991F0A94E2F7822B57
:1013700085BB39C022B381E090E0018002C0880FB4
:10138000991F0A94E2F7822B82BB2DC0808183349F
:1013900089F08434E1F0823431F528B381E090E0C3
:1013A000018002C0880F991F0A94E2F7809582237A
:1013B00088BB19C025B381E090E0018002C0880F8E
:1013C000991F0A94E2F78095822385BB0CC022B353
:1013D00081E090E0018002C0880F991F0A94E2F733
:1013E0008095822382BB81E0848378940895CF9393
:1013F000DF93EC019B01770F440B550B2883398356
:101400004A835B8368E574E180E090E053D43BBDA0
:101410002ABD8B8D811103C0888D8823D9F08881E6
:101420009981AA81BB8182339105A105B10540F064
:10143000FE01E956FF4F808191819DA78CA70CC0CA
:10144000880F991FFE01E80FF91F85A996A99DA78E
:101450008CA702C01DA61CA68CA583BDDF91CF91D1
:101460000895CF92DF92EF92FF92CF93DF93EC013A
:1014700088E290E0A0E0B0E08C839D83AE83BF83E0
:10148000C12CD12C7601C394C886D986EA86FB8606
:1014900086E990E0A0E0B0E08C879D87AE87BF87AB
:1014A00084E690E0A0E0B0E0888B998BAA8BBB8BA0
:1014B00080E395E7A0E0B0E08C8B9D8BAE8BBF8B7B
:1014C00068E270E0CE0193DF88EC90E0A0E0B0E04D
:1014D0008E8F9F8FA8A3B9A38EA39FA3A8A7B9A7F8
:1014E000CAA2DBA2ECA2FDA281E090E09BA78AA7A2
:1014F0008EE190E09FA78EA7DF91CF91FF90EF90B4
:10150000DF90CF900895FC01CB01770FAA0BBB0BA6
:101510004481558166817781840F951FA61FB71F6F
:1015200084839583A683B7834085518562857385BF
:1015300084179507A607B70720F44483558366836D
:10154000778384859585A685B78544815581668195
:10155000778184179507A607B70720F484839583BE
:10156000A683B78384819581A681B7818083918387
:10157000A283B3830895CF92DF92EF92FF920F93ED
:101580001F93FC010481158126813781CB01770FE0
:10159000AA0BBB0B68017901C81AD90AEA0AFB0A2F
:1015A00040855185628573854C155D056E057F0507
:1015B00050F480179107A207B30728F4C482D5829C
:1015C000E682F78204C044835583668377838481EF
:1015D0009581A681B78180839183A283B3831F9174
:1015E0000F91FF90EF90DF90CF9008950F931F938E
:1015F000DB01FC0140815181628173818A019B0181
:101600000150110921093109013311052105310565
:10161000A0F4FA01EE0FFF1FE80FF91F25A936A964
:101620002A0F3B1F2F3F310509F03CF4440F551F93
:10163000FC01E40FF51F36AB25AB1F910F91089508
:101640000F931F93DB01FC01408151816281738103
:101650008A019B010150110921093109013311054A
:101660002105310598F4FA01EE0FFF1FE80FF91F6D
:1016700025A936A92A1B3B0B121613063CF4440F6E
:10168000551FFC01E40FF51F36AB25AB1F910F91E1
:1016900008950F931F93FC01AB01770F660B770B37
:1016A000068D178D20A131A1400F511F621F731F9E
:1016B000468F578F60A371A384899589A689B789BE
:1016C00084179507A607B70720F4868F978FA0A3E6
:1016D000B1A31F910F910895FC01868D978DA0A154
:1016E000B1A1AB01770F660B770B481759076A0753
:1016F0007B0748F4841B950BA60BB70B868F978F3F
:10170000A0A3B1A3089580899189A289B389868F06
:10171000978FA0A3B1A308950F931F93FC01AB0172
:10172000770F660B770B06A117A120A531A5400FF7
:10173000511F621F731F46A357A360A771A7848917
:101740009589A689B78984179507A607B70720F456
:1017500086A397A3A0A7B1A71F910F910895FC019D
:1017600086A197A1A0A5B1A5AB01770F660B770B5A
:10177000481759076A077B0748F4841B950BA60B8B
:10178000B70B86A397A3A0A7B1A7089580899189D5
:10179000A289B38986A397A3A0A7B1A70895FC0146
:1017A00026A537A5620F731F693EF3E07F0724F477
:1017B000FC0177A766A7089520E137E2FC0137A76F
:1017C00026A70895FC0126A537A5621773072CF4F8
:1017D000261B370B37A726A7089521E030E0FC0130
:1017E00037A726A70895FC01838D811107C0908D2E
:1017F000911105C0918D81E08927089580E00895B9
:10180000DC0141E050E060E070E014964D935D93A0
:101810006D937C93179721E058962C9358975D967B
:101820002C93FC01F59689569F4F11921192E8175F
:10183000F907D9F70895CF93DF93FC0182A993A903
:101840000196893E23E092071CF493AB82AB4EC015
:1018500013AA12AA20A931A986A597A52817390786
:10186000C4F480819181A281B38182339105A10565
:10187000B10578F4EC01CC0FDD1FCE0FDF1F2DA9D1
:101880003EA92F3F31052CF42F5F3F4F3EAB2DABD0
:101890002DC080819181A281B38181339105A10501
:1018A000B10561F4158E81E0818F82E390E0A0E0C4
:1018B000B0E084839583A683B78318C0AC01BD01D3
:1018C0004F5F5F4F6F4F7F4F4083518362837383BE
:1018D000440F551FEF01C40FD51F880F991FE80F44
:1018E000F91F85A996A90A979EAB8DABDF91CF9181
:1018F00008954F925F926F927F928F929F92AF92D4
:10190000BF92CF92DF92EF92FF92CF93DF9300D0FE
:1019100000D000D0CDB7DEB79E838D83DC01589612
:101920008C915897882339F059968C915997882330
:1019300011F058961C92ED81FE81828D882381F0F2
:10194000838D8111FEC0848D811103C081E0848F5D
:1019500004C0AD81BE815C961C92ED81FE81128E29
:10196000AD81BE8158968C915897882309F45FC049
:10197000EBEDF5E03197F1F700C000009296CD90C5
:10198000DD90ED90FC909597FFEFCF1ADF0AEF0AFC
:10199000FF0AAD81BE819296CD92DD92ED92FC92CE
:1019A000959718968D909D90AD90BC901B975E96E4
:1019B0004D905D906D907C909197FD018481958113
:1019C000A681B7819C01AD01281939094A095B0933
:1019D000C701B60160D1A30192016CD1DA01C9013E
:1019E000880D991DAA1DBB1D0097A105B10539F0F1
:1019F000ED81FE8180839183A283B38307C0AD8193
:101A0000BE818D929D92AD92BC9213974C145D0451
:101A10006E047F0460F481E090E0A0E0B0E0ED812E
:101A2000FE8182A393A3A4A3B5A3838F108EAD815F
:101A3000BE8159968C915997882309F477C0EBEDB4
:101A4000F5E03197F1F700C000009296CD90DD905F
:101A5000ED90FC909597FFEFCF1ADF0AEF0AFF0A8F
:101A6000AD81BE819296CD92DD92ED92FC929597DA
:101A700014968D909D90AD90BC90179718964D90B0
:101A80005D906D907C901B9796968D919D910D9099
:101A9000BC91A02D89839A83AB83BC83A50194015B
:101AA0002419350946095709C701B601F4D029811F
:101AB0003A814B815C81FED0821A930AA40AB50A4E
:101AC00039F0ED81FE8180829182A282B38207C0CB
:101AD000AD81BE814D925D926D927C92139789810A
:101AE0009A81AB81BC818C159D05AE05BF05F0F4D4
:101AF00081E090E0A0E0B0E0ED81FE8182A393A3BD
:101B0000A4A3B5A3138E158E118E828D8823F9F0B0
:101B1000FFE729EA83E0F15020408040E1F700C070
:101B2000000081E0AD81BE8158968C93ED81FE81ED
:101B3000858D882361F0838D882349F0CF017BDE7A
:101B400006C081E0AD81BE8159968C9309CF26965F
:101B50000FB6F894DEBF0FBECDBFDF91CF91FF90DF
:101B6000EF90DF90CF90BF90AF909F908F907F903D
:101B70006F905F904F900895C098C198C298AA98AE
:101B8000C498C5980895FC0122A533A523303105DA
:101B9000B1F03CF42130310561F02230310561F0C3
:101BA00019C02530310589F06CF02630310581F0FF
:101BB00011C0C498C29A0EC0C198C59A0BC0C298F1
:101BC000C09A08C0C598AA9A05C0C098C49A02C015
:101BD000AA98C19A22A533A52F5F3F4F2730310520
:101BE0001CF433A722A7089581E090E093A782A771
:101BF0000895FC0122A533A523303105C1F03CF442
:101C000021303105D1F022303105A1F018C0253046
:101C1000310539F04CF02630310589F4C49AC29868
:101C20000EC0C19AC5980BC0C29AC09808C0C59A88
:101C3000AA9805C0C09AC49802C0AA9AC19822A5C1
:101C400033A52F5F3F4F273031051CF433A722A760
:101C5000089581E090E093A782A70895CF93DF9342
:101C6000EC018B8D811103C0888D882349F08C8D08
:101C7000811103C0CE0187DF0BC0CE01BADF08C0DF
:101C8000CE017ADF81E090E09BA78AA71DA61CA663
:101C9000DF91CF910895DB018F939F9349D0BF913E
:101CA000AF91A29F800D911DA39F900DB29F900DAB
:101CB00011240895A1E21A2EAA1BBB1BFD010DC021
:101CC000AA1FBB1FEE1FFF1FA217B307E407F507EC
:101CD00020F0A21BB30BE40BF50B661F771F881FC8
:101CE000991F1A9469F760957095809590959B015E
:101CF000AC01BD01CF010895052E97FB16F40094A9
:101D00000FD057FD05D0D6DF07FC02D046F408C03F
:101D100050954095309521953F4F4F4F5F4F089517
:101D200090958095709561957F4F8F4F9F4F089547
:101D30000FD0A59F900DB49F900DA49F800D911D75
:101D400011240895EE0FFF1F0590F491E02D0994E2
:101D5000A29FB001B39FC001A39F01D0B29F700D9D
:0C1D6000811D1124911D0895F894FFCFFF
:101D6C00E803AA00AA00AA00AA00AA00AA00AA00D6
:101D7C00AA00AA00AA00AA00B400B400B400B400DF
:101D8C00B400B400B400B400B400BE00BE00BE0089
:101D9C00BE00BE00BE00BE00BE00BE00BE00BE0047
:101DAC00C800C800C800C800C800C800C800D200DD
:101DBC00D200D200DC00DC00E600E600F000F0000F
:061DCC00FA00FA00FF001E
:00000001FF
